:020000040800F2
:1000000000500020B5130008F5120008FB1200088C
:1000100001130008071300080D130008000000007A
:1000200000000000000000000000000013130008A2
:100030001F130008000000002B13000837130008EE
:10004000FD130008FD130008FD130008FD13000850
:10005000FD130008FD130008FD130008FD13000840
:10006000FD130008FD130008FD130008FD13000830
:10007000FD130008FD130008FD130008FD13000820
:10008000FD130008FD130008FD130008FD13000810
:10009000FD130008FD130008FD130008FD13000800
:1000A00045130008591300086D1300088113000858
:1000B00095130008FD130008FD130008FD13000848
:1000C000FD130008FD130008FD130008FD130008D0
:1000D000FD130008FD130008FD130008FD130008C0
:1000E000FD130008FD130008FD13000800000000C8
:1000F0000000000000000000000000000000000000
:0C01000000000000000000005FF808F1A3
:10010C0010B5054C237833B9044B13B10448AFF345
:10011C0000800123237010BD10000020000000009F
:10012C00904A000808B5034B1BB103490348AFF3D1
:10013C00008008BD0000000014000020904A000858
:10014C004FF0FF0C1CEAD0521EBF1CEAD15392EAAE
:10015C000C0F93EA0C0F6FD01A4480EA010C40028A
:10016C0018BF5FEA41211ED04FF0006343EA5010E4
:10017C0043EA5111A0FB01310CF00040B1F5000F26
:10018C003EBF490041EAD3715B0040EA010062F1D5
:10019C007F02FD2A1DD8B3F1004F40EBC25008BFBF
:1001AC0020F00100704790F0000F0CF0004C08BFDD
:1001BC0049024CEA502040EA51207F3AC2BFD2F1AA
:1001CC00FF0340EAC250704740F400004FF00003B8
:1001DC00013A5DDC12F1190FDCBF00F000407047F2
:1001EC00C2F10002410021FA02F1C2F1200200FA30
:1001FC0002FC5FEA310040F1000053EA4C0308BFF7
:10020C0020EADC70704792F0000F00F0004C02BF47
:10021C00400010F4000F013AF9D040EA0C0093F0C2
:10022C00000F01F0004C02BF490011F4000F013B1C
:10023C00F9D041EA0C018FE70CEAD15392EA0C0F8A
:10024C0018BF93EA0C0F0AD030F0004C18BF31F0F5
:10025C00004CD8D180EA010000F00040704790F0CB
:10026C00000F17BF90F0004F084691F0000F91F06F
:10027C00004F14D092EA0C0F01D142020FD193EA35
:10028C000C0F03D14B0218BF084608D180EA0100BD
:10029C0000F0004040F0FE4040F40000704740F099
:1002AC00FE4040F4400070474FF0FF0C1CEAD05267
:1002BC001EBF1CEAD15392EA0C0F93EA0C0F69D0C3
:1002CC00A2EB030280EA010C49024FEA402037D02E
:1002DC004FF0805343EA111143EA10130CF0004025
:1002EC008B4238BF5B0042F17D024FF4000C8B4215
:1002FC0024BF5B1A40EA0C00B3EB510F24BFA3EBF5
:10030C00510340EA5C00B3EB910F24BFA3EB9103C4
:10031C0040EA9C00B3EBD10F24BFA3EBD10340EA1E
:10032C00DC001B0118BF5FEA1C1CE0D1FD2A3FF664
:10033C0050AF8B4240EBC25008BF20F00100704719
:10034C000CF0004C4CEA50207F32C2BFD2F1FF03BC
:10035C0040EAC250704740F400004FF00003013AED
:10036C0037E792F0000F00F0004C02BF400010F491
:10037C00000F013AF9D040EA0C0093F0000F01F0A5
:10038C00004C02BF490011F4000F013BF9D041EAC7
:10039C000C0195E70CEAD15392EA0C0F08D14202FA
:1003AC007FF47DAF93EA0C0F7FF470AF084676E7CD
:1003BC0093EA0C0F04D14B023FF44CAF08466EE7A6
:1003CC0030F0004C18BF31F0004CCAD130F0004274
:1003DC007FF45CAF31F000437FF43CAF5FE700BFCC
:1003EC004FF0FF3C06E000BF4FF0010C02E000BFF5
:1003FC004FF0010C4DF804CD4FEA40024FEA410397
:10040C007FEA226C18BF7FEA236C11D001B052EA4C
:10041C00530C18BF90EA010F58BFB2EB030088BF12
:10042C00C81738BF6FEAE17018BF40F00100704781
:10043C007FEA226C02D15FEA402C05D17FEA236C63
:10044C00E4D15FEA412CE1D05DF8040B704700BFAA
:10045C00844608466146FFE70FB5FFF7C9FF002841
:10046C0048BF10F1000F0FBD4DF808EDFFF7F4FF7A
:10047C000CBF012000205DF808FB00BF4DF808ED13
:10048C00FFF7EAFF34BF012000205DF808FB00BF36
:10049C004DF808EDFFF7E0FF94BF012000205DF858
:1004AC0008FB00BF4DF808EDFFF7D2FF94BF012009
:1004BC0000205DF808FB00BF4DF808EDFFF7C8FF02
:1004CC0034BF012000205DF808FB00BF42000ED2B3
:1004DC00B2F1FE4F0BD34FF09E03B3EB126209D473
:1004EC004FEA002343F0004323FA02F070474FF029
:1004FC000000704712F1610F01D1420202D14FF09E
:10050C00FF3070474FF00000704700BF90B589B0C6
:10051C0000AFF860B9603B601346FB71FB795B0080
:10052C00DBB23B75BB683B6107F1100339681846B9
:10053C0000F022F8FB681C4607F110030FCB84E88F
:10054C000F00F8682437BD4690BD80B582B000AF6F
:10055C0078607B6818687B681B7999B264230222E7
:10056C0001F040FF0346002B0CBF01230023DBB23C
:10057C0018460837BD4680BD80B582B000AF7860A4
:10058C0039604FF000013868FFF76EFF0346002B0F
:10059C0003D07B680C4A9A6002E07B683A689A60E8
:1005AC007B689B6819464FF08B40FFF77DFE034636
:1005BC001846FFF78BFF03469AB27B689A8100BFFF
:1005CC000837BD4680BD00BF3333534080B582B081
:1005DC0000AF7860084611461A4603467B800B46EE
:1005EC007B7013463B703B787A787988786800F09A
:1005FC0022F8034618460837BD4680BD80B584B046
:10060C0000AF78600121786800F095F80346FB8113
:10061C00FB894FF6FF72934208D0FB8903F08003ED
:10062C00002B14BF01230023DBB200E0002318468B
:10063C001037BD4680BD80B586B002AF78600846E5
:10064C0011461A4603467B800B467B7013463B7063
:10065C007B78602B28D0602B4ADC002B02D0402BFF
:10066C0022D045E03B781B015AB297F90130134375
:10067C005AB27B881B0A9BB25BB213435BB2DBB2F0
:10068C003B737B88DBB27B737B6818687B681B7958
:10069C0099B207F10C024FF47A730093022301F024
:1006AC0037FB0346FB7323E07B881B017B803B7885
:1006BC005B005AB297F9013013435BB2DBB23B7368
:1006CC007B881B0A9BB2DBB27B737B88DBB2BB7370
:1006DC007B6818687B681B7999B207F10C024FF4A0
:1006EC007A730093032301F013FB0346FB7300BFE3
:1006FC00FB7B002B01D0002319E07B78602B15D1FC
:10070C007868FFF77BFF0346012B01D101230EE034
:10071C00192000F0D1FE7868FFF770FF0346012B1B
:10072C0001D1012303E0192000F0C6FE0123184675
:10073C001037BD4680BD2DE9F04389B002AF78601B
:10074C000B46FB706B461E46FB78BB820023FB827C
:10075C00F9780B46013B3B61CBB20022984691469F
:10076C004FF000024FF000034FEAC90343EA5873FD
:10077C004FEAC802CBB200221C4615464FF00002CD
:10078C004FF00003EB0043EA5473E2000B460733CF
:10079C00DB08DB00ADEB030D02AB0033FB607B68C9
:1007AC0018687B681B7999B2FB789BB24FF47A720C
:1007BC000092FA6801F0AAFB0346FB72FB7A002B4D
:1007CC0002D04FF6FF731FE0FB78052B0AD0052BE8
:1007DC0019DC012B02D0032B04D014E0FB681B782E
:1007EC00FB8210E0BB8A023BFA68D35CFB82FB8A7B
:1007FC001B021AB2BB8A013BF968CB5C1BB21343D8
:10080C001BB2FB8200BFFB8AB54618461C37BD469F
:10081C00BDE8F0832DE9B00F95B000AFF864FB6C28
:10082C001B68B3F1804F40F09281FB6C1B7F013B46
:10083C00072B00F28E8101A252F823F06908000800
:10084C001D0900085F0B0008CB0900085F0B0008AE
:10085C005F0B00085F0B0008790A00084FF080431B
:10086C001B6A03F00203002B13D14FF080435B6B28
:10087C0000223B647A648B4BD7E91012C3E9001257
:10088C004FF080431B6A4FF0804243F00203136227
:10089C0060E14FF080435B6B0022BB63FA63824BD9
:1008AC00D7E90E12C3E900127F4BD3E900017D4B4F
:1008BC00D3E90023841A3C6361EB03037B637B4B1A
:1008CC00D7E90C12C3E90012784BD3E90023774B1C
:1008DC00D3E9002340F2DA718A4273F100030ED29D
:1008EC00724BD3E9002340F2DF318A4273F10003EB
:1008FC0005D36E4BD3E900236D49C1E900234FF0BA
:10090C0080431B6A4FF0804223F00203136221E103
:10091C004FF080431B6A03F02003002B13D14FF0E0
:10092C0080439B6B0022BB62FA62624BD7E90A12CE
:10093C00C3E900124FF080431B6A4FF0804243F032
:10094C002003136206E14FF080439B6B00223B6255
:10095C007A62594BD7E90812C3E90012564BD3E916
:10096C000001544BD3E90023B0EB020A61EB030BFB
:10097C00524BC3E900AB514BD3E900234F4BD3E9A6
:10098C00002340F2DA718A4273F100030ED24B4B12
:10099C00D3E9002340F2DF318A4273F1000305D31F
:1009AC00464BD3E900234649C1E900234FF080436D
:1009BC001B6A4FF0804223F020031362CAE04FF011
:1009CC0080431B6A03F40073002B13D14FF0804358
:1009DC00DB6B0022BB61FA613A4BD7E90612C3E923
:1009EC0000124FF080431B6A4FF0804243F40073B7
:1009FC001362AFE04FF08043DB6B00223B617A6106
:100A0C00314BD7E90412C3E900122F4BD3E9000193
:100A1C002C4BD3E90023B0EB020861EB03092B4B01
:100A2C00C3E90089294BD3E90023284BD3E90023E0
:100A3C0040F2DA718A4273F100030ED2234BD3E9F0
:100A4C00002340F2DF318A4273F1000305D31F4BC0
:100A5C00D3E900231E49C1E900234FF080431B6AF0
:100A6C004FF0804223F40073136273E04FF0804325
:100A7C001B6A03F40053002B2ED14FF080431B6CE8
:100A8C000022BB60FA60134BD7E90212C3E90012D3
:100A9C004FF080431B6A4FF0804243F400531362C3
:100AAC0058E000BF10010020180100202801002090
:100ABC0020010020300100203801002048010020D6
:100ACC004001002050010020580100206801002046
:100ADC0060010020700100204FF080431B6C00224D
:100AEC003B607A601E4BD7E90012C3E900121C4B25
:100AFC00D3E900011B4BD3E90023841A61EB0305F6
:100B0C00194BC3E90045184BD3E90023164BD3E925
:100B1C00002340F2DA718A4273F100030ED2124BB9
:100B2C00D3E9002340F2DF318A4273F1000305D38D
:100B3C000D4BD3E900230D49C1E900234FF080434D
:100B4C001B6A4FF0804223F40053136202E000BF93
:100B5C0000E000BF00BF5437BD46BDE8B00F704782
:100B6C007801002070010020880100208001002005
:100B7C0090B587B000AF00F03DFC00F075F800F0C8
:100B8C0025FA00F0E5F800F091F900F0B3F82F4CDD
:100B9C0038462F4B61222F49FFF7B8FC3B460FCB51
:100BAC0084E80F002C4C3846294B60222949FFF76A
:100BBC00ADFC3B460FCB84E80F000021274802F028
:100BCC0063FE0421254802F05FFE0821234802F051
:100BDC005BFE0C21214802F057FE0021204802F058
:100BEC0059FD04211E4802F055FD08E04FF4005158
:100BFC001C4800F02FFF4FF4FA7000F05DFC134816
:100C0C00FFF7A3FC0346002BF0D000237B6113E01D
:100C1C007B6999B2002300220C48FFF7D7FC7B6953
:100C2C0099B2002300220C48FFF7D0FC012000F001
:100C3C0043FC7B6901337B617B6940F6FE72934216
:100C4C00E6DD4FF47A7000F037FCDEE7900100200F
:100C5C000000A0402C000020A0010020C8000020B3
:100C6C00800000200010014080B590B000AF07F16B
:100C7C00180328220021184603F0FCFE3B1D00221D
:100C8C001A605A609A60DA601A610123BB614FF4F2
:100C9C008033FB6100233B620123BB6202237B6335
:100CAC004FF48033BB634FF4E013FB6307F118037D
:100CBC00184602F04BF80346002B01D000F0F2F975
:100CCC000F237B600223BB600023FB604FF4806327
:100CDC003B6100237B613B1D0221184602F0B8FAF0
:100CEC000346002B01D000F0DDF900BF4037BD46B4
:100CFC0080BD000080B500AF124B134A1A60114B37
:100D0C00124A5A600F4B00229A600E4B0022DA6096
:100D1C000C4B4FF480421A610A4B00225A61094B6A
:100D2C0000229A61074B0022DA61064B00221A62FC
:100D3C00044800F0A9FE0346002B01D000F0B2F9E4
:100D4C0000BF80BD2C00002000540040A086010094
:100D5C0080B596B000AF07F1480300221A605A60C4
:100D6C009A60DA6007F1400300221A605A6007F1BA
:100D7C00240300221A605A609A60DA601A615A6180
:100D8C009A613B1D20220021184603F073FE454B4F
:100D9C00454A1A60434B40F23F225A60414B0022B5
:100DAC009A60404B40F2E732DA603E4B00221A6107
:100DBC003C4B00225A613B4B00229A61394802F0AD
:100DCC00C1FB0346002B01D000F06CF94FF48053AB
:100DDC00BB6407F148031946324803F0C7F80346D1
:100DEC00002B01D000F05EF92E4802F0FAFB03460E
:100DFC00002B01D000F056F900233B6400237B64E8
:100E0C0007F140031946274803F04EFD0346002B1B
:100E1C0001D000F047F960237B620023BB62002302
:100E2C00FB6200233B6300237B630023BB63002333
:100E3C00FB6307F12403002219461A4802F0D4FF81
:100E4C000346002B01D000F02DF907F124030422F6
:100E5C001946144802F0C8FF0346002B01D000F0DD
:100E6C0021F900237B600023BB600023FB6000237F
:100E7C003B6100237B614FF40053BB6100233B6259
:100E8C003B1D1946074803F06DFD0346002B01D0AE
:100E9C0000F008F9034800F0F3F900BF5837BD46DD
:100EAC0080BD00BF80000020002C014080B58AB0BE
:100EBC0000AF07F1180300221A605A609A60DA60DA
:100ECC0007F1100300221A605A603B4600221A6098
:100EDC005A609A60DA603C4B4FF080421A603A4B91
:100EEC0047225A60384B00229A60374B4FF6FF72FC
:100EFC00DA60354B00221A61334B00229A6132487A
:100F0C0002F020FB0346002B01D000F0CBF84FF48D
:100F1C008053BB6107F1180319462B4803F026F8E0
:100F2C000346002B01D000F0BDF8274802F054FC1A
:100F3C000346002B01D000F0B5F800233B610023E1
:100F4C007B6107F1100319461F4803F0ADFC034603
:100F5C00002B01D000F0A6F800233B6001237B603E
:100F6C000023BB600023FB603B4600221946164859
:100F7C0002F09EFE0346002B01D000F093F83B4696
:100F8C0004221946104802F093FE0346002B01D0B0
:100F9C0000F088F83B46082219460B4802F088FE00
:100FAC000346002B01D000F07DF83B460C2219467D
:100FBC00054802F07DFE0346002B01D000F072F8CC
:100FCC0000BF2837BD4680BDC800002080B588B062
:100FDC0000AF07F1100300221A605A609A60DA60C1
:100FEC002D4B9B692C4A43F0100393612A4B9B6950
:100FFC0003F01003FB60FB68274B9B69264A43F008
:10100C0020039361244B9B6903F02003BB60BB68F6
:10101C00214B9B69204A43F0040393611E4B9B694F
:10102C0003F004037B607B681B4B9B691A4A43F0FB
:10103C0008039361184B9B6903F008033B603B6802
:10104C0000224FF40051154800F0ECFC0022F02176
:10105C00134800F0E7FC4FF400533B6101237B6124
:10106C000023BB610223FB6107F1100319460B48F7
:10107C0000F054FBF0233B6101237B610023BB6137
:10108C000223FB6107F110031946054800F046FBEB
:10109C0000BF2037BD4680BD00100240001001404B
:1010AC000008014080B400AF72B600BFFEE700003C
:1010BC0080B485B000AF154B9B69144A43F0010313
:1010CC009361124B9B6903F00103BB60BB680F4B30
:1010DC00DB690E4A43F08053D3610C4BDB6903F0A0
:1010EC0080537B607B680A4B5B68FB60FB6823F07A
:1010FC00E063FB60FB6843F00073FB60044AFB6831
:10110C00536000BF1437BD4680BC704700100240CE
:10111C000000014080B588B000AF786007F1100383
:10112C0000221A605A609A60DA607B681B68154A64
:10113C00934223D1144B9B69134A43F008039361E8
:10114C00114B9B6903F00803FB60FB68C0233B61F8
:10115C0012237B610323FB6107F1100319460B4833
:10116C0000F0DCFA084BDB69074A43F40013D36147
:10117C00054BDB6903F40013BB60BB6800BF203771
:10118C00BD4680BD0054004000100240000C0140E0
:10119C0080B58AB000AF786007F1180300221A609E
:1011AC005A609A60DA607B681B68324A93422CD191
:1011BC00314B9B69304A43F4006393612E4B9B691E
:1011CC0003F400637B617B6900220021182000F08E
:1011DC006EFA182000F087FA00220021192000F086
:1011EC0066FA192000F07FFA002200211A2000F084
:1011FC005EFA1A2000F077FA002200211B2000F082
:10120C0056FA1B2000F06FFA30E07B681B68B3F1D4
:10121C00804F2BD1184BDB69174A43F00103D36184
:10122C00154BDB6903F001033B613B69124B9B6976
:10123C00114A43F0040393610F4B9B6903F00403C1
:10124C00FB60FB680F23BB610023FB6100233B6247
:10125C0007F118031946094800F060FA0022002132
:10126C001C2000F024FA1C2000F03DFA00BF2837A7
:10127C00BD4680BD002C014000100240000801401A
:10128C0080B588B000AF786007F1100300221A60B7
:10129C005A609A60DA607B681B68104A934218D1D6
:1012AC000F4B9B690E4A43F0040393610C4B9B69F3
:1012BC0003F00403FB60FB684FF440733B610223B3
:1012CC007B610223FB6107F110031946054800F00E
:1012DC0025FA00BF2037BD4680BD00BF002C014061
:1012EC00001002400008014080B400AFFEE780B45B
:1012FC0000AFFEE780B400AFFEE780B400AFFEE7BE
:10130C0080B400AFFEE780B400AF00BFBD4680BC28
:10131C00704780B400AF00BFBD4680BC704780B43E
:10132C0000AF00BFBD4680BC704780B500AF00F079
:10133C00A7F800BF80BD000080B500AF024802F0E6
:10134C00AFFB00BF80BD00BF8000002080B500AFA8
:10135C00024802F0A5FB00BF80BD00BF800000204A
:10136C0080B500AF024802F09BFB00BF80BD00BF00
:10137C008000002080B500AF024802F091FB00BF56
:10138C0080BD00BF8000002080B500AF024802F095
:10139C0087FB00BF80BD00BFC800002080B400AF39
:1013AC0000BFBD4680BC7047FFF7F8FF0B480C49E7
:1013BC000C4A002302E0D458C4500433C4188C42A5
:1013CC00F9D3094A094C002301E013600432A2420C
:1013DC00FBD303F02BFBFFF7CBFB70470000002087
:1013EC000C000020DC4A000810000020B401002092
:1013FC00FEE7000080B500AF084B1B68074A43F0BE
:10140C0010031360032000F047F90F2000F008F8D8
:10141C00FFF74EFE0023184680BD00BF002002409F
:10142C0080B582B000AF7860124B1A68124B1B78F3
:10143C0019464FF47A73B3FBF1F3B2FBF3F318468E
:10144C0000F05FF90346002B01D001230EE07B680E
:10145C000F2B0AD8002279684FF0FF3000F027F9E3
:10146C00064A7B681360002300E001231846083706
:10147C00BD4680BD000000200800002004000020B4
:10148C0080B400AF054B1B781A46054B1B68134400
:10149C00034A136000BFBD4680BC704708000020A3
:1014AC00B001002080B400AF024B1B681846BD464B
:1014BC0080BC7047B001002080B584B000AF78606C
:1014CC00FFF7F0FFB8607B68FB60FB68B3F1FF3F90
:1014DC0005D00A4B1B781A46FB681344FB6000BF0F
:1014EC00FFF7E0FF0246BB68D31AFA689A42F7D8B6
:1014FC0000BF00BF1037BD4680BD00BF08000020F4
:10150C0080B485B000AF78607B6803F00703FB60A4
:10151C000C4BDB68BB60BA684FF6FF031340BB6033
:10152C00FB681A02BB68134343F0BF6343F40033F8
:10153C00BB60044ABB68D36000BF1437BD4680BC97
:10154C00704700BF00ED00E080B400AF044BDB68D7
:10155C001B0A03F007031846BD4680BC704700BF4A
:10156C0000ED00E080B483B000AF0346FB7197F947
:10157C000730002B0BDBFB7903F01F02064997F9B0
:10158C0007305B09012000FA02F241F8232000BF6A
:10159C000C37BD4680BC704700E100E080B483B0DE
:1015AC0000AF03463960FB7197F90730002B0ADB5B
:1015BC003B68DAB20C4997F907301201D2B20B44EE
:1015CC0083F800230AE03B68DAB20849FB7903F0A0
:1015DC000F03043B1201D2B20B441A7600BF0C3736
:1015EC00BD4680BC704700BF00E100E000ED00E0AC
:1015FC0080B489B000AFF860B9607A60FB6803F022
:10160C000703FB61FB69C3F10703042B28BF042309
:10161C00BB61FB690433062B02D9FB69033B00E079
:10162C0000237B614FF0FF32BB6902FA03F3DA430C
:10163C00BB681A407B699A404FF0FF317B6901FA15
:10164C0003F3D9437B680B40134318462437BD463C
:10165C0080BC704780B582B000AF78607B68013B7E
:10166C00B3F1807F01D301230FE00A4A7B68013B71
:10167C0053600F214FF0FF30FFF790FF054B002216
:10168C009A60044B07221A60002318460837BD469F
:10169C0080BD00BF10E000E080B582B000AF786084
:1016AC007868FFF72DFF00BF0837BD4680BD80B5B9
:1016BC0086B000AF0346B9607A60FB7300237B6190
:1016CC00FFF742FF78617A68B9687869FFF790FF95
:1016DC00024697F90F3011461846FFF75FFF00BF1F
:1016EC001837BD4680BD80B582B000AF0346FB7194
:1016FC0097F907301846FFF735FF00BF0837BD468E
:10170C0080BD80B582B000AF78607868FFF7A2FF2B
:10171C00034618460837BD4680BD000080B48BB028
:10172C0000AF7860396000237B6200233B6269E183
:10173C0001227B6A02FA03F3FB613B681B68FA69BE
:10174C001340BB61BA69FB699A4240F058813B680F
:10175C005B689A4A93425ED0984A934275D8984AED
:10176C00934258D0964A93426FD8964A934252D09D
:10177C00944A934269D8944A93424CD0924A9342E9
:10178C0063D8924A934246D0904A93425DD8122B2A
:10179C002AD8122B59D801A252F823F0231800088A
:1017AC00FD1700080F1800085118000857180008FA
:1017BC005718000857180008571800085718000841
:1017CC005718000857180008571800085718000831
:1017DC005718000857180008571800085718000821
:1017EC000518000819180008794A934213D02CE008
:1017FC003B68DB683B6229E03B68DB6804333B6297
:10180C0024E03B68DB6808333B621FE03B68DB6825
:10181C000C333B621AE03B689B68002B02D104231B
:10182C003B6213E03B689B68012B05D108233B62AC
:10183C007B68FA691A6109E008233B627B68FA69E4
:10184C005A6103E000233B6200E000BFBB69FF2B41
:10185C0001D87B6801E07B6804337B61BB69FF2B9B
:10186C0002D87B6A9B0002E07B6A083B9B003B61D1
:10187C007B691A680F213B6901FA03F3DB431A40B9
:10188C00396A3B6901FA03F31A437B691A603B68B6
:10189C005B6803F08053002B00F0B1804D4B9B69CB
:1018AC004C4A43F0010393614A4B9B6903F00103DB
:1018BC00BB60BB68484A7B6A9B08023352F82330F2
:1018CC00FB607B6A03F003039B000F2202FA03F315
:1018DC00DB43FA681340FB607B68404A934213D0A9
:1018EC007B683F4A93420DD07B683E4A934207D0B7
:1018FC007B683D4A934201D1032306E0042304E0B4
:10190C00022302E0012300E000237A6A02F00302C2
:10191C0092009340FA681343FB602F497B6A9B0843
:10192C000233FA6841F823203B685B6803F48013A8
:10193C00002B06D02D4B9A682C49BB6913438B6046
:10194C0006E02A4B9A68BB69DB43284913408B603D
:10195C003B685B6803F40013002B06D0234BDA685A
:10196C002249BB691343CB6006E0204BDA68BB69A4
:10197C00DB431E491340CB603B685B6803F40033C8
:10198C00002B06D0194B5A681849BB6913434B609E
:10199C0006E0164B5A68BB69DB43144913404B6095
:1019AC003B685B6803F48033002B21D00F4B1A6823
:1019BC000E49BB6913430B6021E000BF00003210DD
:1019CC000000311000002210000021100000121045
:1019DC0000001110001002400000014000080140FE
:1019EC00000C0140001001400014014000040140B3
:1019FC000B4B1A68BB69DB43094913400B607B6ACC
:101A0C0001337B623B681A687B6A22FA03F3002B72
:101A1C007FF48EAE00BF00BF2C37BD4680BC704734
:101A2C000004014080B483B000AF78600B467B802B
:101A3C0013467B707B78002B03D07A887B681A6105
:101A4C0003E07B881A047B681A6100BF0C37BD4623
:101A5C0080BC704780B485B000AF78600B467B804B
:101A6C007B68DB68FB607A88FB6813401A04FB68B0
:101A7C00D9437B880B401A437B681A6100BF14372B
:101A8C00BD4680BC7047000080B584B000AF786064
:101A9C007B68002B01D101232BE17B6893F83D304F
:101AAC00DBB2002B06D17B68002283F83C207868DF
:101ABC00FFF730FB7B68242283F83D207B681B6892
:101ACC001A687B681B6822F001021A607B681B682D
:101ADC001A687B681B6842F400421A607B681B68BA
:101AEC001A687B681B6822F400421A6001F0F8FC4B
:101AFC00F8607B685B68814A934207D8FB68804A30
:101B0C00934294BF01230023DBB206E0FB687D4ABD
:101B1C00934294BF01230023DBB2002B01D001239D
:101B2C00E7E0FB68784AA2FB03239B0CBB607B6855
:101B3C001B685B6823F03F017B681B68BA680A432B
:101B4C005A607B681B681B6A23F03F017B685B68EB
:101B5C006A4A934202D8BB68013309E0BB684FF470
:101B6C00967202FB03F3694AA2FB03239B09013320
:101B7C007A6812680B4313627B681B68DB6923F479
:101B8C004F4222F0FF027B685B685C498B4219D89C
:101B9C00FB68591E7B685B685B00B1FBF3F3591C57
:101BAC0040F6FC730B40002B0AD0FB68591E7B6877
:101BBC005B685B00B1FBF3F30133C3F30B0351E040
:101BCC0004234FE07B689B68002B11D1FB68581EE7
:101BDC007B6859680B465B000B44B0FBF3F3013395
:101BEC00C3F30B03002B0CBF01230023DBB212E069
:101BFC00FB68581E7B6859680B469B000B44990088
:101C0C000B44B0FBF3F30133C3F30B03002B0CBFFA
:101C1C0001230023DBB2002B01D0012322E07B68DF
:101C2C009B68002B0ED1FB68581E7B6859680B46CD
:101C3C005B000B44B0FBF3F30133C3F30B0343F42E
:101C4C0000430FE0FB68581E7B6859680B469B00ED
:101C5C000B4499000B44B0FBF3F30133C3F30B03B8
:101C6C0043F44043796809681343CB617B681B6874
:101C7C001B6823F0C0017B68DA697B681B6A1A4316
:101C8C007B681B680A431A607B681B689B6823F49B
:101C9C00034323F0FF037A6811697A68D268114311
:101CAC007A6812680B4393607B681B68DB6823F0CF
:101CBC00FF017B685A697B689B691A437B681B68C8
:101CCC000A43DA607B681B681A687B681B6842F001
:101CDC0001021A607B6800221A647B68202283F858
:101CEC003D207B6800221A637B68002283F83E202B
:101CFC00002318461037BD4680BD00BFA0860100EA
:101D0C007F841E00FF083D0083DE1B43D34D621011
:101D1C0080B588B002AFF8607A601A460B467B81BA
:101D2C0013463B81FFF7BEFB7861FB6893F83D30AF
:101D3C00DBB2202B40F0E0807B6900931923012259
:101D4C007049F86800F0CCFD0346002B01D002234B
:101D5C00D3E0FB6893F83C30012B01D10223CCE09B
:101D6C00FB68012283F83C20FB681B681B6803F0AE
:101D7C000103012B07D0FB681B681A68FB681B6802
:101D8C0042F001021A60FB681B681A68FB681B684A
:101D9C0022F400621A60FB68212283F83D20FB6864
:101DAC00102283F83E20FB6800221A64FB687A68D4
:101DBC005A62FB683A895A85FB685B8D9AB2FB685C
:101DCC001A85FB68504ADA6279897B693A6AF86845
:101DDC0000F036FC0346002B01D001238DE00023DC
:101DEC003B61FB681B685B693B61FB681B689B691B
:101DFC003B613B6966E07A69396AF86800F08AFEF3
:101E0C000346002B0DD0FB681B6C042B07D1FB6821
:101E1C001B681A68FB681B6842F400721A60012385
:101E2C006BE0FB685B6A1A78FB681B681A61FB68DD
:101E3C005B6A5A1CFB685A62FB685B8D9BB2013B68
:101E4C009AB2FB685A85FB681B8D013B9AB2FB6802
:101E5C001A85FB681B685B6903F00403042B1BD118
:101E6C00FB681B8D002B17D0FB685B6A1A78FB682C
:101E7C001B681A61FB685B6A5A1CFB685A62FB6838
:101E8C005B8D9BB2013B9AB2FB685A85FB681B8D3C
:101E9C00013B9AB2FB681A857A69396AF86800F0D6
:101EAC0081FE0346002B0DD0FB681B6C042B07D165
:101EBC00FB681B681A68FB681B6842F400721A60A6
:101ECC0001231AE0FB681B8D002B94D1FB681B6867
:101EDC001A68FB681B6842F400721A60FB682022C7
:101EEC0083F83D20FB68002283F83E20FB6800222B
:101EFC0083F83C20002300E0022318461837BD4627
:101F0C0080BD00BF020010000000FFFF80B58CB048
:101F1C0002AFF8607A601A460B467B8113463B8110
:101F2C0000233B62FFF7BEFA7862FB6893F83D3002
:101F3C00DBB2202B40F04B827B6A009319230122E9
:101F4C007F49F86800F0CCFC0346002B01D002233B
:101F5C003EE2FB6893F83C30012B01D1022337E2BF
:101F6C00FB68012283F83C20FB681B681B6803F0AC
:101F7C000103012B07D0FB681B681A68FB681B6800
:101F8C0042F001021A60FB681B681A68FB681B6848
:101F9C0022F400621A60FB68222283F83D20FB6861
:101FAC00102283F83E20FB6800221A64FB687A68D2
:101FBC005A62FB683A895A85FB685B8D9AB2FB685A
:101FCC001A85FB685F4ADA6279897B6A3A6BF86832
:101FDC0000F0B8FB0346002B01D00123F8E1FB68AD
:101FEC001B8D002B13D10023FB61FB681B685B6905
:101FFC00FB61FB681B689B69FB61FB69FB681B68E9
:10200C001A68FB681B6842F400721A60CCE1FB682A
:10201C001B8D012B1ED1FB681B681A68FB681B68A3
:10202C0022F480621A6072B600BF0023BB61FB68A9
:10203C001B685B69BB61FB681B689B69BB61BB6907
:10204C00FB681B681A68FB681B6842F400721A6014
:10205C0062B635E0FB681B8D022B1ED1FB681B683A
:10206C001A68FB681B6842F400621A6072B600BF03
:10207C0000237B61FB681B685B697B61FB681B68E9
:10208C009B697B617B69FB681B681A68FB681B6832
:10209C0022F480621A6062B612E0FB681B681A6850
:1020AC00FB681B6842F480621A6000233B61FB688A
:1020BC001B685B693B61FB681B689B693B613B6907
:1020CC0072E1FB681B8D032B00F21F81FB681B8DDB
:1020DC00012B23D17A6A396BF86800F0ABFD03460B
:1020EC00002B01D0012373E1FB681B681A69FB68A4
:1020FC005B6AD2B21A70FB685B6A5A1CFB685A6244
:10210C00FB681B8D013B9AB2FB681A85FB685B8DE3
:10211C009BB2013B9AB2FB685A8545E1FB681B8D6B
:10212C00022B52D17B6A00933B6B00220649F86864
:10213C0000F0D6FB0346002B08D0012348E100BF7A
:10214C00020010000000FFFF0400010072B600BF87
:10215C00FB681B681A68FB681B6842F400721A6003
:10216C00FB681B681A69FB685B6AD2B21A70FB6861
:10217C005B6A5A1CFB685A62FB681B8D013B9AB266
:10218C00FB681A85FB685B8D9BB2013B9AB2FB68BE
:10219C005A8562B600BFFB681B681A69FB685B6AEC
:1021AC00D2B21A70FB685B6A5A1CFB685A62FB68F5
:1021BC001B8D013B9AB2FB681A85FB685B8D9BB249
:1021CC00013B9AB2FB685A85EEE07B6A00933B6B4D
:1021DC0000228149F86800F083FB0346002B01D0F4
:1021EC000123F5E0FB681B681A68FB681B6822F486
:1021FC0080621A6072B600BFFB681B681A69FB68C4
:10220C005B6AD2B21A70FB685B6A5A1CFB685A6232
:10221C00FB681B8D013B9AB2FB681A85FB685B8DD2
:10222C009BB2013B9AB2FB685A856C4B1B68DB086E
:10223C006B4AA2FB03231A0A13469B001344DA00D1
:10224C00D31A3B623B6A013B3B623B6A002B18D1C1
:10225C00FB6800221A63FB68202283F83D20FB6890
:10226C00002283F83E20FB681B6C43F02002FB68C5
:10227C001A6462B600BFFB68002283F83C2001237D
:10228C00A6E0FB681B685B6903F00403042BD9D13F
:10229C00FB681B681A68FB681B6842F400721A60C2
:1022AC00FB681B681A69FB685B6AD2B21A70FB6820
:1022BC005B6A5A1CFB685A62FB681B8D013B9AB225
:1022CC00FB681A85FB685B8D9BB2013B9AB2FB687D
:1022DC005A8562B600BFFB681B681A69FB685B6AAB
:1022EC00D2B21A70FB685B6A5A1CFB685A62FB68B4
:1022FC001B8D013B9AB2FB681A85FB685B8D9BB208
:10230C00013B9AB2FB685A854EE07A6A396BF868E1
:10231C0000F090FC0346002B01D0012358E0FB6831
:10232C001B681A69FB685B6AD2B21A70FB685B6A3D
:10233C005A1CFB685A62FB681B8D013B9AB2FB6806
:10234C001A85FB685B8D9BB2013B9AB2FB685A8580
:10235C00FB681B685B6903F00403042B24D1FB6846
:10236C001B8D032B07D1FB681B681A68FB681B6865
:10237C0022F480621A60FB681B681A69FB685B6A4E
:10238C00D2B21A70FB685B6A5A1CFB685A62FB6813
:10239C001B8D013B9AB2FB681A85FB685B8D9BB267
:1023AC00013B9AB2FB685A85FB681B8D002B7FF4AE
:1023BC0088AEFB68202283F83D20FB68002283F85E
:1023CC003E20FB68002283F83C20002300E002231F
:1023DC0018462837BD4680BD0400010000000020CF
:1023EC0089B5F81480B58AB002AFF8607A603B60AA
:1023FC000B467B81FFF756F8F8610023BB61FB6845
:10240C0093F83D30DBB2202B40F01181FB69009337
:10241C00192301228849F86800F062FA0346002B60
:10242C0001D0022304E1FB6893F83C30012B01D16D
:10243C000223FDE0FB68012283F83C20FB681B684B
:10244C001B6803F00103012B07D0FB681B681A689B
:10245C00FB681B6842F001021A60FB681B681A6873
:10246C00FB681B6822F400621A60FB68242283F864
:10247C003D20FB6800221A64FB68704ADA62FB6834
:10248C001B681A68FB681B6842F480721A60FB694F
:10249C0000933B6800224FF00111F86800F020FA1D
:1024AC000346002B0DD0FB681B681B6803F480737C
:1024BC00B3F5807F03D1FB684FF400721A640323D9
:1024CC00B6E07B89DBB21A46FB681B6802F0FE02A1
:1024DC001A61FEF7E7FFF861FB681B685B6903F0A4
:1024EC000203022B0CBF01230023DBB2FB75FB683C
:1024FC001B685B6903F48063B3F5806F0CBF012329
:10250C000023DBB2BB7525E0FEF7CCFF0246FB696E
:10251C00D31A3A689A4202D33B68002B03D1FB686A
:10252C00A02283F83D20FB681B685B6903F0020363
:10253C00022B0CBF01230023DBB2FB75FB681B686D
:10254C005B6903F48063B3F5806F0CBF0123002338
:10255C00DBB2BB75FB6893F83D30DBB2A02B05D02A
:10256C00FB7D002B02D1BB7D002BCDD0FB68202244
:10257C0083F83D20FB681B685B6903F00203022BA8
:10258C0029D1FB681B681A68FB681B6842F400724F
:10259C001A6000233B61FB681B685B693B61FB684D
:1025AC001B689B693B613B69FB6900931923012202
:1025BC002149F86800F094F90346002B01D001235F
:1025CC0036E0FB68202283F83D20FB68002283F86C
:1025DC003C2000232CE0FB681B681A68FB681B6816
:1025EC0042F400721A60FB681B686FF480625A61D7
:1025FC00FB690093192301220F49F86800F070F968
:10260C000346002B01D0012312E0BB690133BB61EF
:10261C00BA697B689A42FFF432AFFB68202283F8D8
:10262C003D20FB68002283F83C20012300E00223BC
:10263C0018462037BD4680BD020010000000FFFF89
:10264C0080B588B002AFF8607A603B600B467B8146
:10265C00FB68DB6A7B617B69082B06D07B69012BED
:10266C0003D07B6913F5803F08D1FB681B681A689F
:10267C00FB681B6842F480721A600BE0FB681B6BF2
:10268C00122B07D1FB681B681A68FB681B6842F4A5
:10269C0080721A603B6800937B6800224FF0011136
:1026AC00F86800F01DF90346002B0DD0FB681B6881
:1026BC001B6803F48073B3F5807F03D1FB684FF480
:1026CC0000721A64032335E0FB681B69B3F5804F75
:1026DC0008D17B89DBB21A46FB681B6802F0FE024C
:1026EC001A611BE07B89DB11DBB203F00603DBB262
:1026FC0063F00F03DAB2FB681B681A613B687A68F7
:10270C000E49F86800F066F90346002B01D001234E
:10271C0010E07B89DAB2FB681B681A613B687A6847
:10272C000749F86800F056F90346002B01D0012345
:10273C0000E0002318461837BD4680BD0800010094
:10274C000200010080B588B002AFF8607A603B608F
:10275C000B467B81FB68DB6A7B61FB681B681A6834
:10276C00FB681B6842F480621A607B69082B06D0F8
:10277C007B69012B03D07B6913F5803F08D1FB6883
:10278C001B681A68FB681B6842F480721A600BE0C5
:10279C00FB681B6B112B07D1FB681B681A68FB6865
:1027AC001B6842F480721A603B6800937B680022BD
:1027BC004FF00111F86800F093F80346002B0DD090
:1027CC00FB681B681B6803F48073B3F5807F03D12F
:1027DC00FB684FF400721A64032379E0FB681B69F1
:1027EC00B3F5804F08D17B89DBB243F00103DAB239
:1027FC00FB681B681A615FE07B89DB11DBB203F0BD
:10280C000603DBB263F00F03DAB2FB681B681A61D4
:10281C003B687A683049F86800F0DCF80346002B16
:10282C0001D0012354E07B89DAB2FB681B681A6182
:10283C003B687A682949F86800F0CCF80346002B0D
:10284C0001D0012344E000233B61FB681B685B69FA
:10285C003B61FB681B689B693B613B69FB681B68C0
:10286C001A68FB681B6842F480721A603B6800931C
:10287C007B6800224FF00111F86800F031F8034634
:10288C00002B0DD0FB681B681B6803F48073B3F539
:10289C00807F03D1FB684FF400721A64032317E0A6
:1028AC007B89DB11DBB203F00603DBB263F00E03B2
:1028BC00DAB2FB681B681A613B687A680749F868EA
:1028CC0000F088F80346002B01D0012300E0002320
:1028DC0018461837BD4680BD0800010002000100F3
:1028EC0080B584B000AFF860B9603B601346FB71F3
:1028FC0048E03B68B3F1FF3F44D0FEF7D3FD0246FE
:10290C00BB69D31A3A689A4202D33B68002B39D17F
:10291C00BB681B0CDBB2012B0DD1FB681B685B6920
:10292C00DA43BB6813409BB2002B0CBF012300237E
:10293C00DBB21A460CE0FB681B689B69DA43BB6888
:10294C0013409BB2002B0CBF01230023DBB21A46B1
:10295C00FB799A4216D1FB6800221A63FB6820228D
:10296C0083F83D20FB68002283F83E20FB681B6C3B
:10297C0043F02002FB681A64FB68002283F83C20B9
:10298C00012323E0BB681B0CDBB2012B0DD1FB68D0
:10299C001B685B69DA43BB6813409BB2002B0CBF0E
:1029AC0001230023DBB21A460CE0FB681B689B6911
:1029BC00DA43BB6813409BB2002B0CBF01230023EE
:1029CC00DBB21A46FB799A4293D000231846103793
:1029DC00BD4680BD80B584B000AFF860B9607A6048
:1029EC003B6071E0FB681B685B6903F48063B3F5C3
:1029FC00806F23D1FB681B681A68FB681B6842F464
:102A0C0000721A60FB681B686FF480625A61FB6885
:102A1C0000221A63FB68202283F83D20FB68002209
:102A2C0083F83E20FB681B6C43F00402FB681A64BD
:102A3C00FB68002283F83C20012367E07B68B3F13C
:102A4C00FF3F41D0FEF72EFD02463B68D31A7A6851
:102A5C009A4202D37B68002B36D1BB681B0CDBB2CD
:102A6C00012B0CD1FB681B685B69DA43BB68134014
:102A7C009BB2002B14BF01230023DBB20BE0FB68DD
:102A8C001B689B69DA43BB6813409BB2002B14BFD5
:102A9C0001230023DBB2002B16D0FB6800221A6343
:102AAC00FB68202283F83D20FB68002283F83E203F
:102ABC00FB681B6C43F02002FB681A64FB68002265
:102ACC0083F83C20012321E0BB681B0CDBB2012BFB
:102ADC000CD1FB681B685B69DA43BB6813409BB283
:102AEC00002B14BF01230023DBB20BE0FB681B6837
:102AFC009B69DA43BB6813409BB2002B14BF0123C4
:102B0C000023DBB2002B7FF46DAF00231846103787
:102B1C00BD4680BD80B584B000AFF860B9607A6006
:102B2C0034E0F86800F0E3F80346002B01D00123F1
:102B3C0034E0BB68B3F1FF3F28D0FEF7B3FC02468C
:102B4C007B68D31ABA689A4202D3BB68002B1DD19A
:102B5C00FB681B685B6903F08003802B16D0FB6855
:102B6C0000221A63FB68202283F83D20FB680022B8
:102B7C0083F83E20FB681B6C43F02002FB681A6450
:102B8C00FB68002283F83C20012307E0FB681B68EC
:102B9C005B6903F08003802BC3D1002318461037E8
:102BAC00BD4680BD80B584B000AFF860B9607A6076
:102BBC0034E0F86800F09BF80346002B01D00123A9
:102BCC0034E0BB68B3F1FF3F28D0FEF76BFC024644
:102BDC007B68D31ABA689A4202D3BB68002B1DD10A
:102BEC00FB681B685B6903F00403042B16D0FB68BD
:102BFC0000221A63FB68202283F83D20FB68002228
:102C0C0083F83E20FB681B6C43F02002FB681A64BF
:102C1C00FB68002283F83C20012307E0FB681B685B
:102C2C005B6903F00403042BC3D10023184610374F
:102C3C00BD4680BD80B584B000AFF860B9607A60E5
:102C4C0049E0FB681B685B6903F01003102B19D17A
:102C5C00FB681B686FF010025A61FB6800221A6354
:102C6C00FB68202283F83D20FB68002283F83E207D
:102C7C00FB681A6CFB681A64FB68002283F83C2022
:102C8C00012330E0FEF70EFC02467B68D31ABA68CB
:102C9C009A4202D3BB68002B1DD1FB681B685B6991
:102CAC0003F04003402B16D0FB6800221A63FB682C
:102CBC00202283F83D20FB68002283F83E20FB682D
:102CCC001B6C43F02002FB681A64FB68002283F83B
:102CDC003C20012307E0FB681B685B6903F04003A1
:102CEC00402BAED1002318461037BD4680BD80B4B2
:102CFC0083B000AF78607B681B685B6903F480630A
:102D0C00B3F5806F1BD17B681B686FF480625A61CE
:102D1C007B6800221A637B68202283F83D207B6845
:102D2C00002283F83E207B681B6C43F004027B6816
:102D3C001A647B68002283F83C20012300E0002306
:102D4C0018460C37BD4680BC7047000080B586B075
:102D5C0000AF78607B68002B01D1012372E27B68A5
:102D6C001B6803F00103002B00F08780924B5B681B
:102D7C0003F00C03042B0CD08F4B5B6803F00C039B
:102D8C00082B12D18C4B5B6803F48033B3F5803F76
:102D9C000BD1894B1B6803F40033002B6CD07B6880
:102DAC005B68002B68D101234CE27B685B68B3F550
:102DBC00803F06D1804B1B687F4A43F480331360FD
:102DCC002EE07B685B68002B0CD17B4B1B687A4A2E
:102DDC0023F480331360784B1B68774A23F48023E9
:102DEC0013601DE07B685B68B3F5A02F0CD1724BB0
:102DFC001B68714A43F4802313606F4B1B686E4A47
:102E0C0043F4803313600BE06B4B1B686A4A23F46A
:102E1C0080331360684B1B68674A23F4802313606C
:102E2C007B685B68002B13D0FEF73CFB386108E035
:102E3C00FEF738FB02463B69D31A642B01D90323F6
:102E4C0000E25D4B1B6803F40033002BF0D014E060
:102E5C00FEF728FB386108E0FEF724FB02463B69CD
:102E6C00D31A642B01D90323ECE1534B1B6803F4F5
:102E7C000033002BF0D100E000BF7B681B6803F02F
:102E8C000203002B63D04C4B5B6803F00C03002B4C
:102E9C000BD0494B5B6803F00C03082B1CD1464B41
:102EAC005B6803F48033002B16D1434B1B6803F093
:102EBC000203002B05D07B681B69012B01D0012379
:102ECC00C0E13D4B1B6823F0F8027B685B69DB00BB
:102EDC00394913430B603AE07B681B69002B20D007
:102EEC00364B01221A60FEF7DDFA386108E0FEF776
:102EFC00D9FA02463B69D31A022B01D90323A1E16B
:102F0C002D4B1B6803F00203002BF0D02A4B1B68DF
:102F1C0023F0F8027B685B69DB00274913430B60E5
:102F2C0015E0264B00221A60FEF7BCFA386108E067
:102F3C00FEF7B8FA02463B69D31A022B01D90323D8
:102F4C0080E11D4B1B6803F00203002BF0D17B6862
:102F5C001B6803F00803002B3AD07B689B69002B9D
:102F6C0019D0174B01221A60FEF79CFA386108E061
:102F7C00FEF798FA02463B69D31A022B01D90323B8
:102F8C0060E10D4B5B6A03F00203002BF0D00120D3
:102F9C0000F0BAFA1CE00A4B00221A60FEF782FA23
:102FAC0038610FE0FEF77EFA02463B69D31A022B1A
:102FBC0008D9032346E100BF001002400000424242
:102FCC0080044242924B5B6A03F00203002BE9D16E
:102FDC007B681B6803F00403002B00F0A680002321
:102FEC00FB758B4BDB6903F08053002B0DD1884BA9
:102FFC00DB69874A43F08053D361854BDB6903F06F
:10300C008053BB60BB680123FB75824B1B6803F4C8
:10301C008073002B18D17F4B1B687E4A43F480735E
:10302C001360FEF73FFA386108E0FEF73BFA024600
:10303C003B69D31A642B01D9032303E1754B1B683D
:10304C0003F48073002BF0D07B68DB68012B06D176
:10305C006F4B1B6A6E4A43F0010313622DE07B68D1
:10306C00DB68002B0CD16A4B1B6A694A23F0010305
:10307C001362674B1B6A664A23F0040313621CE05D
:10308C007B68DB68052B0CD1614B1B6A604A43F0F3
:10309C00040313625E4B1B6A5D4A43F00103136227
:1030AC000BE05B4B1B6A5A4A23F001031362584B2B
:1030BC001B6A574A23F0040313627B68DB68002BFE
:1030CC0015D0FEF7EFF938610AE0FEF7EBF902468E
:1030DC003B69D31A41F28832934201D90323B1E000
:1030EC004B4B1B6A03F00203002BEED014E0FEF7EF
:1030FC00D9F938610AE0FEF7D5F902463B69D31AD3
:10310C0041F28832934201D903239BE0404B1B6A66
:10311C0003F00203002BEED1FB7D012B05D13C4BC0
:10312C00DB693B4A23F08053D3617B68DB69002B5E
:10313C0000F08780364B5B6803F00C03082B61D0E2
:10314C007B68DB69022B46D1334B00221A60FEF7F9
:10315C00A9F9386108E0FEF7A5F902463B69D31AD4
:10316C00022B01D903236DE0294B1B6803F000737C
:10317C00002BF0D17B681B6AB3F5803F08D1244B40
:10318C005B6823F400327B689B68214913434B60D6
:10319C001F4B5B6823F474127B68196A7B685B6A4B
:1031AC000B431B4913434B601B4B01221A60FEF768
:1031BC0079F9386108E0FEF775F902463B69D31AD4
:1031CC00022B01D903233DE0114B1B6803F0007364
:1031DC00002BF0D035E0104B00221A60FEF762F99C
:1031EC00386108E0FEF75EF902463B69D31A022B00
:1031FC0001D9032326E0064B1B6803F00073002B58
:10320C00F0D11EE07B68DB69012B07D1012319E0AB
:10321C000010024000700040600042420B4B5B68A3
:10322C00FB60FB6803F480327B681B6A9A4206D110
:10323C00FB6803F470127B685B6A9A4201D001232D
:10324C0000E0002318461837BD4680BD0010024030
:10325C0080B584B000AF786039607B68002B01D1F9
:10326C000123D0E06A4B1B6803F007033A689A42CB
:10327C0010D9674B1B6823F0070265493B68134361
:10328C000B60634B1B6803F007033A689A4201D04A
:10329C000123B8E07B681B6803F00203002B20D0ED
:1032AC007B681B6803F00403002B05D0594B5B684B
:1032BC00584A43F4E06353607B681B6803F00803CF
:1032CC00002B05D0534B5B68524A43F46053536058
:1032DC00504B5B6823F0F0027B689B684D491343AD
:1032EC004B607B681B6803F00103002B40D07B68AC
:1032FC005B68012B07D1474B1B6803F40033002B91
:10330C0015D101237FE07B685B68022B07D1414B11
:10331C001B6803F00073002B09D1012373E03D4BB4
:10332C001B6803F00203002B01D101236BE0394B26
:10333C005B6823F003027B685B68364913434B6080
:10334C00FEF7B0F8F8600AE0FEF7ACF80246FB684E
:10335C00D31A41F28832934201D9032353E02D4B07
:10336C005B6803F00C027B685B689B009A42EBD1B4
:10337C00274B1B6803F007033A689A4210D2244B80
:10338C001B6823F0070222493B6813430B60204B58
:10339C001B6803F007033A689A4201D0012332E01C
:1033AC007B681B6803F00403002B08D0194B5B6887
:1033BC0023F4E0627B68DB68164913434B607B683F
:1033CC001B6803F00803002B09D0124B5B6823F435
:1033DC0060527B681B69DB000E4913434B6000F0A5
:1033EC0021F802460B4B5B681B0903F00F030A49DB
:1033FC00CB5C22FA03F3094A1360094B1B6818468D
:10340C00FEF70EF8002318461037BD4680BD00BFEE
:10341C000020024000100240A84A000800000020D2
:10342C000400002080B487B000AF0023FB600023B1
:10343C00BB6000237B6100237B6000233B611E4B40
:10344C005B68FB60FB6803F00C03042B02D0082BB9
:10345C0003D027E0194B3B6127E0FB689B0C03F082
:10346C000F03174AD35C7B60FB6803F48033002B9B
:10347C0010D0114B5B685B0C03F00103114AD35C59
:10348C00BB607B680D4A03FB02F2BB68B2FBF3F333
:10349C007B6104E07B680C4A02FB03F37B617B6974
:1034AC003B6102E0054B3B6100BF3B6918461C3792
:1034BC00BD4680BC704700BF0010024000127A006D
:1034CC00C04A0008D04A000800093D0080B400AF93
:1034DC00024B1B681846BD4680BC7047000000209C
:1034EC0080B500AFFFF7F2FF0246054B5B681B0A85
:1034FC0003F007030349CB5C22FA03F3184680BDA3
:10350C0000100240B84A000880B485B000AF786063
:10351C000A4B1B680A4AA2FB03235B0A7A6802FB6C
:10352C0003F3FB6000BFFB685A1EFA60002BF9D155
:10353C0000BF00BF1437BD4680BC704700000020A0
:10354C00D34D621080B582B000AF78607B68002BE1
:10355C0001D1012341E07B6893F83D30DBB2002BB5
:10356C0006D17B68002283F83C207868FDF710FEBA
:10357C007B68022283F83D207B681A687B680433E1
:10358C001946104600F0DEFD7B68012283F84620C8
:10359C007B68012283F83E207B68012283F83F2060
:1035AC007B68012283F840207B68012283F841204C
:1035BC007B68012283F842207B68012283F8432038
:1035CC007B68012283F844207B68012283F8452024
:1035DC007B68012283F83D20002318460837BD463E
:1035EC0080BD80B582B000AF78607B68002B01D1C4
:1035FC00012341E07B6893F83D30DBB2002B06D110
:10360C007B68002283F83C20786800F039F87B68EE
:10361C00022283F83D207B681A687B6804331946C4
:10362C00104600F08FFD7B68012283F846207B68F2
:10363C00012283F83E207B68012283F83F207B68BF
:10364C00012283F840207B68012283F841207B68AB
:10365C00012283F842207B68012283F843207B6897
:10366C00012283F844207B68012283F845207B6883
:10367C00012283F83D20002318460837BD4680BD43
:10368C0080B483B000AF786000BF0C37BD4680BCFF
:10369C007047000080B584B000AF786039603B683B
:1036AC00002B09D17B6893F83E30DBB2012B14BFA1
:1036BC0001230023DBB222E03B68042B09D17B6899
:1036CC0093F83F30DBB2012B14BF01230023DBB294
:1036DC0015E03B68082B09D17B6893F84030DBB2CE
:1036EC00012B14BF01230023DBB208E07B6893F8A5
:1036FC004130DBB2012B14BF01230023DBB2002BC2
:10370C0001D001235EE03B68002B04D17B680222D0
:10371C0083F83E2013E03B68042B04D17B68022223
:10372C0083F83F200BE03B68082B04D17B68022216
:10373C0083F8402003E07B68022283F841207B68F9
:10374C001B6801223968184601F089F87B681B68F0
:10375C001E4A934207D17B681B685A6C7B681B68B6
:10376C0042F400425A647B681B68184A93420ED09C
:10377C007B681B68B3F1804F09D07B681B68144AC7
:10378C00934204D07B681B68124A934211D17B6828
:10379C001B689B6803F00703FB60FB68062B10D0CB
:1037AC007B681B681A687B681B6842F001021A6010
:1037BC0007E07B681B681A687B681B6842F0010293
:1037CC001A60002318461037BD4680BD002C0140FE
:1037DC00000400400008004080B582B000AF786063
:1037EC007B68002B01D1012341E07B6893F83D30CD
:1037FC00DBB2002B06D17B68002283F83C20786872
:10380C0000F039F87B68022283F83D207B681A6847
:10381C007B6804331946104600F094FC7B68012247
:10382C0083F846207B68012283F83E207B680122C6
:10383C0083F83F207B68012283F840207B680122BB
:10384C0083F841207B68012283F842207B680122A7
:10385C0083F843207B68012283F844207B68012293
:10386C0083F845207B68012283F83D20002318460D
:10387C000837BD4680BD80B483B000AF786000BF10
:10388C000C37BD4680BC704780B584B000AF786003
:10389C0039600023FB733B68002B04D17B6893F8E1
:1038AC003E30DBB213E03B68042B04D17B6893F809
:1038BC003F30DBB20BE03B68082B04D17B6893F8FC
:1038CC004030DBB203E07B6893F84130DBB2BB7372
:1038DC003B68002B04D17B6893F84230DBB213E0D9
:1038EC003B68042B04D17B6893F84330DBB20BE0CC
:1038FC003B68082B04D17B6893F84430DBB203E0BF
:10390C007B6893F84530DBB27B73BB7B012B02D118
:10391C007B7B012B01D00123B8E03B68002B04D149
:10392C007B68022283F83E2013E03B68042B04D111
:10393C007B68022283F83F200BE03B68082B04D104
:10394C007B68022283F8402003E07B68022283F824
:10395C0041203B68002B04D17B68022283F8422073
:10396C0013E03B68042B04D17B68022283F84320CC
:10397C000BE03B68082B04D17B68022283F84420BF
:10398C0003E07B68022283F845203B680C2B41D86E
:10399C0001A252F823F000BFD9390008213A0008DF
:1039AC00213A0008213A0008EB390008213A0008B6
:1039BC00213A0008213A0008FD390008213A000894
:1039CC00213A0008213A00080F3A00087B681B686E
:1039DC00DA687B681B6842F00202DA601DE07B68E3
:1039EC001B68DA687B681B6842F00402DA6014E03A
:1039FC007B681B68DA687B681B6842F00802DA6037
:103A0C000BE07B681B68DA687B681B6842F010026D
:103A1C00DA6002E00123FB7300BFFB7B002B34D187
:103A2C007B681B6801223968184600F018FF7B6818
:103A3C001B68184A93420ED07B681B68B3F1804F09
:103A4C0009D07B681B68144A934204D07B681B68BE
:103A5C00124A934211D17B681B689B6803F00703E1
:103A6C00BB60BB68062B10D07B681B681A687B6830
:103A7C001B6842F001021A6007E07B681B681A6839
:103A8C007B681B6842F001021A60FB7B18461037FA
:103A9C00BD4680BD002C01400004004000080040E1
:103AAC0080B582B000AF78607B681B681B6903F03F
:103ABC000203022B22D17B681B68DB6803F0020334
:103ACC00022B1BD17B681B686FF002021A617B68AA
:103ADC0001221A777B681B689B6903F00303002B98
:103AEC0003D07868FCF796FE05E0786800F00EFBD2
:103AFC00786800F014FB7B6800221A777B681B68DF
:103B0C001B6903F00403042B22D17B681B68DB6860
:103B1C0003F00403042B1BD17B681B686FF00402B9
:103B2C001A617B6802221A777B681B689B6903F415
:103B3C004073002B03D07868FCF76CFE05E07868C6
:103B4C0000F0E4FA786800F0EAFA7B6800221A7751
:103B5C007B681B681B6903F00803082B22D17B6868
:103B6C001B68DB6803F00803082B1BD17B681B6800
:103B7C006FF008021A617B6804221A777B681B6855
:103B8C00DB6903F00303002B03D07868FCF742FEDB
:103B9C0005E0786800F0BAFA786800F0C0FA7B6843
:103BAC0000221A777B681B681B6903F01003102B2B
:103BBC0022D17B681B68DB6803F01003102B1BD130
:103BCC007B681B686FF010021A617B6808221A77F9
:103BDC007B681B68DB6903F44073002B03D07868A7
:103BEC00FCF718FE05E0786800F090FA786800F0B1
:103BFC0096FA7B6800221A777B681B681B6903F0B6
:103C0C000103012B0ED17B681B68DB6803F00103F9
:103C1C00012B07D17B681B686FF001021A61786871
:103C2C0000F06BFA7B681B681B6903F08003802B28
:103C3C000ED17B681B68DB6803F08003802B07D1F7
:103C4C007B681B686FF080021A61786800F0E4FEF4
:103C5C007B681B681B6903F04003402B0ED17B680B
:103C6C001B68DB6803F04003402B07D17B681B68A3
:103C7C006FF040021A61786800F05AFA7B681B6892
:103C8C001B6903F02003202B0ED17B681B68DB68BB
:103C9C0003F02003202B07D17B681B686FF02002F8
:103CAC001A61786800F0AFFE00BF0837BD4680BDD2
:103CBC0080B586B000AFF860B9607A600023FB7500
:103CCC00FB6893F83C30012B01D1022388E0FB68A0
:103CDC00012283F83C207B68002B1BD1FB68186801
:103CEC00BB681968BB685A68BB68DB6800F014FCD9
:103CFC00FB681B689A69FB681B6822F00C029A61CE
:103D0C00FB681B689969BB689A68FB681B680A4367
:103D1C009A6160E07B68042B1CD1FB681868BB6857
:103D2C001968BB685A68BB68DB6800F07DFCFB68EF
:103D3C001B689A69FB681B6822F440629A61FB68F5
:103D4C001B689969BB689B681A02FB681B680A436D
:103D5C009A6140E07B68082B1BD1FB681868BB6834
:103D6C001968BB685A68BB68DB6800F0C8FCFB6864
:103D7C001B68DA69FB681B6822F00C02DA61FB68CD
:103D8C001B68D969BB689A68FB681B680A43DA61CF
:103D9C0021E07B680C2B1CD1FB681868BB68196888
:103DAC00BB685A68BB68DB6800F0E4FCFB681B6806
:103DBC00DA69FB681B6822F44062DA61FB681B68F5
:103DCC00D969BB689B681A02FB681B680A43DA61F5
:103DDC0001E00123FB75FB68002283F83C20FB7D8E
:103DEC0018461837BD4680BD80B586B000AFF86068
:103DFC00B9607A600023FB75FB6893F83C30012BAB
:103E0C0001D10223AEE0FB68012283F83C207B68E1
:103E1C000C2B00F29F8001A252F823F05D3E0008AB
:103E2C00613F0008613F0008613F00089D3E0008AB
:103E3C00613F0008613F0008613F0008DF3E000859
:103E4C00613F0008613F0008613F00081F3F000808
:103E5C00FB681B68B968184600F0D6F9FB681B684C
:103E6C009A69FB681B6842F008029A61FB681B6840
:103E7C009A69FB681B6822F004029A61FB681B6854
:103E8C009969BB681A69FB681B680A439A6164E00C
:103E9C00FB681B68B968184600F01CFAFB681B68C5
:103EAC009A69FB681B6842F400629A61FB681B68A4
:103EBC009A69FB681B6822F480629A61FB681B6834
:103ECC009969BB681B691A02FB681B680A439A61F3
:103EDC0043E0FB681B68B968184600F065FAFB689C
:103EEC001B68DA69FB681B6842F00802DA61FB6840
:103EFC001B68DA69FB681B6822F00402DA61FB6854
:103F0C001B68D969BB681A69FB681B680A43DA61CC
:103F1C0023E0FB681B68B968184600F0AFFAFB6831
:103F2C001B68DA69FB681B6842F40062DA61FB68A3
:103F3C001B68DA69FB681B6822F48062DA61FB6833
:103F4C001B68D969BB681B691A02FB681B680A43AA
:103F5C00DA6102E00123FB7500BFFB68002283F8E5
:103F6C003C20FB7D18461837BD4680BD80B584B01B
:103F7C0000AF786039600023FB737B6893F83C30AA
:103F8C00012B01D10223B4E07B68012283F83C2091
:103F9C007B68022283F83D207B681B689B68BB60B2
:103FAC00BB6823F07703BB60BB6823F47F43BB6023
:103FBC007B681B68BA689A603B681B68B3F5005F46
:103FCC003ED0B3F5005F00F28780B3F5805F00F060
:103FDC008680B3F5805F7FD8702B1AD0702B7BD87E
:103FEC00602B50D0602B77D8502B3CD0502B73D8F3
:103FFC00402B58D0402B6FD8302B64D0302B6BD843
:10400C00202B60D0202B67D8002B5CD0102B5AD0E3
:10401C0062E07B6818683B6899683B685A683B6843
:10402C00DB6800F0FDFB7B681B689B68BB60BB68B2
:10403C0043F07703BB607B681B68BA689A604FE0FB
:10404C007B6818683B6899683B685A683B68DB6812
:10405C0000F0E6FB7B681B689A687B681B6842F47F
:10406C0080429A603CE07B6818683B6859683B6802
:10407C00DB681A4600F0AAFA7B681B6850211846C8
:10408C0000F0B4FB2CE07B6818683B6859683B680F
:10409C00DB681A4600F004FB7B681B68602118463D
:1040AC0000F0A4FB1CE07B6818683B6859683B680F
:1040BC00DB681A4600F08AFA7B681B6840211846B8
:1040CC0000F094FB0CE07B681A683B681B6819468F
:1040DC00104600F08BFB03E00123FB7300E000BFF4
:1040EC007B68012283F83D207B68002283F83C200A
:1040FC00FB7B18461037BD4680BD80B483B000AF43
:10410C00786000BF0C37BD4680BC704780B483B06C
:10411C0000AF786000BF0C37BD4680BC704780B4E0
:10412C0083B000AF786000BF0C37BD4680BC7047D1
:10413C0080B483B000AF786000BF0C37BD4680BC44
:10414C007047000080B485B000AF786039607B6840
:10415C001B68FB607B68294A93420BD07B68B3F1E8
:10416C00804F07D07B68264A934203D07B68254A50
:10417C00934208D1FB6823F07003FB603B685B68DB
:10418C00FA681343FB607B681C4A93420BD07B6834
:10419C00B3F1804F07D07B68194A934203D07B68F8
:1041AC00184A934208D1FB6823F44073FB603B68C8
:1041BC00DB68FA681343FB60FB6823F080023B6802
:1041CC005B691343FB607B68FA681A603B689A680A
:1041DC007B68DA623B681A687B689A627B68074A7C
:1041EC00934203D13B681A697B681A637B6801228E
:1041FC005A6100BF1437BD4680BC7047002C01408B
:10420C00000400400008004080B487B000AF786024
:10421C0039607B681B6A7B617B681B6A23F0010237
:10422C007B681A627B685B683B617B689B69FB609F
:10423C00FB6823F07003FB60FB6823F00303FB6057
:10424C003B681B68FA681343FB607B6923F002032D
:10425C007B613B689B687A6913437B617B681C4A72
:10426C0093420CD17B6923F008037B613B68DB68CC
:10427C007A6913437B617B6923F004037B617B6860
:10428C00134A934211D13B6923F480733B613B6920
:10429C0023F400733B613B685B693A6913433B61F0
:1042AC003B689B693A6913433B617B683A695A6086
:1042BC007B68FA689A613B685A687B685A637B68CA
:1042CC007A691A6200BF1C37BD4680BC704700BFBC
:1042DC00002C014080B487B000AF786039607B68F7
:1042EC001B6A7B617B681B6A23F010027B681A6275
:1042FC007B685B683B617B689B69FB60FB6823F4B4
:10430C00E043FB60FB6823F44073FB603B681B6875
:10431C001B02FA681343FB607B6923F020037B616B
:10432C003B689B681B017A6913437B617B681D4A60
:10433C0093420DD17B6923F080037B613B68DB6882
:10434C001B017A6913437B617B6923F040037B611A
:10435C007B68144A934213D13B6923F480633B611D
:10436C003B6923F400633B613B685B699B003A69E2
:10437C0013433B613B689B699B003A6913433B6168
:10438C007B683A695A607B68FA689A613B685A683C
:10439C007B689A637B687A691A6200BF1C37BD46DA
:1043AC0080BC7047002C014080B487B000AF7860AF
:1043BC0039607B681B6A7B617B681B6A23F48072A3
:1043CC007B681A627B685B683B617B68DB69FB60BE
:1043DC00FB6823F07003FB60FB6823F00303FB60B6
:1043EC003B681B68FA681343FB607B6923F400731A
:1043FC007B613B689B681B027A6913437B617B681A
:10440C001D4A93420DD17B6923F400637B613B68A9
:10441C00DB681B027A6913437B617B6923F480633D
:10442C007B617B68144A934213D13B6923F480531C
:10443C003B613B6923F400533B613B685B691B01A7
:10444C003A6913433B613B689B691B013A6913430F
:10445C003B617B683A695A607B68FA68DA613B6851
:10446C005A687B68DA637B687A691A6200BF1C370A
:10447C00BD4680BC704700BF002C014080B487B0A3
:10448C0000AF786039607B681B6A3B617B681B6A94
:10449C0023F480527B681A627B685B687B617B6863
:1044AC00DB69FB60FB6823F4E043FB60FB6823F4EF
:1044BC004073FB603B681B681B02FA681343FB608C
:1044CC003B6923F400533B613B689B681B033A69CF
:1044DC0013433B617B680F4A934209D17B6923F4F8
:1044EC0080437B613B685B699B017A6913437B6109
:1044FC007B687A695A607B68FA68DA613B685A684B
:10450C007B681A647B683A691A6200BF1C37BD4627
:10451C0080BC7047002C014080B487B000AFF860BD
:10452C00B9607A603B60FB681B6A3B61FB681B6A85
:10453C0023F00102FB681A62FB689B697B61FB68D4
:10454C001F4A93420BD0FB68B3F1804F07D0FB6836
:10455C001C4A934203D0FB681B4A934201D10123AE
:10456C0000E00023002B08D07B6923F003037B6160
:10457C007A697B6813437B6103E07B6943F0010339
:10458C007B617B6923F0F0037B613B681B01DBB231
:10459C007A6913437B613B6923F00A033B61BB6877
:1045AC0003F00A033A6913433B61FB687A699A6129
:1045BC00FB683A691A6200BF1C37BD4680BC704765
:1045CC00002C0140000400400008004080B487B07B
:1045DC0000AFF860B9607A60FB681B6A7B61FB68AE
:1045EC001B6A23F00102FB681A62FB689B693B6142
:1045FC003B6923F0F0033B617B681B013A69134371
:10460C003B617B6923F00A037B617A69BB681343C6
:10461C007B61FB683A699A61FB687A691A6200BF30
:10462C001C37BD4680BC704780B487B000AFF860C3
:10463C00B9607A603B60FB681B6A7B61FB681B6A34
:10464C0023F01002FB681A62FB689B693B613B69B3
:10465C0023F440733B617B681B023A6913433B6153
:10466C003B6923F470433B613B681B039BB23A6983
:10467C0013433B617B6923F0A0037B61BB681B0187
:10468C0003F0A0037A6913437B61FB683A699A6172
:10469C00FB687A691A6200BF1C37BD4680BC704744
:1046AC0080B487B000AFF860B9607A60FB681B6AB1
:1046BC007B61FB681B6A23F01002FB681A62FB68C3
:1046CC009B693B613B6923F470433B617B681B0333
:1046DC003A6913433B617B6923F0A0037B61BB68A0
:1046EC001B017A6913437B61FB683A699A61FB6829
:1046FC007A691A6200BF1C37BD4680BC704780B413
:10470C0087B000AFF860B9607A603B60FB681B6AE9
:10471C007B61FB681B6A23F48072FB681A62FB687E
:10472C00DB693B613B6923F003033B613A697B68BE
:10473C0013433B613B6923F0F0033B613B681B0176
:10474C00DBB23A6913433B617B6923F400737B61F1
:10475C00BB681B0203F400737A6913437B61FB682B
:10476C003A69DA61FB687A691A6200BF1C37BD4688
:10477C0080BC704780B487B000AFF860B9607A60D5
:10478C003B60FB681B6A7B61FB681B6A23F48052ED
:10479C00FB681A62FB68DB693B613B6923F440737D
:1047AC003B617B681B023A6913433B613B6923F411
:1047BC0070433B613B681B039BB23A6913433B61FB
:1047CC007B6923F400537B61BB681B0303F4005328
:1047DC007A6913437B61FB683A69DA61FB687A6931
:1047EC001A6200BF1C37BD4680BC704780B485B0D0
:1047FC0000AF786039607B689B68FB60FB6823F0D6
:10480C007003FB603A68FB68134343F00703FB60DB
:10481C007B68FA689A6000BF1437BD4680BC70474D
:10482C0080B487B000AFF860B9607A603B60FB6819
:10483C009B687B617B6923F47F437B613B681A0235
:10484C007B681A43BB6813437A6913437B61FB682B
:10485C007A699A6000BF1C37BD4680BC704780B433
:10486C0087B000AFF860B9607A60BB6803F01F03D3
:10487C00012202FA03F37B61FB681A6A7B69DB4352
:10488C001A40FB681A62FB681A6ABB6803F01F03C4
:10489C00796801FA03F31A43FB681A6200BF1C37EC
:1048AC00BD4680BC7047000080B485B000AF786016
:1048BC0039607B6893F83C30012B01D1022346E030
:1048CC007B68012283F83C207B68022283F83D2020
:1048DC007B681B685B68FB607B681B689B68BB60C4
:1048EC00FB6823F07003FB603B681B68FA6813439A
:1048FC00FB607B681B68FA685A607B681B68164A09
:10490C0093420ED07B681B68B3F1804F09D07B6853
:10491C001B68124A934204D07B681B68104A93426E
:10492C000CD1BB6823F08003BB603B685B68BA6842
:10493C001343BB607B681B68BA689A607B68012272
:10494C0083F83D207B68002283F83C200023184626
:10495C001437BD4680BC7047002C01400004004059
:10496C000008004080B485B000AF78603960002347
:10497C00FB607B6893F83C30012B01D102233DE0B6
:10498C007B68012283F83C20FB6823F0FF023B6824
:10499C00DB681343FB60FB6823F440723B689B6845
:1049AC001343FB60FB6823F480623B685B68134332
:1049BC00FB60FB6823F400623B681B681343FB60DD
:1049CC00FB6823F480523B681B691343FB60FB6854
:1049DC0023F400523B685B691343FB60FB6823F4D0
:1049EC0080423B68DB691343FB607B681B68FA6899
:1049FC005A647B68002283F83C2000231846143745
:104A0C00BD4680BC704780B483B000AF786000BFF7
:104A1C000C37BD4680BC704780B483B000AF786063
:104A2C0000BF0C37BD4680BC7047000070B5002637
:104A3C000C4D0D4C641BA410A64209D100F022F8B9
:104A4C0000260A4D0A4C641BA410A64205D170BD69
:104A5C0055F8043B98470136EEE755F8043B984768
:104A6C000136F2E7D44A0008D44A0008D44A0008B8
:104A7C00D84A000803460244934200D1704703F819
:104A8C00011BF9E7F8B500BFF8BC08BC9E4670479F
:0C4A9C00F8B500BFF8BC08BC9E4670478F
:104AA80000000000000000000102030406070809D6
:104AB80000000000010203040203040506070809B8
:0C4AC8000A0B0C0D0E0F10100102000074
:044AD40031010008A4
:044AD8000D010008C4
:0C4ADC000024F4001000000001000000A5
:04000005080013B527
:00000001FF
