:020000040800F2
:100000000050002049230008892200088F220008A0
:10001000952200089B220008A12200080000000091
:10002000000000000000000000000000A7220008FF
:10003000B322000800000000BF220008CB22000805
:1000400091230008912300089123000891230008C0
:1000500091230008912300089123000891230008B0
:1000600091230008912300089123000891230008A0
:100070009123000891230008912300089123000890
:100080009123000891230008912300089123000880
:100090009123000891230008912300089123000870
:1000A000D9220008ED2200080123000815230008CA
:1000B00029230008912300089123000891230008B8
:1000C0009123000891230008912300089123000840
:1000D0009123000891230008912300089123000830
:1000E00091230008912300089123000800000000DC
:1000F0000000000000000000000000000000000000
:0C01000000000000000000005FF808F1A3
:10010C0010B5054C237833B9044B13B10448AFF345
:10011C0000800123237010BD10000020000000009F
:10012C00245A000808B5034B1BB103490348AFF32D
:10013C00008008BD0000000014000020245A0008B4
:10014C0081F0004102E000BF83F0004330B54FEA7C
:10015C0041044FEA430594EA050F08BF90EA020FE9
:10016C001FBF54EA000C55EA020C7FEA645C7FEA7C
:10017C00655C00F0E2804FEA5454D4EB5555B8BF9F
:10018C006D420CDD2C4480EA020281EA030382EA10
:10019C00000083EA010180EA020281EA0303362DA2
:1001AC0088BF30BD11F0004F4FEA01314FF4801C75
:1001BC004CEA113102D0404261EB410113F0004F87
:1001CC004FEA03334CEA133302D0524263EB43033E
:1001DC0094EA050F00F0A780A4F10104D5F1200EDC
:1001EC000DDB02FA0EFC22FA05F2801841F1000137
:1001FC0003FA0EF2801843FA05F359410EE0A5F10B
:10020C0020050EF1200E012A03FA0EFC28BF4CF03B
:10021C00020C43FA05F3C01851EBE37101F00045F1
:10022C0007D54FF0000EDCF1000C7EEB00006EEBFE
:10023C000101B1F5801F1BD3B1F5001F0CD3490888
:10024C005FEA30004FEA3C0C04F101044FEA4452DF
:10025C0012F5800F80F09A80BCF1004F08BF5FEA66
:10026C00500C50F1000041EB045141EA050130BD46
:10027C005FEA4C0C404141EB0101013C28BFB1F558
:10028C00801FE9D291F0000F04BF01460020B1FAA3
:10029C0081F308BF2033A3F10B03B3F120020CDA76
:1002AC000C3208DD02F1140CC2F10C0201FA0CF054
:1002BC0021FA02F10CE002F11402D8BFC2F1200CB9
:1002CC0001FA02F120FA0CFCDCBF41EA0C0190406F
:1002DC00E41AA2BF01EB0451294330BD6FEA0404B8
:1002EC001F3C1CDA0C340EDC04F11404C4F12002A3
:1002FC0020FA04F001FA02F340EA030021FA04F3B5
:10030C0045EA030130BDC4F10C04C4F1200220FA0B
:10031C0002F001FA04F340EA0300294630BD21FA49
:10032C0004F0294630BD94F0000F83F4801306BF0F
:10033C0081F480110134013D4EE77FEA645C18BF03
:10034C007FEA655C29D094EA050F08BF90EA020F9A
:10035C0005D054EA000C04BF1946104630BD91EA92
:10036C00030F1EBF0021002030BD5FEA545C05D195
:10037C004000494128BF41F0004130BD14F58004D4
:10038C003CBF01F5801130BD01F0004545F0FE4148
:10039C0041F470014FF0000030BD7FEA645C1ABF7D
:1003AC00194610467FEA655C1CBF0B46024650EAB4
:1003BC00013406BF52EA033591EA030F41F40021E0
:1003CC0030BD00BF90F0000F04BF0021704730B566
:1003DC004FF4806404F132044FF000054FF000013B
:1003EC0050E700BF90F0000F04BF0021704730B5FC
:1003FC004FF4806404F1320410F0004548BF4042D1
:10040C004FF000013EE700BF42004FEAE2014FEA25
:10041C0031014FEA02701FBF12F07F4393F07F4F00
:10042C0081F06051704732F07F4208BF704793F003
:10043C007F4F04BF41F40021704730B54FF4607416
:10044C0001F0004521F000411CE700BF50EA010219
:10045C0008BF704730B54FF000050AE050EA0102C2
:10046C0008BF704730B511F0004502D5404261EB32
:10047C0041014FF4806404F132045FEA915C3FF473
:10048C00D8AE4FF003025FEADC0C18BF03325FEA10
:10049C00DC0C18BF033202EBDC02C2F1200300FAC1
:1004AC0003FC20FA02F001FA03FE40EA0E0021FAE6
:1004BC0002F11444BDE600BF70B54FF0FF0C4CF4D4
:1004CC00E06C1CEA11541DBF1CEA135594EA0C0F86
:1004DC0095EA0C0F00F0DEF82C4481EA030621EAC1
:1004EC004C5123EA4C5350EA013518BF52EA0335FC
:1004FC0041F4801143F4801338D0A0FB02CE4FF0AE
:10050C000005E1FB02E506F00042E0FB03E54FF0DD
:10051C000006E1FB03569CF0000F18BF4EF0010ED5
:10052C00A4F1FF04B6F5007F64F5407404D25FEAD1
:10053C004E0E6D4146EB060642EAC62141EA555184
:10054C004FEAC52040EA5E504FEACE2EB4F1FD0CC6
:10055C0088BFBCF5E06F1ED8BEF1004F08BF5FEA44
:10056C00500E50F1000041EB045170BD06F00046F6
:10057C0046EA010140EA020081EA0301B4EB5C04A3
:10058C00C2BFD4EB0C0541EA045170BD41F480119B
:10059C004FF0000E013C00F3AB8014F1360FDEBFC0
:1005AC00002001F0004170BDC4F10004203C35DA9C
:1005BC000C341BDC04F11404C4F1200500FA05F31F
:1005CC0020FA04F001FA05F240EA020001F00042C0
:1005DC0021F0004110EBD37021FA04F642EB060136
:1005EC005EEA430E08BF20EAD37070BDC4F10C0460
:1005FC00C4F1200500FA04F320FA05F001FA04F224
:10060C0040EA020001F0004110EBD37041F100010F
:10061C005EEA430E08BF20EAD37070BDC4F120051A
:10062C0000FA05F24EEA020E20FA04F301FA05F282
:10063C0043EA020321FA04F001F0004121FA04F22A
:10064C0020EA020000EBD3705EEA430E08BF20EAFA
:10065C00D37070BD94F0000F0FD101F00046400034
:10066C0041EB010111F4801F08BF013CF7D041EAB6
:10067C00060195F0000F18BF704703F000465200BA
:10068C0043EB030313F4801F08BF013DF7D043EA8B
:10069C000603704794EA0C0F0CEA135518BF95EA41
:1006AC000C0F0CD050EA410618BF52EA4306D1D1C8
:1006BC0081EA030101F000414FF0000070BD50EAE7
:1006CC00410606BF1046194652EA430619D094EA71
:1006DC000C0F02D150EA013613D195EA0C0F05D15B
:1006EC0052EA03361CBF104619460AD181EA0301AF
:1006FC0001F0004141F0FE4141F470014FF0000067
:10070C0070BD41F0FE4141F4780170BD70B54FF001
:10071C00FF0C4CF4E06C1CEA11541DBF1CEA135581
:10072C0094EA0C0F95EA0C0F00F0A7F8A4EB050463
:10073C0081EA030E52EA03354FEA013100F088805A
:10074C004FEA03334FF0805545EA131343EA126323
:10075C004FEA022245EA111545EA10654FEA0026D8
:10076C000EF000419D4208BF964244F1FD0404F591
:10077C00407402D25B084FEA3202B61A65EB0305ED
:10078C005B084FEA32024FF480104FF4002CB6EBAA
:10079C00020E75EB030E22BFB61A754640EA0C002A
:1007AC005B084FEA3202B6EB020E75EB030E22BF6A
:1007BC00B61A754640EA5C005B084FEA3202B6EBAB
:1007CC00020E75EB030E22BFB61A754640EA9C006A
:1007DC005B084FEA3202B6EB020E75EB030E22BF3A
:1007EC00B61A754640EADC0055EA060E18D04FEAF8
:1007FC00051545EA16754FEA06164FEAC30343EA98
:10080C0052734FEAC2025FEA1C1CC0D111F4801F64
:10081C000BD141EA00014FF000004FF0004CB6E75D
:10082C0011F4801F04BF01430020B4F1FD0C88BFFC
:10083C00BCF5E06F3FF6AFAEB5EB030C04BFB6EB07
:10084C00020C5FEA500C50F1000041EB045170BDFA
:10085C000EF0004E4EEA113114EB5C04C2BFD4EB27
:10086C000C0541EA045170BD41F480114FF0000EAB
:10087C00013C90E645EA060E8DE60CEA135594EA27
:10088C000C0F08BF95EA0C0F3FF43BAF94EA0C0F2A
:10089C000AD150EA01347FF434AF95EA0C0F7FF49F
:1008AC0025AF104619462CE795EA0C0F06D152EAF3
:1008BC0003353FF4FDAE1046194622E750EA4106D7
:1008CC0018BF52EA43067FF4C5AE50EA41047FF4E8
:1008DC000DAF52EA43057FF4EBAE12E74FEA41024B
:1008EC00B2F1E04324BFB3F5001CDCF1FE5C0DD982
:1008FC0001F0004C4FEAC0024CEA5070B2F1004FCC
:10090C0040EB830008BF20F00100704711F0804FCE
:10091C0021D113F13872BCBF01F00040704741F493
:10092C0080114FEA5252C2F11802C2F1200C10FA97
:10093C000CF320FA02F018BF40F001004FEAC1237B
:10094C004FEAD32303FA0CFC40EA0C0023FA02F31F
:10095C004FEA4303CCE77FEA625307D150EA0133F5
:10096C001EBF4FF0FE4040F44000704701F00040C5
:10097C0040F0FE4040F40000704700BF80F00040A3
:10098C0002E000BF81F0004142001FBF5FEA41035B
:10099C0092EA030F7FEA226C7FEA236C6AD04FEA5B
:1009AC001262D2EB1363C1BFD218414048404140A0
:1009BC00B8BF5B42192B88BF704710F0004F40F452
:1009CC00000020F07F4018BF404211F0004F41F46E
:1009DC00000121F07F4118BF494292EA030F3FD03A
:1009EC00A2F1010241FA03FC10EB0C00C3F120034D
:1009FC0001FA03F100F0004302D5494260EB4000DC
:100A0C00B0F5000F13D3B0F1807F06D340084FEA46
:100A1C00310102F10102FE2A51D2B1F1004F40EB3B
:100A2C00C25008BF20F0010040EA030070474900A3
:100A3C0040EB0000013A28BFB0F5000FEDD2B0FA40
:100A4C0080FCACF1080CB2EB0C0200FA0CF0AABF63
:100A5C0000EBC25052421843BCBFD0401843704701
:100A6C0092F0000F81F4000106BF80F40000013207
:100A7C00013BB5E74FEA41037FEA226C18BF7FEADE
:100A8C00236C21D092EA030F04D092F0000F08BF20
:100A9C000846704790EA010F1CBF0020704712F007
:100AAC007F4F04D1400028BF40F00040704712F146
:100ABC0000723CBF00F50000704700F0004343F0AB
:100ACC00FE4040F4000070477FEA226216BF0846E1
:100ADC007FEA23630146420206BF5FEA412390EAA4
:100AEC00010F40F4800070474FF0000304E000BF9A
:100AFC0010F0004348BF40425FEA000C08BF70474B
:100B0C0043F0964301464FF000001CE050EA01020E
:100B1C0008BF70474FF000030AE000BF50EA010223
:100B2C0008BF704711F0004302D5404261EB410110
:100B3C005FEA010C02BF84460146002043F0B64335
:100B4C0008BFA3F18053A3F50003BCFA8CF2083A5A
:100B5C00A3EBC25310DB01FA02FC634400FA02FC63
:100B6C00C2F12002BCF1004F20FA02F243EB02006A
:100B7C0008BF20F00100704702F1200201FA02FCCC
:100B8C00C2F1200250EA4C0021FA02F243EB0200BF
:100B9C0008BF20EADC7070474FF0FF0C1CEAD05203
:100BAC001EBF1CEAD15392EA0C0F93EA0C0F6FD0C4
:100BBC001A4480EA010C400218BF5FEA41211ED0A2
:100BCC004FF0006343EA501043EA5111A0FB01318E
:100BDC000CF00040B1F5000F3EBF490041EAD37163
:100BEC005B0040EA010062F17F02FD2A1DD8B3F1DF
:100BFC00004F40EBC25008BF20F00100704790F04E
:100C0C00000F0CF0004C08BF49024CEA502040EA9F
:100C1C0051207F3AC2BFD2F1FF0340EAC250704765
:100C2C0040F400004FF00003013A5DDC12F1190FA3
:100C3C00DCBF00F000407047C2F10002410021FA15
:100C4C0002F1C2F1200200FA02FC5FEA310040F12D
:100C5C00000053EA4C0308BF20EADC70704792F0A6
:100C6C00000F00F0004C02BF400010F4000F013ADE
:100C7C00F9D040EA0C0093F0000F01F0004C02BFD9
:100C8C00490011F4000F013BF9D041EA0C018FE748
:100C9C000CEAD15392EA0C0F18BF93EA0C0F0AD04E
:100CAC0030F0004C18BF31F0004CD8D180EA010074
:100CBC0000F00040704790F0000F17BF90F0004F0D
:100CCC00084691F0000F91F0004F14D092EA0C0FEF
:100CDC0001D142020FD193EA0C0F03D14B0218BF82
:100CEC00084608D180EA010000F0004040F0FE40C8
:100CFC0040F40000704740F0FE4040F44000704764
:100D0C004FF0FF0C1CEAD0521EBF1CEAD15392EAE2
:100D1C000C0F93EA0C0F69D0A2EB030280EA010CD2
:100D2C0049024FEA402037D04FF0805343EA11116B
:100D3C0043EA10130CF000408B4238BF5B0042F1C9
:100D4C007D024FF4000C8B4224BF5B1A40EA0C006E
:100D5C00B3EB510F24BFA3EB510340EA5C00B3EBA0
:100D6C00910F24BFA3EB910340EA9C00B3EBD10F8E
:100D7C0024BFA3EBD10340EADC001B0118BF5FEAE0
:100D8C001C1CE0D1FD2A3FF650AF8B4240EBC25009
:100D9C0008BF20F0010070470CF0004C4CEA5020CA
:100DAC007F32C2BFD2F1FF0340EAC250704740F419
:100DBC0000004FF00003013A37E792F0000F00F00B
:100DCC00004C02BF400010F4000F013AF9D040EA89
:100DDC000C0093F0000F01F0004C02BF490011F41D
:100DEC00000F013BF9D041EA0C0195E70CEAD15315
:100DFC0092EA0C0F08D142027FF47DAF93EA0C0FFC
:100E0C007FF470AF084676E793EA0C0F04D14B02DF
:100E1C003FF44CAF08466EE730F0004C18BF31F091
:100E2C00004CCAD130F000427FF45CAF31F000438B
:100E3C007FF43CAF5FE700BF4FF0FF3C06E000BF24
:100E4C004FF0010C02E000BF4FF0010C4DF804CD47
:100E5C004FEA40024FEA41037FEA226C18BF7FEA57
:100E6C00236C11D001B052EA530C18BF90EA010F59
:100E7C0058BFB2EB030088BFC81738BF6FEAE170E8
:100E8C0018BF40F0010070477FEA226C02D15FEA84
:100E9C00402C05D17FEA236CE4D15FEA412CE1D0F0
:100EAC005DF8040B704700BF844608466146FFE7B7
:100EBC000FB5FFF7C9FF002848BF10F1000F0FBD99
:100ECC004DF808EDFFF7F4FF0CBF012000205DF892
:100EDC0008FB00BF4DF808EDFFF7EAFF34BF012017
:100EEC0000205DF808FB00BF4DF808EDFFF7E0FFB0
:100EFC0094BF012000205DF808FB00BF4DF808ED01
:100F0C00FFF7D2FF94BF012000205DF808FB00BF63
:100F1C004DF808EDFFF7C8FF34BF012000205DF845
:100F2C0008FB00BF4FEA4002B2F1FE4F0FD34FF067
:100F3C009E03B3EB12620DD94FEA002343F000433A
:100F4C0010F0004F23FA02F018BF404270474FF0E8
:100F5C000000704712F1610F01D1420205D110F06F
:100F6C00004008BF6FF0004070474FF00000704722
:100F7C0042000ED2B2F1FE4F0BD34FF09E03B3EBF7
:100F8C00126209D44FEA002343F0004323FA02F023
:100F9C0070474FF00000704712F1610F01D142020F
:100FAC0002D14FF0FF3070474FF00000704700BF88
:100FBC0090B589B000AFF860B9603B601346FB7127
:100FCC00FB795B00DBB23B75BB683B6107F110033F
:100FDC003968184600F022F8FB681C4607F110032C
:100FEC000FCB84E80F00F8682437BD4690BD80B560
:100FFC0082B000AF78607B6818687B681B7999B207
:10100C006423022202F0B8F90346002B0CBF012323
:10101C000023DBB218460837BD4680BD80B582B0D0
:10102C0000AF786039604FF000013868FFF748FF77
:10103C000346002B03D07B680C4A9A6002E07B6865
:10104C003A689A607B689B6819464FF08B40FFF7B3
:10105C0057FE03461846FFF78BFF03469AB27B6890
:10106C009A8100BF0837BD4680BD00BF3333534063
:10107C0080B582B000AF7860084611461A46034628
:10108C007B800B467B7013463B703B787A78798873
:10109C00786800F022F8034618460837BD4680BD34
:1010AC0080B584B000AF78600121786800F095F8C5
:1010BC000346FB81FB894FF6FF72934208D0FB89F4
:1010CC0003F08003002B14BF01230023DBB200E0EC
:1010DC00002318461037BD4680BD80B586B002AFE0
:1010EC007860084611461A4603467B800B467B7097
:1010FC0013463B707B78602B28D0602B4ADC002B8E
:10110C0002D0402B22D045E03B781B015AB297F914
:10111C00013013435AB27B881B0A9BB25BB2134358
:10112C005BB2DBB23B737B88DBB27B737B6818688A
:10113C007B681B7999B207F10C024FF47A73009318
:10114C00022301F0AFFD0346FB7323E07B881B01F8
:10115C007B803B785B005AB297F9013013435BB24A
:10116C00DBB23B737B881B0A9BB2DBB27B737B8845
:10117C00DBB2BB737B6818687B681B7999B207F18B
:10118C000C024FF47A730093032301F08BFD03469A
:10119C00FB7300BFFB7B002B01D0002319E07B7895
:1011AC00602B15D17868FFF77BFF0346012B01D12B
:1011BC0001230EE0192001F049F97868FFF770FF60
:1011CC000346012B01D1012303E0192001F03EF964
:1011DC00012318461037BD4680BD2DE9F04389B078
:1011EC0002AF78600B46FB706B461E46FB78BB82E9
:1011FC000023FB82F9780B46013B3B61CBB200220A
:10120C00984691464FF000024FF000034FEAC90395
:10121C0043EA58734FEAC802CBB200221C4615466B
:10122C004FF000024FF00003EB0043EA5473E2006E
:10123C000B460733DB08DB00ADEB030D02AB0033D1
:10124C00FB607B6818687B681B7999B2FB789BB252
:10125C004FF47A720092FA6801F022FE0346FB7298
:10126C00FB7A002B02D04FF6FF731FE0FB78052BA7
:10127C000AD0052B19DC012B02D0032B04D014E06F
:10128C00FB681B78FB8210E0BB8A023BFA68D35CDC
:10129C00FB82FB8A1B021AB2BB8A013BF968CB5C4E
:1012AC001BB213431BB2FB8200BFFB8AB546184628
:1012BC001C37BD46BDE8F08380B485B000AFF86044
:1012CC00B9607A603B60FA68BB68D31AB9693A684E
:1012DC008A1A03FB02F27968BB68CB1A92FBF3F211
:1012EC003B68134418461437BD4680BC7047000059
:1012FC002DE9B00F95B000AFF864FB6C1B68B3F12F
:10130C00804F40F09281FB6C1B7F013B072B00F25E
:10131C008E8101A252F823F045130008F91300083E
:10132C003B160008A71400083B1600083B160008E3
:10133C003B160008551500084FF080431B6A03F05C
:10134C000203002B13D14FF080435B6B00223B64F4
:10135C007A648B4BD7E91012C3E900124FF080432B
:10136C001B6A4FF0804243F00203136260E14FF0BE
:10137C0080435B6B0022BB63FA63824BD7E90E128E
:10138C00C3E900127F4BD3E900017D4BD3E9002365
:10139C00841A3C6361EB03037B637B4BD7E90C1230
:1013AC00C3E90012784BD3E90023774BD3E9002330
:1013BC0040F2DA718A4273F100030ED2724BD3E918
:1013CC00002340F2DF318A4273F1000305D36E4BE8
:1013DC00D3E900236D49C1E900234FF080431B6A18
:1013EC004FF0804223F00203136221E14FF080435F
:1013FC001B6A03F02003002B13D14FF080439B6B2F
:10140C000022BB62FA62624BD7E90A12C3E90012EE
:10141C004FF080431B6A4FF0804243F0200313626D
:10142C0006E14FF080439B6B00223B627A62594B82
:10143C00D7E90812C3E90012564BD3E90001544B0B
:10144C00D3E90023B0EB020A61EB030B524BC3E967
:10145C0000AB514BD3E900234F4BD3E9002340F2AF
:10146C00DA718A4273F100030ED24B4BD3E900239D
:10147C0040F2DF318A4273F1000305D3464BD3E9C6
:10148C0000234649C1E900234FF080431B6A4FF00B
:10149C00804223F020031362CAE04FF080431B6AA2
:1014AC0003F40073002B13D14FF08043DB6B00224D
:1014BC00BB61FA613A4BD7E90612C3E900124FF04F
:1014CC0080431B6A4FF0804243F400731362AFE019
:1014DC004FF08043DB6B00223B617A61314BD7E9E3
:1014EC000412C3E900122F4BD3E900012C4BD3E9B2
:1014FC000023B0EB020861EB03092B4BC3E9008915
:10150C00294BD3E90023284BD3E9002340F2DA71AD
:10151C008A4273F100030ED2234BD3E9002340F22D
:10152C00DF318A4273F1000305D31F4BD3E900234B
:10153C001E49C1E900234FF080431B6A4FF08042E3
:10154C0023F40073136273E04FF080431B6A03F4BF
:10155C000053002B2ED14FF080431B6C0022BB603C
:10156C00FA60134BD7E90212C3E900124FF0804323
:10157C001B6A4FF0804243F40053136258E000BFE3
:10158C0068010020700100208001002078010020FB
:10159C008801002090010020A0010020980100206B
:1015AC00A8010020B0010020C0010020B8010020DB
:1015BC00C80100204FF080431B6C00223B607A6016
:1015CC001E4BD7E90012C3E900121C4BD3E90001F2
:1015DC001B4BD3E90023841A61EB0305194BC3E9B8
:1015EC000045184BD3E90023164BD3E9002340F2F6
:1015FC00DA718A4273F100030ED2124BD3E9002345
:10160C0040F2DF318A4273F1000305D30D4BD3E96D
:10161C0000230D49C1E900234FF080431B6A4FF0B2
:10162C00804223F40053136202E000BF00E000BFCD
:10163C0000BF5437BD46BDE8B00F7047D001002045
:10164C00C8010020E0010020D8010020B0B586B010
:10165C0002AF00F099FE00F0A3FA00F081FC00F05C
:10166C0041FB00F0EDFB00F0E1FA00F00DFBA34CA8
:10167C003846A34B6022A349FFF79AFC3B460FCB9D
:10168C0084E80F00A04C3846A04B61229D49FFF71F
:10169C008FFC3B460FCB84E80F0000219C4803F0E5
:1016AC00BDF804219A4803F0B9F80821984803F0D2
:1016BC00B5F80C21964803F0B1F80021954802F0DA
:1016CC00B3FF0421934802F0AFFF8C48FFF78FFC67
:1016DC000346002B05D08C48FFF789FC0346002BF2
:1016EC0008D14FF400518C4801F07EF94FF4FA7098
:1016FC0000F0ACFE894BD3E9002340F2DD518A4265
:10170C0073F1000312D2864B40F26C721A60854B57
:10171C0040F2DC521A60844B40F24C421A60834B0C
:10172C0010221A60824B64221A6011E07C4B40F24A
:10173C006C721A607B4B40F2A4621A607A4B40F2D6
:10174C00DC521A60794B20221A60794B64221A60A1
:10175C00784B1B681846FEF757FE4FF00002764B8D
:10176C00FEF7D4FF02460B4614461D46714B1B6810
:10177C001846FEF749FE22462B46FEF7E5FC0246CC
:10178C000B4610461946FFF7A9F80346694A136041
:10179C006A4BD3E9002310461946FEF757FE4FF06B
:1017AC000002654BFEF7B2FF02460B4614461D467F
:1017BC00604B1B681846FEF727FE02460B46204678
:1017CC002946FEF7C3FC02460B4610461946FFF7A6
:1017DC0085F80346574A1360594B1B681846FEF7A9
:1017EC0013FE4FF00002544BFEF790FF02460B46DF
:1017FC0014461D46524B1B681846FEF705FE224642
:10180C002B46FEF7A1FC02460B4610461946FFF785
:10181C0065F803464A4A13604A4BD3E90023104645
:10182C001946FEF713FE4FF00002434BFEF76EFF16
:10183C0002460B4614461D46414B1B681846FEF7E4
:10184C00E3FD02460B4620462946FEF77FFC024686
:10185C000B4610461946FFF741F80346384A136009
:10186C00344B1B6838491846FFF78CF803461A4668
:10187C00334B1B6819461046FFF786F8034618468B
:10188C00FFF750FB0346314A1360284B1B68002BB3
:10189C0000DA03339B105B421A46224B1B681A4436
:1018AC002A4B1B689A4205DD01222021284801F0B1
:1018BC0083F804E000222021254801F07DF8234B19
:1018CC001A68184B1B68D31A83EAE372A2EBE37213
:1018DC00164B1B689A4203DA124B1B681B4A1360A7
:1018EC000F4B1A68114B1B68D21A184B1B689A4283
:1018FC0030DA0B4B1B68154A136038E014020020D9
:10190C00713D92402C00002024020020295C87406D
:10191C001C010020D400002000100140B801002060
:10192C00EC010020F0010020F4010020E80100206F
:10193C00F80100200402002000003440780100204F
:10194C0008020020980100200080BB44FC0100200C
:10195C0000080140834B1A68834B1B681A44834B65
:10196C001B689A4203DD7F4B1B68804A1360804BD7
:10197C001C68804B1B6880491846FFF703F8034628
:10198C0019462046FEF7FEFF03461846FFF7CAFA33
:10199C0003467A4A1360744B1B68002B00DA03333E
:1019AC009B105B421A46764B1B681A44734B1B68A0
:1019BC009A4205DD01221021724800F0FDFF04E07F
:1019CC00002210216F4800F0F7FF6C4B1A686C4B2B
:1019DC001B68D31A83EAE372A2EBE372624B1B68B7
:1019EC009A4203DA664B1B68644A1360664B1A68AA
:1019FC005D4B1B68D21A614B1B689A4204DA624B2E
:101A0C001B685E4A13600CE0564B1A68564B1B68F9
:101A1C001A445A4B1B689A4203DD524B1B68574AB7
:101A2C001360524B1A68564B1B689A420BD1534B9E
:101A3C001A68534B1B689A4205D101224021514828
:101A4C0000F0BAFF04E0002240214E4800F0B4FF41
:101A5C004E4BD3E9002340F2DC518A4273F1000370
:101A6C0004D301224021474800F0A6FF3F4B1A68DF
:101A7C00434B1B689A420FDB3C4B1868404B196870
:101A8C00414B1A684FF47A7300930023FFF714FC50
:101A9C0003463F4A136013E0344B1868314B196806
:101AAC00374B1A684FF47A7300930023FFF704FC4A
:101ABC000346A3F57A73002BB8BF5B42344A13601C
:101ACC002E4B1A682E4B1B689A420FDB2B4B186857
:101ADC002B4B19682C4B1A684FF47A730093002324
:101AEC00FFF7EAFB03462B4A136013E0234B1868FD
:101AFC001C4B1968224B1A684FF47A73009300231D
:101B0C00FFF7DAFB0346A3F57A73002BB8BF5B42F1
:101B1C00204A13601E4B186840F6FF730093002395
:101B2C004FF47A720021FFF7C7FB034699B20023EA
:101B3C0000221948FFF79CFA164B186840F6FF7301
:101B4C00009300234FF47A720021FFF7B5FB034694
:101B5C0099B2002300221148FFF78AFA142000F0F2
:101B6C0075FCC7E5F4010020E8010020FC01002011
:101B7C0008020020040200200080BB440002002068
:101B8C00F001002000080140EC010020D8010020E9
:101B9C000C0200201002002014020020240200205D
:101BAC0080B590B000AF07F1180328220021184629
:101BBC0003F02AFF3B1D00221A605A609A60DA601B
:101BCC001A610123BB614FF48033FB6100233B623C
:101BDC000123BB6202237B634FF48033BB634FF45E
:101BEC00E013FB6307F11803184602F079F803467B
:101BFC00002B01D000F020FA0F237B600223BB6086
:101C0C000023FB604FF480633B6100237B613B1D31
:101C1C000221184602F0E6FA0346002B01D000F030
:101C2C000BFA00BF4037BD4680BD000080B500AF49
:101C3C00124B134A1A60114B124A5A600F4B002276
:101C4C009A600E4B0022DA600C4B4FF480421A6102
:101C5C000A4B00225A61094B00229A61074B002261
:101C6C00DA61064B00221A62044800F0D7FE0346E4
:101C7C00002B01D000F0E0F900BF80BD2C0000204B
:101C8C0000540040A086010080B500AF124B134AEF
:101C9C001A60114B124A5A600F4B00229A600E4B7D
:101CAC000022DA600C4B4FF480421A610A4B00227E
:101CBC005A61094B00229A61074B0022DA61064BEC
:101CCC0000221A62044800F0A9FE0346002B01D042
:101CDC0000F0B2F900BF80BD800000200058004029
:101CEC00A086010080B596B000AF07F14803002232
:101CFC001A605A609A60DA6007F1400300221A6099
:101D0C005A6007F1240300221A605A609A60DA6064
:101D1C001A615A619A613B1D20220021184603F07A
:101D2C0073FE454B454A1A60434B40F23F225A60C2
:101D3C00414B00229A60404B40F2E732DA603E4B56
:101D4C0000221A613C4B00225A613B4B00229A61E3
:101D5C00394802F0C1FB0346002B01D000F06CF9AE
:101D6C004FF48053BB6407F148031946324803F023
:101D7C00C7F80346002B01D000F05EF92E4802F0A4
:101D8C00FAFB0346002B01D000F056F900233B640C
:101D9C0000237B6407F140031946274803F04EFDEE
:101DAC000346002B01D000F047F960237B6200232F
:101DBC00BB620023FB6200233B6300237B63002395
:101DCC00BB630023FB6307F12403002219461A4866
:101DDC0002F0D4FF0346002B01D000F02DF907F1DF
:101DEC00240304221946144802F0C8FF0346002BB2
:101DFC0001D000F021F900237B600023BB6000239D
:101E0C00FB6000233B6100237B614FF40053BB61FB
:101E1C0000233B623B1D1946074803F06DFD03464A
:101E2C00002B01D000F008F9034800F0F3F900BFD3
:101E3C005837BD4680BD00BFD4000020002C0140A7
:101E4C0080B58AB000AF07F1180300221A605A60FF
:101E5C009A60DA6007F1100300221A605A603B4660
:101E6C0000221A605A609A60DA603C4B4FF0804254
:101E7C001A603A4B47225A60384B00229A60374B13
:101E8C004FF6FF72DA60354B00221A61334B002299
:101E9C009A61324802F020FB0346002B01D000F07F
:101EAC00CBF84FF48053BB6107F1180319462B484C
:101EBC0003F026F80346002B01D000F0BDF82748AC
:101ECC0002F054FC0346002B01D000F0B5F80023BF
:101EDC003B6100237B6107F1100319461F4803F097
:101EEC00ADFC0346002B01D000F0A6F800233B60AC
:101EFC0001237B600023BB600023FB603B46002278
:101F0C001946164802F09EFE0346002B01D000F045
:101F1C0093F83B4604221946104802F093FE034600
:101F2C00002B01D000F088F83B46082219460B48DC
:101F3C0002F088FE0346002B01D000F07DF83B46F2
:101F4C000C221946054802F07DFE0346002B01D0F9
:101F5C0000F072F800BF2837BD4680BD1C01002080
:101F6C0080B588B000AF07F1100300221A605A60E8
:101F7C009A60DA602D4B9B692C4A43F010039361F5
:101F8C002A4B9B6903F01003FB60FB68274B9B6992
:101F9C00264A43F020039361244B9B6903F02003F2
:101FAC00BB60BB68214B9B69204A43F004039361DF
:101FBC001E4B9B6903F004037B607B681B4B9B6986
:101FCC001A4A43F008039361184B9B6903F008030A
:101FDC003B603B6800224FF40051154800F0ECFCCC
:101FEC000022F021134800F0E7FC4FF400533B6152
:101FFC0001237B610023BB610223FB6107F110030A
:10200C0019460B4800F054FBF0233B6101237B6124
:10201C000023BB610223FB6107F11003194605483D
:10202C0000F046FB00BF2037BD4680BD00100240CB
:10203C00001001400008014080B400AF72B600BF30
:10204C00FEE7000080B485B000AF154B9B69144AC5
:10205C0043F001039361124B9B6903F00103BB60D6
:10206C00BB680F4BDB690E4A43F08053D3610C4BBA
:10207C00DB6903F080537B607B680A4B5B68FB6019
:10208C00FB6823F0E063FB60FB6843F00073FB60CC
:10209C00044AFB68536000BF1437BD4680BC7047D0
:1020AC00001002400000014080B588B000AF78609D
:1020BC0007F1100300221A605A609A60DA607B689C
:1020CC001B68154A934223D1144B9B69134A43F066
:1020DC0008039361114B9B6903F00803FB60FB68D9
:1020EC00C0233B6112237B610323FB6107F11003C7
:1020FC0019460B4800F0DCFA084BDB69074A43F43D
:10210C000013D361054BDB6903F40013BB60BB68A0
:10211C0000BF2037BD4680BD005400400010024077
:10212C00000C014080B58AB000AF786007F118034D
:10213C0000221A605A609A60DA607B681B68324A27
:10214C0093422CD1314B9B69304A43F40063936129
:10215C002E4B9B6903F400637B617B690022002199
:10216C00182000F06EFA182000F087FA00220021E7
:10217C00192000F066FA192000F07FFA00220021E5
:10218C001A2000F05EFA1A2000F077FA00220021E3
:10219C001B2000F056FA1B2000F06FFA30E07B6831
:1021AC001B68B3F1804F2BD1184BDB69174A43F0F6
:1021BC000103D361154BDB6903F001033B613B6900
:1021CC00124B9B69114A43F0040393610F4B9B69BB
:1021DC0003F00403FB60FB680F23BB610023FB616E
:1021EC0000233B6207F118031946094800F060FA16
:1021FC00002200211C2000F024FA1C2000F03DFAE3
:10220C0000BF2837BD4680BD002C014000100240A5
:10221C000008014080B588B000AF786007F110036A
:10222C0000221A605A609A60DA607B681B68104A58
:10223C00934218D10F4B9B690E4A43F004039361F0
:10224C000C4B9B6903F00403FB60FB684FF4407379
:10225C003B6102237B610223FB6107F110031946EA
:10226C00054800F025FA00BF2037BD4680BD00BFF1
:10227C00002C0140001002400008014080B400AF67
:10228C00FEE780B400AFFEE780B400AFFEE780B499
:10229C0000AFFEE780B400AFFEE780B400AF00BF34
:1022AC00BD4680BC704780B400AF00BFBD4680BC4B
:1022BC00704780B400AF00BFBD4680BC704780B58E
:1022CC0000AF00F0A7F800BF80BD000080B500AFE4
:1022DC00024802F0AFFB00BF80BD00BFD40000205D
:1022EC0080B500AF024802F0A5FB00BF80BD00BF67
:1022FC00D400002080B500AF024802F09BFB00BF69
:10230C0080BD00BFD400002080B500AF024802F0B1
:10231C0091FB00BF80BD00BFD400002080B500AF92
:10232C00024802F087FB00BF80BD00BF1C010020EB
:10233C0080B400AF00BFBD4680BC7047FFF7F8FF0C
:10234C000B480C490C4A002302E0D458C450043307
:10235C00C4188C42F9D3094A094C002301E01360DC
:10236C000432A242FBD303F02BFBFFF76FF970474B
:10237C00000000200C000020705A00081000002003
:10238C0038020020FEE7000080B500AF084B1B6848
:10239C00074A43F010031360032000F047F90F20A5
:1023AC0000F008F8FFF74EFE0023184680BD00BF72
:1023BC000020024080B582B000AF7860124B1A68E2
:1023CC00124B1B7819464FF47A73B3FBF1F3B2FB43
:1023DC00F3F3184600F05FF90346002B01D00123FC
:1023EC000EE07B680F2B0AD8002279684FF0FF3083
:1023FC0000F027F9064A7B681360002300E00123F4
:10240C0018460837BD4680BD00000020080000209B
:10241C000400002080B400AF054B1B781A46054B16
:10242C001B681344034A136000BFBD4680BC704751
:10243C00080000203402002080B400AF024B1B685F
:10244C001846BD4680BC70473402002080B584B06D
:10245C0000AF7860FFF7F0FFB8607B68FB60FB684B
:10246C00B3F1FF3F05D00A4B1B781A46FB681344A7
:10247C00FB6000BFFFF7E0FF0246BB68D31AFA68A7
:10248C009A42F7D800BF00BF1037BD4680BD00BFD1
:10249C000800002080B485B000AF78607B6803F042
:1024AC000703FB600C4BDB68BB60BA684FF6FF039D
:1024BC001340BB60FB681A02BB68134343F0BF6355
:1024CC0043F40033BB60044ABB68D36000BF1437CD
:1024DC00BD4680BC704700BF00ED00E080B400AF8B
:1024EC00044BDB681B0A03F007031846BD4680BC8F
:1024FC00704700BF00ED00E080B483B000AF03462E
:10250C00FB7197F90730002B0BDBFB7903F01F02F3
:10251C00064997F907305B09012000FA02F241F8ED
:10252C00232000BF0C37BD4680BC704700E100E0A3
:10253C0080B483B000AF03463960FB7197F9073064
:10254C00002B0ADB3B68DAB20C4997F90730120111
:10255C00D2B20B4483F800230AE03B68DAB2084994
:10256C00FB7903F00F03043B1201D2B20B441A7631
:10257C0000BF0C37BD4680BC704700BF00E100E0D7
:10258C0000ED00E080B489B000AFF860B9607A600B
:10259C00FB6803F00703FB61FB69C3F10703042B22
:1025AC0028BF0423BB61FB690433062B02D9FB69EA
:1025BC00033B00E000237B614FF0FF32BB6902FA62
:1025CC0003F3DA43BB681A407B699A404FF0FF3142
:1025DC007B6901FA03F3D9437B680B40134318461C
:1025EC002437BD4680BC704780B582B000AF7860A0
:1025FC007B68013BB3F1807F01D301230FE00A4AD2
:10260C007B68013B53600F214FF0FF30FFF790FFC9
:10261C00054B00229A60044B07221A6000231846CF
:10262C000837BD4680BD00BF10E000E080B582B029
:10263C0000AF78607868FFF72DFF00BF0837BD4604
:10264C0080BD80B586B000AF0346B9607A60FB737D
:10265C0000237B61FFF742FF78617A68B96878697B
:10266C00FFF790FF024697F90F3011461846FFF717
:10267C005FFF00BF1837BD4680BD80B582B000AF8C
:10268C000346FB7197F907301846FFF735FF00BF7B
:10269C000837BD4680BD80B582B000AF78607868E1
:1026AC00FFF7A2FF034618460837BD4680BD000061
:1026BC0080B48BB000AF7860396000237B6200235C
:1026CC003B6269E101227B6A02FA03F3FB613B681E
:1026DC001B68FA691340BB61BA69FB699A4240F006
:1026EC0058813B685B689A4A93425ED0984A934201
:1026FC0075D8984A934258D0964A93426FD8964AC6
:10270C00934252D0944A934269D8944A93424CD003
:10271C00924A934263D8924A934246D0904A93424B
:10272C005DD8122B2AD8122B59D801A252F823F0BB
:10273C00B727000891270008A3270008E527000801
:10274C00EB270008EB270008EB270008EB27000815
:10275C00EB270008EB270008EB270008EB27000805
:10276C00EB270008EB270008EB270008EB270008F5
:10277C00EB27000899270008AD270008794A9342F7
:10278C0013D02CE03B68DB683B6229E03B68DB68DC
:10279C0004333B6224E03B68DB6808333B621FE098
:1027AC003B68DB680C333B621AE03B689B68002B90
:1027BC0002D104233B6213E03B689B68012B05D1DB
:1027CC0008233B627B68FA691A6109E008233B62C3
:1027DC007B68FA695A6103E000233B6200E000BFAA
:1027EC00BB69FF2B01D87B6801E07B6804337B61FC
:1027FC00BB69FF2B02D87B6A9B0002E07B6A083B1B
:10280C009B003B617B691A680F213B6901FA03F35A
:10281C00DB431A40396A3B6901FA03F31A437B69BB
:10282C001A603B685B6803F08053002B00F0B180AA
:10283C004D4B9B694C4A43F0010393614A4B9B6996
:10284C0003F00103BB60BB68484A7B6A9B080233F8
:10285C0052F82330FB607B6A03F003039B000F22CA
:10286C0002FA03F3DB43FA681340FB607B68404ACF
:10287C00934213D07B683F4A93420DD07B683E4A0B
:10288C00934207D07B683D4A934201D1032306E073
:10289C00042304E0022302E0012300E000237A6A0F
:1028AC0002F0030292009340FA681343FB602F4935
:1028BC007B6A9B080233FA6841F823203B685B680B
:1028CC0003F48013002B06D02D4B9A682C49BB695E
:1028DC0013438B6006E02A4B9A68BB69DB4328499B
:1028EC0013408B603B685B6803F40013002B06D02D
:1028FC00234BDA682249BB691343CB6006E0204BBB
:10290C00DA68BB69DB431E491340CB603B685B68EC
:10291C0003F40033002B06D0194B5A681849BB69D5
:10292C0013434B6006E0164B5A68BB69DB431449F2
:10293C0013404B603B685B6803F48033002B21D061
:10294C000F4B1A680E49BB6913430B6021E000BFA3
:10295C000000321000003110000022100000211085
:10296C000000121000001110001002400000014085
:10297C0000080140000C014000100140001401400F
:10298C00000401400B4B1A68BB69DB430949134037
:10299C000B607B6A01337B623B681A687B6A22FAA4
:1029AC0003F3002B7FF48EAE00BF00BF2C37BD4667
:1029BC0080BC70470004014080B483B000AF7860E5
:1029CC000B467B8013467B707B78002B03D07A8878
:1029DC007B681A6103E07B881A047B681A6100BF6C
:1029EC000C37BD4680BC704780B485B000AF7860B2
:1029FC000B467B807B68DB68FB607A88FB68134046
:102A0C001A04FB68D9437B880B401A437B681A6114
:102A1C0000BF1437BD4680BC7047000080B584B041
:102A2C0000AF78607B68002B01D101232BE17B6820
:102A3C0093F83D30DBB2002B06D17B68002283F883
:102A4C003C207868FFF730FB7B68242283F83D201C
:102A5C007B681B681A687B681B6822F001021A608D
:102A6C007B681B681A687B681B6842F400421A601A
:102A7C007B681B681A687B681B6822F400421A602A
:102A8C0001F0F8FCF8607B685B68814A934207D8D8
:102A9C00FB68804A934294BF01230023DBB206E01B
:102AAC00FB687D4A934294BF01230023DBB2002BC9
:102ABC0001D00123E7E0FB68784AA2FB03239B0CBF
:102ACC00BB607B681B685B6823F03F017B681B68FD
:102ADC00BA680A435A607B681B681B6A23F03F0183
:102AEC007B685B686A4A934202D8BB68013309E091
:102AFC00BB684FF4967202FB03F3694AA2FB0323F3
:102B0C009B0901337A6812680B4313627B681B685C
:102B1C00DB6923F44F4222F0FF027B685B685C495F
:102B2C008B4219D8FB68591E7B685B685B00B1FB54
:102B3C00F3F3591C40F6FC730B40002B0AD0FB68D6
:102B4C00591E7B685B685B00B1FBF3F30133C3F385
:102B5C000B0351E004234FE07B689B68002B11D1E1
:102B6C00FB68581E7B6859680B465B000B44B0FB36
:102B7C00F3F30133C3F30B03002B0CBF012300232E
:102B8C00DBB212E0FB68581E7B6859680B469B0051
:102B9C000B4499000B44B0FBF3F30133C3F30B0369
:102BAC00002B0CBF01230023DBB2002B01D001232F
:102BBC0022E07B689B68002B0ED1FB68581E7B685B
:102BCC0059680B465B000B44B0FBF3F30133C3F3C2
:102BDC000B0343F400430FE0FB68581E7B685968F5
:102BEC000B469B000B4499000B44B0FBF3F30133F1
:102BFC00C3F30B0343F44043796809681343CB6177
:102C0C007B681B681B6823F0C0017B68DA697B68F2
:102C1C001B6A1A437B681B680A431A607B681B6833
:102C2C009B6823F4034323F0FF037A6811697A68E5
:102C3C00D26811437A6812680B4393607B681B68F7
:102C4C00DB6823F0FF017B685A697B689B691A4338
:102C5C007B681B680A43DA607B681B681A687B68B0
:102C6C001B6842F001021A607B6800221A647B68C0
:102C7C00202283F83D207B6800221A637B680022A7
:102C8C0083F83E20002318461037BD4680BD00BF98
:102C9C00A08601007F841E00FF083D0083DE1B43DD
:102CAC00D34D621080B588B002AFF8607A601A46D6
:102CBC000B467B8113463B81FFF7BEFB7861FB68BB
:102CCC0093F83D30DBB2202B40F0E0807B69009321
:102CDC00192301227049F86800F0CCFD0346002B43
:102CEC0001D00223D3E0FB6893F83C30012B01D1D7
:102CFC000223CCE0FB68012283F83C20FB681B68B4
:102D0C001B6803F00103012B07D0FB681B681A68D2
:102D1C00FB681B6842F001021A60FB681B681A68AA
:102D2C00FB681B6822F400621A60FB68212283F89E
:102D3C003D20FB68102283F83E20FB6800221A64B9
:102D4C00FB687A685A62FB683A895A85FB685B8D26
:102D5C009AB2FB681A85FB68504ADA6279897B69FA
:102D6C003A6AF86800F036FC0346002B01D00123C8
:102D7C008DE000233B61FB681B685B693B61FB6872
:102D8C001B689B693B613B6966E07A69396AF86844
:102D9C0000F08AFE0346002B0DD0FB681B6C042B45
:102DAC0007D1FB681B681A68FB681B6842F4007249
:102DBC001A6001236BE0FB685B6A1A78FB681B687E
:102DCC001A61FB685B6A5A1CFB685A62FB685B8D74
:102DDC009BB2013B9AB2FB685A85FB681B8D013B89
:102DEC009AB2FB681A85FB681B685B6903F00403E5
:102DFC00042B1BD1FB681B8D002B17D0FB685B6A67
:102E0C001A78FB681B681A61FB685B6A5A1CFB68C2
:102E1C005A62FB685B8D9BB2013B9AB2FB685A8588
:102E2C00FB681B8D013B9AB2FB681A857A69396A7B
:102E3C00F86800F081FE0346002B0DD0FB681B6C7C
:102E4C00042B07D1FB681B681A68FB681B6842F4EB
:102E5C0000721A6001231AE0FB681B8D002B94D1C1
:102E6C00FB681B681A68FB681B6842F400721A60E6
:102E7C00FB68202283F83D20FB68002283F83E206B
:102E8C00FB68002283F83C20002300E00223184654
:102E9C001837BD4680BD00BF020010000000FFFFC8
:102EAC0080B58CB002AFF8607A601A460B467B8115
:102EBC0013463B8100233B62FFF7BEFA7862FB6846
:102ECC0093F83D30DBB2202B40F04B827B6A0093B1
:102EDC00192301227F49F86800F0CCFC0346002B33
:102EEC0001D002233EE2FB6893F83C30012B01D168
:102EFC00022337E2FB68012283F83C20FB681B6845
:102F0C001B6803F00103012B07D0FB681B681A68D0
:102F1C00FB681B6842F001021A60FB681B681A68A8
:102F2C00FB681B6822F400621A60FB68222283F89B
:102F3C003D20FB68102283F83E20FB6800221A64B7
:102F4C00FB687A685A62FB683A895A85FB685B8D24
:102F5C009AB2FB681A85FB685F4ADA6279897B6AE8
:102F6C003A6BF86800F0B8FB0346002B01D0012344
:102F7C00F8E1FB681B8D002B13D10023FB61FB6870
:102F8C001B685B69FB61FB681B689B69FB61FB69E8
:102F9C00FB681B681A68FB681B6842F400721A60B5
:102FAC00CCE1FB681B8D012B1ED1FB681B681A68DA
:102FBC00FB681B6822F480621A6072B600BF0023A3
:102FCC00BB61FB681B685B69BB61FB681B689B6929
:102FDC00BB61BB69FB681B681A68FB681B6842F421
:102FEC0000721A6062B635E0FB681B8D022B1ED195
:102FFC00FB681B681A68FB681B6842F400621A6065
:10300C0072B600BF00237B61FB681B685B697B6148
:10301C00FB681B689B697B617B69FB681B681A6892
:10302C00FB681B6822F480621A6062B612E0FB68CF
:10303C001B681A68FB681B6842F480621A600023E4
:10304C003B61FB681B685B693B61FB681B689B69A8
:10305C003B613B6972E1FB681B8D032B00F21F8106
:10306C00FB681B8D012B23D17A6A396BF86800F051
:10307C00ABFD0346002B01D0012373E1FB681B68F9
:10308C001A69FB685B6AD2B21A70FB685B6A5A1CDD
:10309C00FB685A62FB681B8D013B9AB2FB681A8570
:1030AC00FB685B8D9BB2013B9AB2FB685A8545E18C
:1030BC00FB681B8D022B52D17B6A00933B6B002269
:1030CC000649F86800F0D6FB0346002B08D0012314
:1030DC0048E100BF020010000000FFFF04000100E7
:1030EC0072B600BFFB681B681A68FB681B6842F469
:1030FC0000721A60FB681B681A69FB685B6AD2B2C3
:10310C001A70FB685B6A5A1CFB685A62FB681B8D61
:10311C00013B9AB2FB681A85FB685B8D9BB2013B45
:10312C009AB2FB685A8562B600BFFB681B681A69C5
:10313C00FB685B6AD2B21A70FB685B6A5A1CFB684C
:10314C005A62FB681B8D013B9AB2FB681A85FB68BF
:10315C005B8D9BB2013B9AB2FB685A85EEE07B6AB1
:10316C0000933B6B00228149F86800F083FB034617
:10317C00002B01D00123F5E0FB681B681A68FB6883
:10318C001B6822F480621A6072B600BFFB681B6871
:10319C001A69FB685B6AD2B21A70FB685B6A5A1CCC
:1031AC00FB685A62FB681B8D013B9AB2FB681A855F
:1031BC00FB685B8D9BB2013B9AB2FB685A856C4BEA
:1031CC001B68DB086B4AA2FB03231A0A13469B00FD
:1031DC001344DA00D31A3B623B6A013B3B623B6A05
:1031EC00002B18D1FB6800221A63FB68202283F89D
:1031FC003D20FB68002283F83E20FB681B6C43F0EB
:10320C002002FB681A6462B600BFFB68002283F8D8
:10321C003C200123A6E0FB681B685B6903F00403F8
:10322C00042BD9D1FB681B681A68FB681B6842F435
:10323C0000721A60FB681B681A69FB685B6AD2B281
:10324C001A70FB685B6A5A1CFB685A62FB681B8D20
:10325C00013B9AB2FB681A85FB685B8D9BB2013B04
:10326C009AB2FB685A8562B600BFFB681B681A6984
:10327C00FB685B6AD2B21A70FB685B6A5A1CFB680B
:10328C005A62FB681B8D013B9AB2FB681A85FB687E
:10329C005B8D9BB2013B9AB2FB685A854EE07A6A11
:1032AC00396BF86800F090FC0346002B01D0012329
:1032BC0058E0FB681B681A69FB685B6AD2B21A702B
:1032CC00FB685B6A5A1CFB685A62FB681B8D013BEE
:1032DC009AB2FB681A85FB685B8D9BB2013B9AB274
:1032EC00FB685A85FB681B685B6903F00403042BBD
:1032FC0024D1FB681B8D032B07D1FB681B681A6854
:10330C00FB681B6822F480621A60FB681B681A69F0
:10331C00FB685B6AD2B21A70FB685B6A5A1CFB686A
:10332C005A62FB681B8D013B9AB2FB681A85FB68DD
:10333C005B8D9BB2013B9AB2FB685A85FB681B8D77
:10334C00002B7FF488AEFB68202283F83D20FB68BD
:10335C00002283F83E20FB68002283F83C200023E7
:10336C0000E0022318462837BD4680BD040001004A
:10337C000000002089B5F81480B58AB002AFF8605F
:10338C007A603B600B467B81FFF756F8F8610023AF
:10339C00BB61FB6893F83D30DBB2202B40F0118110
:1033AC00FB690093192301228849F86800F062FA3E
:1033BC000346002B01D0022304E1FB6893F83C3058
:1033CC00012B01D10223FDE0FB68012283F83C2094
:1033DC00FB681B681B6803F00103012B07D0FB681B
:1033EC001B681A68FB681B6842F001021A60FB68D4
:1033FC001B681A68FB681B6822F400621A60FB6881
:10340C00242283F83D20FB6800221A64FB68704A72
:10341C00DA62FB681B681A68FB681B6842F48072EE
:10342C001A60FB6900933B6800224FF00111F868A9
:10343C0000F020FA0346002B0DD0FB681B681B68BC
:10344C0003F48073B3F5807F03D1FB684FF40072F3
:10345C001A640323B6E07B89DBB21A46FB681B684F
:10346C0002F0FE021A61FEF7E7FFF861FB681B68C9
:10347C005B6903F00203022B0CBF01230023DBB2B8
:10348C00FB75FB681B685B6903F48063B3F5806FA5
:10349C000CBF01230023DBB2BB7525E0FEF7CCFF8C
:1034AC000246FB69D31A3A689A4202D33B68002B56
:1034BC0003D1FB68A02283F83D20FB681B685B6985
:1034CC0003F00203022B0CBF01230023DBB2FB75BC
:1034DC00FB681B685B6903F48063B3F5806F0CBFFA
:1034EC0001230023DBB2BB75FB6893F83D30DBB2E4
:1034FC00A02B05D0FB7D002B02D1BB7D002BCDD0AA
:10350C00FB68202283F83D20FB681B685B6903F095
:10351C000203022B29D1FB681B681A68FB681B6825
:10352C0042F400721A6000233B61FB681B685B6904
:10353C003B61FB681B689B693B613B69FB690093C2
:10354C00192301222149F86800F094F90346002B55
:10355C0001D0012336E0FB68202283F83D20FB6874
:10356C00002283F83C2000232CE0FB681B681A68BF
:10357C00FB681B6842F400721A60FB681B686FF4EE
:10358C0080625A61FB690093192301220F49F86884
:10359C0000F070F90346002B01D0012312E0BB6947
:1035AC000133BB61BA697B689A42FFF432AFFB68A6
:1035BC00202283F83D20FB68002283F83C20012365
:1035CC0000E0022318462037BD4680BD02001000E3
:1035DC000000FFFF80B588B002AFF8607A603B60F6
:1035EC000B467B81FB68DB6A7B617B69082B06D011
:1035FC007B69012B03D07B6913F5803F08D1FB68F5
:10360C001B681A68FB681B6842F480721A600BE036
:10361C00FB681B6B122B07D1FB681B681A68FB68D5
:10362C001B6842F480721A603B6800937B6800222E
:10363C004FF00111F86800F01DF90346002B0DD076
:10364C00FB681B681B6803F48073B3F5807F03D1A0
:10365C00FB684FF400721A64032335E0FB681B69A6
:10366C00B3F5804F08D17B89DBB21A46FB681B6827
:10367C0002F0FE021A611BE07B89DB11DBB203F066
:10368C000603DBB263F00F03DAB2FB681B681A6146
:10369C003B687A680E49F86800F066F90346002B1F
:1036AC0001D0012310E07B89DAB2FB681B681A6138
:1036BC003B687A680749F86800F056F90346002B16
:1036CC0001D0012300E0002318461837BD4680BD09
:1036DC00080001000200010080B588B002AFF8605C
:1036EC007A603B600B467B81FB68DB6A7B61FB6825
:1036FC001B681A68FB681B6842F480621A607B695D
:10370C00082B06D07B69012B03D07B6913F5803F16
:10371C0008D1FB681B681A68FB681B6842F480724E
:10372C001A600BE0FB681B6B112B07D1FB681B6845
:10373C001A68FB681B6842F480721A603B6800933D
:10374C007B6800224FF00111F86800F093F80346F3
:10375C00002B0DD0FB681B681B6803F48073B3F55A
:10376C00807F03D1FB684FF400721A64032379E065
:10377C00FB681B69B3F5804F08D17B89DBB243F042
:10378C000103DAB2FB681B681A615FE07B89DB110D
:10379C00DBB203F00603DBB263F00F03DAB2FB68B3
:1037AC001B681A613B687A683049F86800F0DCF8ED
:1037BC000346002B01D0012354E07B89DAB2FB686D
:1037CC001B681A613B687A682949F86800F0CCF8E4
:1037DC000346002B01D0012344E000233B61FB682E
:1037EC001B685B693B61FB681B689B693B613B69C0
:1037FC00FB681B681A68FB681B6842F480721A60CD
:10380C003B6800937B6800224FF00111F86800F0D0
:10381C0031F80346002B0DD0FB681B681B6803F4C2
:10382C008073B3F5807F03D1FB684FF400721A6488
:10383C00032317E07B89DB11DBB203F00603DBB259
:10384C0063F00E03DAB2FB681B681A613B687A6896
:10385C000749F86800F088F80346002B01D00123D3
:10386C0000E0002318461837BD4680BD0800010053
:10387C000200010080B584B000AFF860B9603B6015
:10388C001346FB7148E03B68B3F1FF3F44D0FEF7B1
:10389C00D3FD0246BB69D31A3A689A4202D33B68FD
:1038AC00002B39D1BB681B0CDBB2012B0DD1FB6893
:1038BC001B685B69DA43BB6813409BB2002B0CBFDF
:1038CC0001230023DBB21A460CE0FB681B689B69E2
:1038DC00DA43BB6813409BB2002B0CBF01230023BF
:1038EC00DBB21A46FB799A4216D1FB6800221A63A6
:1038FC00FB68202283F83D20FB68002283F83E20E1
:10390C00FB681B6C43F02002FB681A64FB68002206
:10391C0083F83C20012323E0BB681B0CDBB2012B9A
:10392C000DD1FB681B685B69DA43BB6813409BB223
:10393C00002B0CBF01230023DBB21A460CE0FB6802
:10394C001B689B69DA43BB6813409BB2002B0CBF0E
:10395C0001230023DBB21A46FB799A4293D0002351
:10396C0018461037BD4680BD80B584B000AFF860F6
:10397C00B9607A603B6071E0FB681B685B6903F4BB
:10398C008063B3F5806F23D1FB681B681A68FB68F2
:10399C001B6842F400721A60FB681B686FF480624B
:1039AC005A61FB6800221A63FB68202283F83D20D1
:1039BC00FB68002283F83E20FB681B6C43F004027A
:1039CC00FB681A64FB68002283F83C20012367E043
:1039DC007B68B3F1FF3F41D0FEF72EFD02463B68FA
:1039EC00D31A7A689A4202D37B68002B36D1BB6813
:1039FC001B0CDBB2012B0CD1FB681B685B69DA4337
:103A0C00BB6813409BB2002B14BF01230023DBB215
:103A1C000BE0FB681B689B69DA43BB6813409BB2E5
:103A2C00002B14BF01230023DBB2002B16D0FB6844
:103A3C0000221A63FB68202283F83D20FB680022D9
:103A4C0083F83E20FB681B6C43F02002FB681A6471
:103A5C00FB68002283F83C20012321E0BB681B0C8F
:103A6C00DBB2012B0CD1FB681B685B69DA43BB68CA
:103A7C0013409BB2002B14BF01230023DBB20BE0DD
:103A8C00FB681B689B69DA43BB6813409BB2002B35
:103A9C0014BF01230023DBB2002B7FF46DAF002396
:103AAC0018461037BD4680BD80B584B000AFF860B5
:103ABC00B9607A6034E0F86800F0E3F80346002B54
:103ACC0001D0012334E0BB68B3F1FF3F28D0FEF7EF
:103ADC00B3FC02467B68D31ABA689A4202D3BB681D
:103AEC00002B1DD1FB681B685B6903F08003802BE6
:103AFC0016D0FB6800221A63FB68202283F83D2055
:103B0C00FB68002283F83E20FB681B6C43F020020C
:103B1C00FB681A64FB68002283F83C20012307E051
:103B2C00FB681B685B6903F08003802BC3D1002307
:103B3C0018461037BD4680BD80B584B000AFF86024
:103B4C00B9607A6034E0F86800F09BF80346002B0B
:103B5C0001D0012334E0BB68B3F1FF3F28D0FEF75E
:103B6C006BFC02467B68D31ABA689A4202D3BB68D4
:103B7C00002B1DD1FB681B685B6903F00403042B4D
:103B8C0016D0FB6800221A63FB68202283F83D20C4
:103B9C00FB68002283F83E20FB681B6C43F020027C
:103BAC00FB681A64FB68002283F83C20012307E0C1
:103BBC00FB681B685B6903F00403042BC3D100236F
:103BCC0018461037BD4680BD80B584B000AFF86094
:103BDC00B9607A6049E0FB681B685B6903F010030D
:103BEC00102B19D1FB681B686FF010025A61FB682F
:103BFC0000221A63FB68202283F83D20FB68002218
:103C0C0083F83E20FB681A6CFB681A64FB68002280
:103C1C0083F83C20012330E0FEF70EFC02467B6863
:103C2C00D31ABA689A4202D3BB68002B1DD1FB6829
:103C3C001B685B6903F04003402B16D0FB68002225
:103C4C001A63FB68202283F83D20FB68002283F86E
:103C5C003E20FB681B6C43F02002FB681A64FB6877
:103C6C00002283F83C20012307E0FB681B685B699A
:103C7C0003F04003402BAED1002318461037BD464D
:103C8C0080BD80B483B000AF78607B681B685B69D3
:103C9C0003F48063B3F5806F1BD17B681B686FF4F2
:103CAC0080625A617B6800221A637B68202283F849
:103CBC003D207B68002283F83E207B681B6C43F020
:103CCC0004027B681A647B68002283F83C20012381
:103CDC0000E0002318460C37BD4680BC704700003E
:103CEC0080B586B000AF78607B68002B01D10123D2
:103CFC0072E27B681B6803F00103002B00F08780E5
:103D0C00924B5B6803F00C03042B0CD08F4B5B685D
:103D1C0003F00C03082B12D18C4B5B6803F480333B
:103D2C00B3F5803F0BD1894B1B6803F40033002B98
:103D3C006CD07B685B68002B68D101234CE27B68FC
:103D4C005B68B3F5803F06D1804B1B687F4A43F418
:103D5C00803313602EE07B685B68002B0CD17B4BAF
:103D6C001B687A4A23F480331360784B1B68774ABC
:103D7C0023F4802313601DE07B685B68B3F5A02FF0
:103D8C000CD1724B1B68714A43F4802313606F4B48
:103D9C001B686E4A43F4803313600BE06B4B1B685B
:103DAC006A4A23F480331360684B1B68674A23F418
:103DBC00802313607B685B68002B13D0FEF73CFB01
:103DCC00386108E0FEF738FB02463B69D31A642BD6
:103DDC0001D9032300E25D4B1B6803F40033002B75
:103DEC00F0D014E0FEF728FB386108E0FEF724FB66
:103DFC0002463B69D31A642B01D90323ECE1534BE4
:103E0C001B6803F40033002BF0D100E000BF7B688B
:103E1C001B6803F00203002B63D04C4B5B6803F070
:103E2C000C03002B0BD0494B5B6803F00C03082BE5
:103E3C001CD1464B5B6803F48033002B16D1434BEB
:103E4C001B6803F00203002B05D07B681B69012B58
:103E5C0001D00123C0E13D4B1B6823F0F8027B68C5
:103E6C005B69DB00394913430B603AE07B681B69E3
:103E7C00002B20D0364B01221A60FEF7DDFA386198
:103E8C0008E0FEF7D9FA02463B69D31A022B01D996
:103E9C000323A1E12D4B1B6803F00203002BF0D090
:103EAC002A4B1B6823F0F8027B685B69DB0027490F
:103EBC0013430B6015E0264B00221A60FEF7BCFA88
:103ECC00386108E0FEF7B8FA02463B69D31A022BB8
:103EDC0001D9032380E11D4B1B6803F00203002B67
:103EEC00F0D17B681B6803F00803002B3AD07B6889
:103EFC009B69002B19D0174B01221A60FEF79CFA14
:103F0C00386108E0FEF798FA02463B69D31A022B97
:103F1C0001D9032360E10D4B5B6A03F00203002B14
:103F2C00F0D0012000F0BAFA1CE00A4B00221A6013
:103F3C00FEF782FA38610FE0FEF77EFA02463B6923
:103F4C00D31A022B08D9032346E100BF001002400C
:103F5C000000424280044242924B5B6A03F002032F
:103F6C00002BE9D17B681B6803F00403002B00F0E5
:103F7C00A6800023FB758B4BDB6903F08053002B71
:103F8C000DD1884BDB69874A43F08053D361854B55
:103F9C00DB6903F08053BB60BB680123FB75824B6C
:103FAC001B6803F48073002B18D17F4B1B687E4A6F
:103FBC0043F480731360FEF73FFA386108E0FEF7B4
:103FCC003BFA02463B69D31A642B01D9032303E164
:103FDC00754B1B6803F48073002BF0D07B68DB6897
:103FEC00012B06D16F4B1B6A6E4A43F0010313621F
:103FFC002DE07B68DB68002B0CD16A4B1B6A694A8D
:10400C0023F001031362674B1B6A664A23F0040317
:10401C0013621CE07B68DB68052B0CD1614B1B6ABF
:10402C00604A43F0040313625E4B1B6A5D4A43F023
:10403C00010313620BE05B4B1B6A5A4A23F001032A
:10404C001362584B1B6A574A23F0040313627B68B4
:10405C00DB68002B15D0FEF7EFF938610AE0FEF7AC
:10406C00EBF902463B69D31A41F28832934201D9EB
:10407C000323B1E04B4B1B6A03F00203002BEED081
:10408C0014E0FEF7D9F938610AE0FEF7D5F90246DB
:10409C003B69D31A41F28832934201D903239BE046
:1040AC00404B1B6A03F00203002BEED1FB7D012B6E
:1040BC0005D13C4BDB693B4A23F08053D3617B68D1
:1040CC00DB69002B00F08780364B5B6803F00C0338
:1040DC00082B61D07B68DB69022B46D1334B002265
:1040EC001A60FEF7A9F9386108E0FEF7A5F9024657
:1040FC003B69D31A022B01D903236DE0294B1B68B2
:10410C0003F00073002BF0D17B681B6AB3F5803F82
:10411C0008D1244B5B6823F400327B689B682149EF
:10412C0013434B601F4B5B6823F474127B68196A52
:10413C007B685B6A0B431B4913434B601B4B01228F
:10414C001A60FEF779F9386108E0FEF775F9024656
:10415C003B69D31A022B01D903233DE0114B1B6899
:10416C0003F00073002BF0D035E0104B00221A60E6
:10417C00FEF762F9386108E0FEF75EF902463B692A
:10418C00D31A022B01D9032326E0064B1B6803F03C
:10419C000073002BF0D11EE07B68DB69012B07D18B
:1041AC00012319E000100240007000406000424200
:1041BC000B4B5B68FB60FB6803F480327B681B6A0B
:1041CC009A4206D1FB6803F470127B685B6A9A42D0
:1041DC0001D0012300E0002318461837BD4680BDEE
:1041EC000010024080B584B000AF786039607B6805
:1041FC00002B01D10123D0E06A4B1B6803F00703AD
:10420C003A689A4210D9674B1B6823F0070265493C
:10421C003B6813430B60634B1B6803F007033A685E
:10422C009A4201D00123B8E07B681B6803F00203BB
:10423C00002B20D07B681B6803F00403002B05D0F7
:10424C00594B5B68584A43F4E06353607B681B68C6
:10425C0003F00803002B05D0534B5B68524A43F420
:10426C0060535360504B5B6823F0F0027B689B6893
:10427C004D4913434B607B681B6803F00103002B13
:10428C0040D07B685B68012B07D1474B1B6803F45C
:10429C000033002B15D101237FE07B685B68022B78
:1042AC0007D1414B1B6803F00073002B09D101238C
:1042BC0073E03D4B1B6803F00203002B01D101237B
:1042CC006BE0394B5B6823F003027B685B68364913
:1042DC0013434B60FEF7B0F8F8600AE0FEF7ACF859
:1042EC000246FB68D31A41F28832934201D9032368
:1042FC0053E02D4B5B6803F00C027B685B689B0002
:10430C009A42EBD1274B1B6803F007033A689A4299
:10431C0010D2244B1B6823F0070222493B6813433D
:10432C000B60204B1B6803F007033A689A4201D0DC
:10433C00012332E07B681B6803F00403002B08D0D8
:10434C00194B5B6823F4E0627B68DB681649134306
:10435C004B607B681B6803F00803002B09D0124BE1
:10436C005B6823F460527B681B69DB000E491343C6
:10437C004B6000F021F802460B4B5B681B0903F005
:10438C000F030A49CB5C22FA03F3094A1360094B69
:10439C001B681846FEF70EF8002318461037BD466A
:1043AC0080BD00BF00200240001002403C5A0008B3
:1043BC00000000200400002080B487B000AF002370
:1043CC00FB600023BB6000237B6100237B60002328
:1043DC003B611E4B5B68FB60FB6803F00C03042B1A
:1043EC0002D0082B03D027E0194B3B6127E0FB6878
:1043FC009B0C03F00F03174AD35C7B60FB6803F440
:10440C008033002B10D0114B5B685B0C03F0010365
:10441C00114AD35CBB607B680D4A03FB02F2BB689C
:10442C00B2FBF3F37B6104E07B680C4A02FB03F301
:10443C007B617B693B6102E0054B3B6100BF3B69E3
:10444C0018461C37BD4680BC704700BF00100240A8
:10445C0000127A00545A0008645A000800093D0002
:10446C0080B400AF024B1B681846BD4680BC704739
:10447C000000002080B500AFFFF7F2FF0246054BAD
:10448C005B681B0A03F007030349CB5C22FA03F3B6
:10449C00184680BD001002404C5A000880B485B00C
:1044AC0000AF78600A4B1B680A4AA2FB03235B0A25
:1044BC007A6802FB03F3FB6000BFFB685A1EFA60CC
:1044CC00002BF9D100BF00BF1437BD4680BC70472C
:1044DC0000000020D34D621080B582B000AF786030
:1044EC007B68002B01D1012341E07B6893F83D30C0
:1044FC00DBB2002B06D17B68002283F83C20786865
:10450C00FDF710FE7B68022283F83D207B681A6859
:10451C007B6804331946104600F0DEFD7B680122EF
:10452C0083F846207B68012283F83E207B680122B9
:10453C0083F83F207B68012283F840207B680122AE
:10454C0083F841207B68012283F842207B6801229A
:10455C0083F843207B68012283F844207B68012286
:10456C0083F845207B68012283F83D200023184600
:10457C000837BD4680BD80B582B000AF78607B68DF
:10458C00002B01D1012341E07B6893F83D30DBB275
:10459C00002B06D17B68002283F83C20786800F061
:1045AC0039F87B68022283F83D207B681A687B68A7
:1045BC0004331946104600F08FFD7B68012283F806
:1045CC0046207B68012283F83E207B68012283F819
:1045DC003F207B68012283F840207B68012283F80E
:1045EC0041207B68012283F842207B68012283F8FA
:1045FC0043207B68012283F844207B68012283F8E6
:10460C0045207B68012283F83D200023184608379B
:10461C00BD4680BD80B483B000AF786000BF0C375E
:10462C00BD4680BC7047000080B584B000AF786098
:10463C0039603B68002B09D17B6893F83E30DBB2C4
:10464C00012B14BF01230023DBB222E03B68042BB7
:10465C0009D17B6893F83F30DBB2012B14BF0123E7
:10466C000023DBB215E03B68082B09D17B6893F87B
:10467C004030DBB2012B14BF01230023DBB208E076
:10468C007B6893F84130DBB2012B14BF012300236C
:10469C00DBB2002B01D001235EE03B68002B04D180
:1046AC007B68022283F83E2013E03B68042B04D184
:1046BC007B68022283F83F200BE03B68082B04D177
:1046CC007B68022283F8402003E07B68022283F897
:1046DC0041207B681B6801223968184601F089F873
:1046EC007B681B681E4A934207D17B681B685A6C17
:1046FC007B681B6842F400425A647B681B68184A4A
:10470C0093420ED07B681B68B3F1804F09D07B6855
:10471C001B68144A934204D07B681B68124A93426C
:10472C0011D17B681B689B6803F00703FB60FB6877
:10473C00062B10D07B681B681A687B681B6842F0DC
:10474C0001021A6007E07B681B681A687B681B68AB
:10475C0042F001021A60002318461037BD4680BD96
:10476C00002C0140000400400008004080B582B0DD
:10477C0000AF78607B68002B01D1012341E07B689E
:10478C0093F83D30DBB2002B06D17B68002283F816
:10479C003C20786800F039F87B68022283F83D20D1
:1047AC007B681A687B6804331946104600F094FC49
:1047BC007B68012283F846207B68012283F83E2027
:1047CC007B68012283F83F207B68012283F840201C
:1047DC007B68012283F841207B68012283F8422008
:1047EC007B68012283F843207B68012283F84420F4
:1047FC007B68012283F845207B68012283F83D20E9
:10480C00002318460837BD4680BD80B483B000AF86
:10481C00786000BF0C37BD4680BC704780B584B053
:10482C0000AF786039600023FB733B68002B04D128
:10483C007B6893F83E30DBB213E03B68042B04D169
:10484C007B6893F83F30DBB20BE03B68082B04D15C
:10485C007B6893F84030DBB203E07B6893F841301F
:10486C00DBB2BB733B68002B04D17B6893F84230FE
:10487C00DBB213E03B68042B04D17B6893F8433024
:10488C00DBB20BE03B68082B04D17B6893F8443017
:10489C00DBB203E07B6893F84530DBB27B73BB7B08
:1048AC00012B02D17B7B012B01D00123B8E03B68AB
:1048BC00002B04D17B68022283F83E2013E03B6876
:1048CC00042B04D17B68022283F83F200BE03B6869
:1048DC00082B04D17B68022283F8402003E07B681C
:1048EC00022283F841203B68002B04D17B68022212
:1048FC0083F8422013E03B68042B04D17B6802222E
:10490C0083F843200BE03B68082B04D17B68022220
:10491C0083F8442003E07B68022283F845203B683F
:10492C000C2B41D801A252F823F000BF6D490008AE
:10493C00B5490008B5490008B54900087F49000889
:10494C00B5490008B5490008B54900089149000867
:10495C00B5490008B5490008B5490008A349000845
:10496C007B681B68DA687B681B6842F00202DA60BD
:10497C001DE07B681B68DA687B681B6842F00402E8
:10498C00DA6014E07B681B68DA687B681B6842F0AD
:10499C000802DA600BE07B681B68DA687B681B68CE
:1049AC0042F01002DA6002E00123FB7300BFFB7BD4
:1049BC00002B34D17B681B6801223968184600F043
:1049CC0018FF7B681B68184A93420ED07B681B68E3
:1049DC00B3F1804F09D07B681B68144A934204D012
:1049EC007B681B68124A934211D17B681B689B68D9
:1049FC0003F00703BB60BB68062B10D07B681B68F9
:104A0C001A687B681B6842F001021A6007E07B6839
:104A1C001B681A687B681B6842F001021A60FB7BFA
:104A2C0018461037BD4680BD002C014000040040E4
:104A3C000008004080B582B000AF78607B681B68CE
:104A4C001B6903F00203022B22D17B681B68DB6815
:104A5C0003F00203022B1BD17B681B686FF0020270
:104A6C001A617B6801221A777B681B689B6903F0CB
:104A7C000303002B03D07868FCF73AFC05E0786858
:104A8C0000F00EFB786800F014FB7B6800221A77AC
:104A9C007B681B681B6903F00403042B22D17B6821
:104AAC001B68DB6803F00403042B1BD17B681B68B9
:104ABC006FF004021A617B6802221A777B681B680C
:104ACC009B6903F44073002B03D07868FCF710FC4F
:104ADC0005E0786800F0E4FA786800F0EAFA7B68A0
:104AEC0000221A777B681B681B6903F00803082BEC
:104AFC0022D17B681B68DB6803F00803082B1BD1F1
:104B0C007B681B686FF008021A617B6804221A77B5
:104B1C007B681B68DB6903F00303002B03D0786808
:104B2C00FCF7E6FB05E0786800F0BAFA786800F06C
:104B3C00C0FA7B6800221A777B681B681B6903F03C
:104B4C001003102B22D17B681B68DB6803F0100369
:104B5C00102B1BD17B681B686FF010021A617B68ED
:104B6C0008221A777B681B68DB6903F44073002BFF
:104B7C0003D07868FCF7BCFB05E0786800F090FA8D
:104B8C00786800F096FA7B6800221A777B681B68BD
:104B9C001B6903F00103012B0ED17B681B68DB68DA
:104BAC0003F00103012B07D17B681B686FF0010236
:104BBC001A61786800F06BFA7B681B681B6903F05C
:104BCC008003802B0ED17B681B68DB6803F08003AD
:104BDC00802B07D17B681B686FF080021A617868A4
:104BEC0000F0E4FE7B681B681B6903F04003402B5C
:104BFC000ED17B681B68DB6803F04003402B07D1A8
:104C0C007B681B686FF040021A61786800F05AFAF2
:104C1C007B681B681B6903F02003202B0ED17B687B
:104C2C001B68DB6803F02003202B07D17B681B6813
:104C3C006FF020021A61786800F0AFFE00BF0837F1
:104C4C00BD4680BD80B586B000AFF860B9607A60B3
:104C5C000023FB75FB6893F83C30012B01D1022338
:104C6C0088E0FB68012283F83C207B68002B1BD179
:104C7C00FB681868BB681968BB685A68BB68DB6856
:104C8C0000F014FCFB681B689A69FB681B6822F037
:104C9C000C029A61FB681B689969BB689A68FB688F
:104CAC001B680A439A6160E07B68042B1CD1FB688B
:104CBC001868BB681968BB685A68BB68DB6800F089
:104CCC007DFCFB681B689A69FB681B6822F44062D8
:104CDC009A61FB681B689969BB689B681A02FB6840
:104CEC001B680A439A6140E07B68082B1BD1FB6868
:104CFC001868BB681968BB685A68BB68DB6800F049
:104D0C00C8FCFB681B68DA69FB681B6822F00C02A4
:104D1C00DA61FB681B68D969BB689A68FB681B6819
:104D2C000A43DA6121E07B680C2B1CD1FB68186804
:104D3C00BB681968BB685A68BB68DB6800F0E4FCA8
:104D4C00FB681B68DA69FB681B6822F44062DA6155
:104D5C00FB681B68D969BB689B681A02FB681B68F7
:104D6C000A43DA6101E00123FB75FB68002283F83A
:104D7C003C20FB7D18461837BD4680BD80B586B0FB
:104D8C0000AFF860B9607A600023FB75FB6893F89C
:104D9C003C30012B01D10223AEE0FB68012283F8E9
:104DAC003C207B680C2B00F29F8001A252F823F070
:104DBC00F14D0008F54E0008F54E0008F54E0008C0
:104DCC00314E0008F54E0008F54E0008F54E00086F
:104DDC00734E0008F54E0008F54E0008F54E00081D
:104DEC00B34E0008FB681B68B968184600F0D6F98A
:104DFC00FB681B689A69FB681B6842F008029A61A1
:104E0C00FB681B689A69FB681B6822F004029A61B4
:104E1C00FB681B689969BB681A69FB681B680A43C5
:104E2C009A6164E0FB681B68B968184600F01CFACC
:104E3C00FB681B689A69FB681B6842F400629A6104
:104E4C00FB681B689A69FB681B6822F480629A6194
:104E5C00FB681B689969BB681B691A02FB681B68B5
:104E6C000A439A6143E0FB681B68B968184600F076
:104E7C0065FAFB681B68DA69FB681B6842F008027C
:104E8C00DA61FB681B68DA69FB681B6822F00402B4
:104E9C00DA61FB681B68D969BB681A69FB681B6817
:104EAC000A43DA6123E0FB681B68B968184600F016
:104EBC00AFFAFB681B68DA69FB681B6842F4006296
:104ECC00DA61FB681B68DA69FB681B6822F4806294
:104EDC00DA61FB681B68D969BB681B691A02FB683D
:104EEC001B680A43DA6102E00123FB7500BFFB6813
:104EFC00002283F83C20FB7D18461837BD4680BD48
:104F0C0080B584B000AF786039600023FB737B6898
:104F1C0093F83C30012B01D10223B4E07B680122D1
:104F2C0083F83C207B68022283F83D207B681B6859
:104F3C009B68BB60BB6823F07703BB60BB6823F442
:104F4C007F43BB607B681B68BA689A603B681B68D0
:104F5C00B3F5005F3ED0B3F5005F00F28780B3F588
:104F6C00805F00F08680B3F5805F7FD8702B1AD0FD
:104F7C00702B7BD8602B50D0602B77D8502B3CD02B
:104F8C00502B73D8402B58D0402B6FD8302B64D07B
:104F9C00302B6BD8202B60D0202B67D8002B5CD00B
:104FAC00102B5AD062E07B6818683B6899683B68A4
:104FBC005A683B68DB6800F0FDFB7B681B689B68EC
:104FCC00BB60BB6843F07703BB607B681B68BA6847
:104FDC009A604FE07B6818683B6899683B685A6830
:104FEC003B68DB6800F0E6FB7B681B689A687B68B3
:104FFC001B6842F480429A603CE07B6818683B680E
:10500C0059683B68DB681A4600F0AAFA7B681B6893
:10501C005021184600F0B4FB2CE07B6818683B6804
:10502C0059683B68DB681A4600F004FB7B681B6818
:10503C006021184600F0A4FB1CE07B6818683B68F4
:10504C0059683B68DB681A4600F08AFA7B681B6873
:10505C004021184600F094FB0CE07B681A683B6812
:10506C001B681946104600F08BFB03E00123FB7311
:10507C0000E000BF7B68012283F83D207B680022A2
:10508C0083F83C20FB7B18461037BD4680BD80B4AE
:10509C0083B000AF786000BF0C37BD4680BC704752
:1050AC0080B483B000AF786000BF0C37BD4680BCC5
:1050BC00704780B483B000AF786000BF0C37BD463A
:1050CC0080BC704780B483B000AF786000BF0C37F1
:1050DC00BD4680BC7047000080B485B000AF7860DE
:1050EC0039607B681B68FB607B68294A93420BD054
:1050FC007B68B3F1804F07D07B68264A934203D07C
:10510C007B68254A934208D1FB6823F07003FB604F
:10511C003B685B68FA681343FB607B681C4A9342EC
:10512C000BD07B68B3F1804F07D07B68194A934250
:10513C0003D07B68184A934208D1FB6823F4407370
:10514C00FB603B68DB68FA681343FB60FB6823F089
:10515C0080023B685B691343FB607B68FA681A60EA
:10516C003B689A687B68DA623B681A687B689A626B
:10517C007B68074A934203D13B681A697B681A63C0
:10518C007B6801225A6100BF1437BD4680BC704752
:10519C00002C0140000400400008004080B487B09F
:1051AC0000AF786039607B681B6A7B617B681B6A27
:1051BC0023F001027B681A627B685B683B617B6849
:1051CC009B69FB60FB6823F07003FB60FB6823F0BA
:1051DC000303FB603B681B68FA681343FB607B6945
:1051EC0023F002037B613B689B687A6913437B6104
:1051FC007B681C4A93420CD17B6923F008037B61CA
:10520C003B68DB687A6913437B617B6923F0040399
:10521C007B617B68134A934211D13B6923F4807301
:10522C003B613B6923F400733B613B685B693A6902
:10523C0013433B613B689B693A6913433B617B6851
:10524C003A695A607B68FA689A613B685A687B686D
:10525C005A637B687A691A6200BF1C37BD4680BCF2
:10526C00704700BF002C014080B487B000AF78605D
:10527C0039607B681B6A7B617B681B6A23F01002B8
:10528C007B681A627B685B683B617B689B69FB602F
:10529C00FB6823F4E043FB60FB6823F44073FB6082
:1052AC003B681B681B02FA681343FB607B6923F0A5
:1052BC0020037B613B689B681B017A6913437B610C
:1052CC007B681D4A93420DD17B6923F080037B617F
:1052DC003B68DB681B017A6913437B617B6923F0B4
:1052EC0040037B617B68144A934213D13B6923F4DE
:1052FC0080633B613B6923F400633B613B685B6902
:10530C009B003A6913433B613B689B699B003A697C
:10531C0013433B617B683A695A607B68FA689A610F
:10532C003B685A687B689A637B687A691A6200BF2B
:10533C001C37BD4680BC7047002C014080B487B040
:10534C0000AF786039607B681B6A7B617B681B6A85
:10535C0023F480727B681A627B685B683B617B68B4
:10536C00DB69FB60FB6823F07003FB60FB6823F0D8
:10537C000303FB603B681B68FA681343FB607B69A3
:10538C0023F400737B613B689B681B027A691343AF
:10539C007B617B681D4A93420DD17B6923F40063CA
:1053AC007B613B68DB681B027A6913437B617B6919
:1053BC0023F480637B617B68144A934213D13B696D
:1053CC0023F480533B613B6923F400533B613B68FE
:1053DC005B691B013A6913433B613B689B691B0189
:1053EC003A6913433B617B683A695A607B68FA6897
:1053FC00DA613B685A687B68DA637B687A691A629F
:10540C0000BF1C37BD4680BC704700BF002C01405C
:10541C0080B487B000AF786039607B681B6A3B61F1
:10542C007B681B6A23F480527B681A627B685B681A
:10543C007B617B68DB69FB60FB6823F4E043FB600A
:10544C00FB6823F44073FB603B681B681B02FA6823
:10545C001343FB603B6923F400533B613B689B683F
:10546C001B033A6913433B617B680F4A934209D192
:10547C007B6923F480437B613B685B699B017A69A0
:10548C0013437B617B687A695A607B68FA68DA61DE
:10549C003B685A687B681A647B683A691A6200BF79
:1054AC001C37BD4680BC7047002C014080B487B0CF
:1054BC0000AFF860B9607A603B60FB681B6A3B61C7
:1054CC00FB681B6A23F00102FB681A62FB689B698C
:1054DC007B61FB681F4A93420BD0FB68B3F1804F92
:1054EC0007D0FB681C4A934203D0FB681B4A9342CB
:1054FC0001D1012300E00023002B08D07B6923F0AD
:10550C0003037B617A697B6813437B6103E07B69EE
:10551C0043F001037B617B6923F0F0037B613B6803
:10552C001B01DBB27A6913437B613B6923F00A03ED
:10553C003B61BB6803F00A033A6913433B61FB68A8
:10554C007A699A61FB683A691A6200BF1C37BD46DA
:10555C0080BC7047002C0140000400400008004053
:10556C0080B487B000AFF860B9607A60FB681B6AE2
:10557C007B61FB681B6A23F00102FB681A62FB6803
:10558C009B693B613B6923F0F0033B617B681B012A
:10559C003A6913433B617B6923F00A037B617A69A7
:1055AC00BB6813437B61FB683A699A61FB687A6953
:1055BC001A6200BF1C37BD4680BC704780B487B0F0
:1055CC0000AFF860B9607A603B60FB681B6A7B6176
:1055DC00FB681B6A23F01002FB681A62FB689B696C
:1055EC003B613B6923F440733B617B681B023A6966
:1055FC0013433B613B6923F470433B613B681B03E2
:10560C009BB23A6913433B617B6923F0A0037B6136
:10561C00BB681B0103F0A0037A6913437B61FB6831
:10562C003A699A61FB687A691A6200BF1C37BD46F9
:10563C0080BC704780B487B000AFF860B9607A6006
:10564C00FB681B6A7B61FB681B6A23F01002FB681A
:10565C001A62FB689B693B613B6923F470433B61B5
:10566C007B681B033A6913433B617B6923F0A003FE
:10567C007B61BB681B017A6913437B61FB683A69E8
:10568C009A61FB687A691A6200BF1C37BD4680BC00
:10569C00704780B487B000AFF860B9607A603B6047
:1056AC00FB681B6A7B61FB681B6A23F48072FB68D6
:1056BC001A62FB68DB693B613B6923F003033B61C6
:1056CC003A697B6813433B613B6923F0F0033B6110
:1056DC003B681B01DBB23A6913433B617B6923F4E2
:1056EC0000737B61BB681B0203F400737A6913437C
:1056FC007B61FB683A69DA61FB687A691A6200BF00
:10570C001C37BD4680BC704780B487B000AFF860D2
:10571C00B9607A603B60FB681B6A7B61FB681B6A43
:10572C0023F48052FB681A62FB68DB693B613B69BE
:10573C0023F440733B617B681B023A6913433B6162
:10574C003B6923F470433B613B681B039BB23A6992
:10575C0013433B617B6923F400537B61BB681B03E0
:10576C0003F400537A6913437B61FB683A69DA618D
:10577C00FB687A691A6200BF1C37BD4680BC704753
:10578C0080B485B000AF786039607B689B68FB6043
:10579C00FB6823F07003FB603A68FB68134343F02B
:1057AC000703FB607B68FA689A6000BF1437BD463C
:1057BC0080BC704780B487B000AFF860B9607A6085
:1057CC003B60FB689B687B617B6923F47F437B6157
:1057DC003B681A027B681A43BB6813437A6913430C
:1057EC007B61FB687A699A6000BF1C37BD4680BC40
:1057FC00704780B487B000AFF860B9607A60BB685E
:10580C0003F01F03012202FA03F37B61FB681A6A9F
:10581C007B69DB431A40FB681A62FB681A6ABB6837
:10582C0003F01F03796801FA03F31A43FB681A6249
:10583C0000BF1C37BD4680BC7047000080B485B0EB
:10584C0000AF786039607B6893F83C30012B01D154
:10585C00022346E07B68012283F83C207B6802220D
:10586C0083F83D207B681B685B68FB607B681B686A
:10587C009B68BB60FB6823F07003FB603B681B6894
:10588C00FA681343FB607B681B68FA685A607B6894
:10589C001B68164A93420ED07B681B68B3F1804F8D
:1058AC0009D07B681B68124A934204D07B681B6842
:1058BC00104A93420CD1BB6823F08003BB603B6859
:1058CC005B68BA681343BB607B681B68BA689A60F4
:1058DC007B68012283F83D207B68002283F83C2002
:1058EC00002318461437BD4680BC7047002C01407D
:1058FC00000400400008004080B485B000AF786020
:10590C0039600023FB607B6893F83C30012B01D19C
:10591C0002233DE07B68012283F83C20FB6823F0E6
:10592C00FF023B68DB681343FB60FB6823F44072A7
:10593C003B689B681343FB60FB6823F480623B6805
:10594C005B681343FB60FB6823F400623B681B68D5
:10595C001343FB60FB6823F480523B681B691343C1
:10596C00FB60FB6823F400523B685B691343FB60EC
:10597C00FB6823F480423B68DB691343FB607B6864
:10598C001B68FA685A647B68002283F83C20002369
:10599C0018461437BD4680BC704780B483B000AF46
:1059AC00786000BF0C37BD4680BC704780B483B0B4
:1059BC0000AF786000BF0C37BD4680BC704700005C
:1059CC0070B500260C4D0D4C641BA410A64209D1D9
:1059DC0000F022F800260A4D0A4C641BA410A642C3
:1059EC0005D170BD55F8043B98470136EEE755F8E4
:1059FC00043B98470136F2E7685A0008685A0008D9
:105A0C00685A00086C5A000803460244934200D1BD
:105A1C00704703F8011BF9E7F8B500BFF8BC08BCE8
:105A2C009E467047F8B500BFF8BC08BC9E46704750
:105A3C000000000000000000010203040607080932
:105A4C000000000001020304020304050607080914
:0C5A5C000A0B0C0D0E0F101001020000D0
:045A68003101000800
:045A6C000D01000820
:0C5A70000024F400100000000100000001
:040000050800234983
:00000001FF
