:020000040800F2
:1000000000500020311A0008711900087719000803
:100010007D190008831900088919000800000000F4
:100020000000000000000000000000008F19000820
:100030009B19000800000000A7190008B319000868
:10004000791A0008791A0008791A0008791A000844
:10005000791A0008791A0008791A0008791A000834
:10006000791A0008791A0008791A0008791A000824
:10007000791A0008791A0008791A0008791A000814
:10008000791A0008791A0008791A0008791A000804
:10009000791A0008791A0008791A0008791A0008F4
:1000A000C1190008D5190008E9190008FD19000850
:1000B000111A0008791A0008791A0008791A00083C
:1000C000791A0008791A0008791A0008791A0008C4
:1000D000791A0008791A0008791A0008791A0008B4
:1000E000791A0008791A0008791A0008000000003F
:1000F0000000000000000000000000000000000000
:0C01000000000000000000005FF808F1A3
:10010C0010B5054C237833B9044B13B10448AFF345
:10011C0000800123237010BD10000020000000009F
:10012C00D83D000808B5034B1BB103490348AFF396
:10013C00008008BD0000000014000020D83D00081D
:10014C0081F0004102E000BF83F0004330B54FEA7C
:10015C0041044FEA430594EA050F08BF90EA020FE9
:10016C001FBF54EA000C55EA020C7FEA645C7FEA7C
:10017C00655C00F0E2804FEA5454D4EB5555B8BF9F
:10018C006D420CDD2C4480EA020281EA030382EA10
:10019C00000083EA010180EA020281EA0303362DA2
:1001AC0088BF30BD11F0004F4FEA01314FF4801C75
:1001BC004CEA113102D0404261EB410113F0004F87
:1001CC004FEA03334CEA133302D0524263EB43033E
:1001DC0094EA050F00F0A780A4F10104D5F1200EDC
:1001EC000DDB02FA0EFC22FA05F2801841F1000137
:1001FC0003FA0EF2801843FA05F359410EE0A5F10B
:10020C0020050EF1200E012A03FA0EFC28BF4CF03B
:10021C00020C43FA05F3C01851EBE37101F00045F1
:10022C0007D54FF0000EDCF1000C7EEB00006EEBFE
:10023C000101B1F5801F1BD3B1F5001F0CD3490888
:10024C005FEA30004FEA3C0C04F101044FEA4452DF
:10025C0012F5800F80F09A80BCF1004F08BF5FEA66
:10026C00500C50F1000041EB045141EA050130BD46
:10027C005FEA4C0C404141EB0101013C28BFB1F558
:10028C00801FE9D291F0000F04BF01460020B1FAA3
:10029C0081F308BF2033A3F10B03B3F120020CDA76
:1002AC000C3208DD02F1140CC2F10C0201FA0CF054
:1002BC0021FA02F10CE002F11402D8BFC2F1200CB9
:1002CC0001FA02F120FA0CFCDCBF41EA0C0190406F
:1002DC00E41AA2BF01EB0451294330BD6FEA0404B8
:1002EC001F3C1CDA0C340EDC04F11404C4F12002A3
:1002FC0020FA04F001FA02F340EA030021FA04F3B5
:10030C0045EA030130BDC4F10C04C4F1200220FA0B
:10031C0002F001FA04F340EA0300294630BD21FA49
:10032C0004F0294630BD94F0000F83F4801306BF0F
:10033C0081F480110134013D4EE77FEA645C18BF03
:10034C007FEA655C29D094EA050F08BF90EA020F9A
:10035C0005D054EA000C04BF1946104630BD91EA92
:10036C00030F1EBF0021002030BD5FEA545C05D195
:10037C004000494128BF41F0004130BD14F58004D4
:10038C003CBF01F5801130BD01F0004545F0FE4148
:10039C0041F470014FF0000030BD7FEA645C1ABF7D
:1003AC00194610467FEA655C1CBF0B46024650EAB4
:1003BC00013406BF52EA033591EA030F41F40021E0
:1003CC0030BD00BF90F0000F04BF0021704730B566
:1003DC004FF4806404F132044FF000054FF000013B
:1003EC0050E700BF90F0000F04BF0021704730B5FC
:1003FC004FF4806404F1320410F0004548BF4042D1
:10040C004FF000013EE700BF42004FEAE2014FEA25
:10041C0031014FEA02701FBF12F07F4393F07F4F00
:10042C0081F06051704732F07F4208BF704793F003
:10043C007F4F04BF41F40021704730B54FF4607416
:10044C0001F0004521F000411CE700BF50EA010219
:10045C0008BF704730B54FF000050AE050EA0102C2
:10046C0008BF704730B511F0004502D5404261EB32
:10047C0041014FF4806404F132045FEA915C3FF473
:10048C00D8AE4FF003025FEADC0C18BF03325FEA10
:10049C00DC0C18BF033202EBDC02C2F1200300FAC1
:1004AC0003FC20FA02F001FA03FE40EA0E0021FAE6
:1004BC0002F11444BDE600BF70B54FF0FF0C4CF4D4
:1004CC00E06C1CEA11541DBF1CEA135594EA0C0F86
:1004DC0095EA0C0F00F0DEF82C4481EA030621EAC1
:1004EC004C5123EA4C5350EA013518BF52EA0335FC
:1004FC0041F4801143F4801338D0A0FB02CE4FF0AE
:10050C000005E1FB02E506F00042E0FB03E54FF0DD
:10051C000006E1FB03569CF0000F18BF4EF0010ED5
:10052C00A4F1FF04B6F5007F64F5407404D25FEAD1
:10053C004E0E6D4146EB060642EAC62141EA555184
:10054C004FEAC52040EA5E504FEACE2EB4F1FD0CC6
:10055C0088BFBCF5E06F1ED8BEF1004F08BF5FEA44
:10056C00500E50F1000041EB045170BD06F00046F6
:10057C0046EA010140EA020081EA0301B4EB5C04A3
:10058C00C2BFD4EB0C0541EA045170BD41F480119B
:10059C004FF0000E013C00F3AB8014F1360FDEBFC0
:1005AC00002001F0004170BDC4F10004203C35DA9C
:1005BC000C341BDC04F11404C4F1200500FA05F31F
:1005CC0020FA04F001FA05F240EA020001F00042C0
:1005DC0021F0004110EBD37021FA04F642EB060136
:1005EC005EEA430E08BF20EAD37070BDC4F10C0460
:1005FC00C4F1200500FA04F320FA05F001FA04F224
:10060C0040EA020001F0004110EBD37041F100010F
:10061C005EEA430E08BF20EAD37070BDC4F120051A
:10062C0000FA05F24EEA020E20FA04F301FA05F282
:10063C0043EA020321FA04F001F0004121FA04F22A
:10064C0020EA020000EBD3705EEA430E08BF20EAFA
:10065C00D37070BD94F0000F0FD101F00046400034
:10066C0041EB010111F4801F08BF013CF7D041EAB6
:10067C00060195F0000F18BF704703F000465200BA
:10068C0043EB030313F4801F08BF013DF7D043EA8B
:10069C000603704794EA0C0F0CEA135518BF95EA41
:1006AC000C0F0CD050EA410618BF52EA4306D1D1C8
:1006BC0081EA030101F000414FF0000070BD50EAE7
:1006CC00410606BF1046194652EA430619D094EA71
:1006DC000C0F02D150EA013613D195EA0C0F05D15B
:1006EC0052EA03361CBF104619460AD181EA0301AF
:1006FC0001F0004141F0FE4141F470014FF0000067
:10070C0070BD41F0FE4141F4780170BD70B54FF001
:10071C00FF0C4CF4E06C1CEA11541DBF1CEA135581
:10072C0094EA0C0F95EA0C0F00F0A7F8A4EB050463
:10073C0081EA030E52EA03354FEA013100F088805A
:10074C004FEA03334FF0805545EA131343EA126323
:10075C004FEA022245EA111545EA10654FEA0026D8
:10076C000EF000419D4208BF964244F1FD0404F591
:10077C00407402D25B084FEA3202B61A65EB0305ED
:10078C005B084FEA32024FF480104FF4002CB6EBAA
:10079C00020E75EB030E22BFB61A754640EA0C002A
:1007AC005B084FEA3202B6EB020E75EB030E22BF6A
:1007BC00B61A754640EA5C005B084FEA3202B6EBAB
:1007CC00020E75EB030E22BFB61A754640EA9C006A
:1007DC005B084FEA3202B6EB020E75EB030E22BF3A
:1007EC00B61A754640EADC0055EA060E18D04FEAF8
:1007FC00051545EA16754FEA06164FEAC30343EA98
:10080C0052734FEAC2025FEA1C1CC0D111F4801F64
:10081C000BD141EA00014FF000004FF0004CB6E75D
:10082C0011F4801F04BF01430020B4F1FD0C88BFFC
:10083C00BCF5E06F3FF6AFAEB5EB030C04BFB6EB07
:10084C00020C5FEA500C50F1000041EB045170BDFA
:10085C000EF0004E4EEA113114EB5C04C2BFD4EB27
:10086C000C0541EA045170BD41F480114FF0000EAB
:10087C00013C90E645EA060E8DE60CEA135594EA27
:10088C000C0F08BF95EA0C0F3FF43BAF94EA0C0F2A
:10089C000AD150EA01347FF434AF95EA0C0F7FF49F
:1008AC0025AF104619462CE795EA0C0F06D152EAF3
:1008BC0003353FF4FDAE1046194622E750EA4106D7
:1008CC0018BF52EA43067FF4C5AE50EA41047FF4E8
:1008DC000DAF52EA43057FF4EBAE12E74FEA41024B
:1008EC00B2F1E04324BFB3F5001CDCF1FE5C0DD982
:1008FC0001F0004C4FEAC0024CEA5070B2F1004FCC
:10090C0040EB830008BF20F00100704711F0804FCE
:10091C0021D113F13872BCBF01F00040704741F493
:10092C0080114FEA5252C2F11802C2F1200C10FA97
:10093C000CF320FA02F018BF40F001004FEAC1237B
:10094C004FEAD32303FA0CFC40EA0C0023FA02F31F
:10095C004FEA4303CCE77FEA625307D150EA0133F5
:10096C001EBF4FF0FE4040F44000704701F00040C5
:10097C0040F0FE4040F40000704700BF80F00040A3
:10098C0002E000BF81F0004142001FBF5FEA41035B
:10099C0092EA030F7FEA226C7FEA236C6AD04FEA5B
:1009AC001262D2EB1363C1BFD218414048404140A0
:1009BC00B8BF5B42192B88BF704710F0004F40F452
:1009CC00000020F07F4018BF404211F0004F41F46E
:1009DC00000121F07F4118BF494292EA030F3FD03A
:1009EC00A2F1010241FA03FC10EB0C00C3F120034D
:1009FC0001FA03F100F0004302D5494260EB4000DC
:100A0C00B0F5000F13D3B0F1807F06D340084FEA46
:100A1C00310102F10102FE2A51D2B1F1004F40EB3B
:100A2C00C25008BF20F0010040EA030070474900A3
:100A3C0040EB0000013A28BFB0F5000FEDD2B0FA40
:100A4C0080FCACF1080CB2EB0C0200FA0CF0AABF63
:100A5C0000EBC25052421843BCBFD0401843704701
:100A6C0092F0000F81F4000106BF80F40000013207
:100A7C00013BB5E74FEA41037FEA226C18BF7FEADE
:100A8C00236C21D092EA030F04D092F0000F08BF20
:100A9C000846704790EA010F1CBF0020704712F007
:100AAC007F4F04D1400028BF40F00040704712F146
:100ABC0000723CBF00F50000704700F0004343F0AB
:100ACC00FE4040F4000070477FEA226216BF0846E1
:100ADC007FEA23630146420206BF5FEA412390EAA4
:100AEC00010F40F4800070474FF0000304E000BF9A
:100AFC0010F0004348BF40425FEA000C08BF70474B
:100B0C0043F0964301464FF000001CE050EA01020E
:100B1C0008BF70474FF000030AE000BF50EA010223
:100B2C0008BF704711F0004302D5404261EB410110
:100B3C005FEA010C02BF84460146002043F0B64335
:100B4C0008BFA3F18053A3F50003BCFA8CF2083A5A
:100B5C00A3EBC25310DB01FA02FC634400FA02FC63
:100B6C00C2F12002BCF1004F20FA02F243EB02006A
:100B7C0008BF20F00100704702F1200201FA02FCCC
:100B8C00C2F1200250EA4C0021FA02F243EB0200BF
:100B9C0008BF20EADC7070474FEA4002B2F1FE4F0A
:100BAC000FD34FF09E03B3EB12620DD94FEA002323
:100BBC0043F0004310F0004F23FA02F018BF4042FC
:100BCC0070474FF00000704712F1610F01D14202E3
:100BDC0005D110F0004008BF6FF0004070474FF097
:100BEC000000704780B485B000AFF860B9607A60DF
:100BFC003B60FA68BB68D31AB9693A688A1A03FB76
:100C0C0002F27968BB68CB1A92FBF3F23B6813448F
:100C1C0018461437BD4680BC704700002DE9B00F54
:100C2C0095B000AFF864FB6C1B68B3F1804F40F0DB
:100C3C009281FB6C1B7F013B072B00F28E8101A282
:100C4C0052F823F0710C0008250D0008670F0008FE
:100C5C00D30D0008670F0008670F0008670F000826
:100C6C00810E00084FF080431B6A03F00203002B37
:100C7C0013D14FF080435B6B00223B647A648B4B47
:100C8C00D7E91012C3E900124FF080431B6A4FF0F2
:100C9C00804243F00203136260E14FF080435B6BD0
:100CAC000022BB63FA63824BD7E90E12C3E9001230
:100CBC007F4BD3E900017D4BD3E90023841A3C63BD
:100CCC0061EB03037B637B4BD7E90C12C3E9001286
:100CDC00784BD3E90023774BD3E9002340F2DA7148
:100CEC008A4273F100030ED2724BD3E9002340F217
:100CFC00DF318A4273F1000305D36E4BD3E9002335
:100D0C006D49C1E900234FF080431B6A4FF08042CC
:100D1C0023F00203136221E14FF080431B6A03F0BE
:100D2C002003002B13D14FF080439B6B0022BB623E
:100D3C00FA62624BD7E90A12C3E900124FF0804302
:100D4C001B6A4FF0804243F02003136206E14FF020
:100D5C0080439B6B00223B627A62594BD7E90812A5
:100D6C00C3E90012564BD3E90001544BD3E90023DD
:100D7C00B0EB020A61EB030B524BC3E900AB514BD6
:100D8C00D3E900234F4BD3E9002340F2DA718A42B6
:100D9C0073F100030ED24B4BD3E9002340F2DF3149
:100DAC008A4273F1000305D3464BD3E9002346492D
:100DBC00C1E900234FF080431B6A4FF0804223F0BF
:100DCC0020031362CAE04FF080431B6A03F40073E4
:100DDC00002B13D14FF08043DB6B0022BB61FA6117
:100DEC003A4BD7E90612C3E900124FF080431B6A55
:100DFC004FF0804243F400731362AFE04FF0804336
:100E0C00DB6B00223B617A61314BD7E90412C3E9F9
:100E1C0000122F4BD3E900012C4BD3E90023B0EB8C
:100E2C00020861EB03092B4BC3E90089294BD3E979
:100E3C000023284BD3E9002340F2DA718A4273F184
:100E4C0000030ED2234BD3E9002340F2DF318A4258
:100E5C0073F1000305D31F4BD3E900231E49C1E9ED
:100E6C0000234FF080431B6A4FF0804223F4007341
:100E7C00136273E04FF080431B6A03F40053002BA2
:100E8C002ED14FF080431B6C0022BB60FA60134BD9
:100E9C00D7E90212C3E900124FF080431B6A4FF0EE
:100EAC00804243F40053136258E000BFC00000209E
:100EBC00C8000020D8000020D0000020E000002056
:100ECC00E8000020F8000020F000002000010020C5
:100EDC000801002018010020100100202001002032
:100EEC004FF080431B6C00223B607A601E4BD7E9AD
:100EFC000012C3E900121C4BD3E900011B4BD3E9D0
:100F0C000023841A61EB0305194BC3E90045184B08
:100F1C00D3E90023164BD3E9002340F2DA718A425D
:100F2C0073F100030ED2124BD3E9002340F2DF31F0
:100F3C008A4273F1000305D30D4BD3E900230D490D
:100F4C00C1E900234FF080431B6A4FF0804223F429
:100F5C000053136202E000BF00E000BF00BF543733
:100F6C00BD46BDE8B00F70472801002020010020CD
:100F7C003801002030010020B0B582B002AF00F083
:100F8C0077FD00F049FA00F0CBFB00F08BFA00F093
:100F9C0037FB0021A84801F01BFE0421A64801F0F4
:100FAC0017FE0821A44801F013FE0C21A24801F001
:100FBC000FFE0021A14801F011FD04219F4801F012
:100FCC000DFD9F4BD3E9002340F2DD518A4273F1B2
:100FDC00000312D29B4B40F26C721A609A4B40F297
:100FEC00DC521A60994B40F24C421A60984B10221A
:100FFC001A60984B64221A6011E0924B40F26C72AA
:10100C001A60914B40F2A4621A60904B40F2DC5291
:10101C001A608F4B20221A608E4B64221A608E4B02
:10102C001B681846FFF7F0F94FF000028B4BFFF7E7
:10103C006DFB02460B4614461D46874B1B68184633
:10104C00FFF7E2F922462B46FFF77EF802460B46E5
:10105C0010461946FFF742FC03467F4A1360804B4B
:10106C00D3E9002310461946FFF7F0F94FF00002C0
:10107C007A4BFFF74BFB02460B4614461D46764B4C
:10108C001B681846FFF7C0F902460B462046294656
:10109C00FFF75CF802460B4610461946FFF71EFC9C
:1010AC0003466D4A13606F4B1B681846FFF7ACF98B
:1010BC004FF00002694BFFF729FB02460B46144622
:1010CC001D46684B1B681846FFF79EF922462B46B7
:1010DC00FFF73AF802460B4610461946FFF7FEFB9F
:1010EC000346604A1360604BD3E90023104619464F
:1010FC00FFF7ACF94FF00002584BFFF707FB024625
:10110C000B4614461D46574B1B681846FFF77CF9D7
:10111C0002460B4620462946FFF718F802460B46B6
:10112C0010461946FFF7DAFB03464E4A13604A4B4A
:10113C001B684E491846FFF725FC03461A46494BD7
:10114C001B6819461046FFF71FFC03461846FFF7AD
:10115C0023FD0346464A13603D4B1B68002B00DA07
:10116C0003339B105B421A46374B1B681A44404BA7
:10117C001B689A4205DD012220213E4800F090FFB9
:10118C0004E0002220213B4800F08AFF384B1A680B
:10119C002D4B1B68D31A83EAE372A2EBE3722C4B40
:1011AC001B689A4203DA284B1B68314A1360254BA3
:1011BC001A68274B1B68D21A2D4B1B689A4204DA0B
:1011CC00204B1B682A4A13600CE0204B1A68204BFA
:1011DC001B681A44264B1B689A4203DD1B4B1B6889
:1011EC00234A13601F4B1C681B4B1B681F49184676
:1011FC00FFF7C8FB034619462046FFF7C3FB03461F
:10120C001846FFF7C9FC03461B4A1360104B1B68BA
:10121C00002B00DA03339B105B421A460A4B1B6807
:10122C001A44154B1B689A4228DD012210211148E3
:10123C0000F036FF27E000BF740000202C000020D7
:10124C001001002044010020480100204C01002026
:10125C0040010020500100205C01002000003440BF
:10126C00D000002060010020F00000200080BB4472
:10127C0054010020000801405801002000221021D8
:10128C005A4800F00DFF5A4B1A685A4B1B68D31A78
:10129C0083EAE372A2EBE372574B1B689A4203DAC0
:1012AC00544B1B68524A1360544B1A68524B1B68C0
:1012BC00D21A4F4B1B689A4204DA504B1B684C4AAB
:1012CC0013600CE04E4B1A684B4B1B681A44484B8E
:1012DC001B689A4203DD4A4B1B68454A1360494B15
:1012EC001A68444B1B689A420BD1414B1A68414B0C
:1012FC001B689A4205D1012240213C4800F0D0FEE7
:10130C0004E000224021394800F0CAFE3E4BD3E9EC
:10131C00002340F2DC518A4273F1000304D3012212
:10132C004021324800F0BCFE364B1A68314B1B682A
:10133C009A420FDB334B18682E4B19682F4B1A68E7
:10134C004FF47A7300930023FFF74CFC03462F4AAB
:10135C00136013E02B4B1868294B1968254B1A683E
:10136C004FF47A7300930023FFF73CFC0346A3F57C
:10137C007A73002BB8BF5B42244A13601C4B1A686B
:10138C001C4B1B689A420FDB194B1868194B1968D8
:10139C001A4B1A684FF47A7300930023FFF722FC60
:1013AC0003461B4A136013E0114B1868144B196861
:1013BC00104B1A684FF47A7300930023FFF712FC5A
:1013CC000346A3F57A73002BB8BF5B42104A136037
:1013DC000E4B1A680F4B1B685A630D4B1A680D4B5A
:1013EC001B689A63142000F0A5FBEAE50008014095
:1013FC005801002048010020400100204401002039
:10140C004C01002054010020300100206401002018
:10141C00680100202C00002080B590B000AF07F1CF
:10142C00180328220021184602F0C8FC3B1D00229C
:10143C001A605A609A60DA601A610123BB614FF43A
:10144C008033FB6100233B620123BB6202237B637D
:10145C004FF48033BB634FF4E013FB6307F11803C5
:10146C00184600F035FE0346002B01D000F096F92B
:10147C000F237B600223BB600023FB604FF480636F
:10148C003B6100237B613B1D0221184601F0A2F851
:10149C000346002B01D000F081F900BF4037BD4658
:1014AC0080BD000080B596B000AF07F14803002264
:1014BC001A605A609A60DA6007F1400300221A60E1
:1014CC005A6007F1240300221A605A609A60DA60AD
:1014DC001A615A619A613B1D20220021184602F0C4
:1014EC006DFC454B454A1A60434B40F23F225A6013
:1014FC00414B00229A60404B40F2E732DA603E4B9F
:10150C0000221A613C4B00225A613B4B00229A612B
:10151C00394801F0BBF90346002B01D000F03EF92D
:10152C004FF48053BB6407F148031946324801F06D
:10153C00C1FE0346002B01D000F030F92E4801F01B
:10154C00F4F90346002B01D000F028F900233B648A
:10155C0000237B6407F140031946274802F048FB3F
:10156C000346002B01D000F019F960237B620023A5
:10157C00BB620023FB6200233B6300237B630023DD
:10158C00BB630023FB6307F12403002219461A48AE
:10159C0001F0CEFD0346002B01D000F0FFF807F15F
:1015AC00240304221946144801F0C2FD0346002B03
:1015BC0001D000F0F3F800237B600023BB60002314
:1015CC00FB6000233B6100237B614FF40053BB6144
:1015DC0000233B623B1D1946074802F067FB03469C
:1015EC00002B01D000F0DAF8034800F087F900BFB7
:1015FC005837BD4680BD00BF2C000020002C014098
:10160C0080B58AB000AF07F1180300221A605A6047
:10161C009A60DA6007F1100300221A605A603B46A8
:10162C0000221A605A609A60DA603C4B4FF080429C
:10163C001A603A4B47225A60384B00229A60374B5B
:10164C004FF6FF72DA60354B00221A61334B0022E1
:10165C009A61324801F01AF90346002B01D000F0D0
:10166C009DF84FF48053BB6107F1180319462B48C2
:10167C0001F020FE0346002B01D000F08FF8274824
:10168C0001F04EFA0346002B01D000F087F800233E
:10169C003B6100237B6107F1100319461F4802F0E0
:1016AC00A7FA0346002B01D000F078F800233B602A
:1016BC0001237B600023BB600023FB603B460022C0
:1016CC001946164801F098FC0346002B01D000F097
:1016DC0065F83B4604221946104801F08DFC034680
:1016EC00002B01D000F05AF83B46082219460B4853
:1016FC0001F082FC0346002B01D000F04FF83B4672
:10170C000C221946054801F077FC0346002B01D04A
:10171C0000F044F800BF2837BD4680BD740000209F
:10172C0080B586B000AF07F1080300221A605A603A
:10173C009A60DA60174B9B69164A43F02003936159
:10174C00144B9B6903F020037B607B68114B9B69F6
:10175C00104A43F0040393610E4B9B6903F004039E
:10176C003B603B680022F0210B4800F099FCF02311
:10177C00BB600123FB6000233B6102237B6107F10B
:10178C0008031946044800F007FB00BF1837BD4694
:10179C0080BD00BF001002400008014080B400AFC3
:1017AC0072B600BFFEE7000080B485B000AF154BE9
:1017BC009B69144A43F001039361124B9B6903F03C
:1017CC000103BB60BB680F4BDB690E4A43F08053CF
:1017DC00D3610C4BDB6903F080537B607B680A4B55
:1017EC005B68FB60FB6823F0E063FB60FB6843F025
:1017FC000073FB60044AFB68536000BF1437BD469E
:10180C0080BC7047001002400000014080B58AB0D7
:10181C0000AF786007F1180300221A605A609A60D2
:10182C00DA607B681B68324A93422CD1314B9B693E
:10183C00304A43F4006393612E4B9B6903F40063BD
:10184C007B617B6900220021182000F06EFA1820C1
:10185C0000F087FA00220021192000F066FA192006
:10186C0000F07FFA002200211A2000F05EFA1A2004
:10187C0000F077FA002200211B2000F056FA1B2002
:10188C0000F06FFA30E07B681B68B3F1804F2BD10E
:10189C00184BDB69174A43F00103D361154BDB6925
:1018AC0003F001033B613B69124B9B69114A43F006
:1018BC00040393610F4B9B6903F00403FB60FB680B
:1018CC000F23BB610023FB6100233B6207F118036C
:1018DC001946094800F060FA002200211C2000F093
:1018EC0024FA1C2000F03DFA00BF2837BD4680BD0D
:1018FC00002C0140001002400008014080B588B067
:10190C0000AF786007F1100300221A605A609A60E9
:10191C00DA607B681B68104A934218D10F4B9B69A5
:10192C000E4A43F0040393610C4B9B6903F00403D0
:10193C00FB60FB684FF440733B6102237B61022325
:10194C00FB6107F110031946054800F025FA00BFAA
:10195C002037BD4680BD00BF002C01400010024066
:10196C000008014080B400AFFEE780B400AFFEE792
:10197C0080B400AFFEE780B400AFFEE780B400AFE8
:10198C00FEE780B400AF00BFBD4680BC704780B49A
:10199C0000AF00BFBD4680BC704780B400AF00BF35
:1019AC00BD4680BC704780B500AF00F0A7F800BF03
:1019BC0080BD000080B500AF024801F015FA00BFF1
:1019CC0080BD00BF2C00002080B500AF024801F0A4
:1019DC000BFA00BF80BD00BF2C00002080B500AF0B
:1019EC00024801F001FA00BF80BD00BF2C000020AE
:1019FC0080B500AF024801F0F7F900BF80BD00BF11
:101A0C002C00002080B500AF024801F0EDF900BFBA
:101A1C0080BD00BF7400002080B400AF00BFBD4685
:101A2C0080BC7047FFF7F8FF0B480C490C4A0023A9
:101A3C0002E0D458C4500433C4188C42F9D3094A78
:101A4C00094C002301E013600432A242FBD302F0E4
:101A5C0091F9FFF791FA7047000000200C0000206C
:101A6C001C3E00081000002070010020FEE7000062
:101A7C0080B500AF084B1B68074A43F01003136096
:101A8C00032000F047F90F2000F008F8FFF78CFE58
:101A9C000023184680BD00BF0020024080B582B0F4
:101AAC0000AF7860124B1A68124B1B7819464FF432
:101ABC007A73B3FBF1F3B2FBF3F3184600F05FF962
:101ACC000346002B01D001230EE07B680F2B0AD8B4
:101ADC00002279684FF0FF3000F027F9064A7B6846
:101AEC001360002300E0012318460837BD4680BD73
:101AFC0000000020080000200400002080B400AF8B
:101B0C00054B1B781A46054B1B681344034A13609C
:101B1C0000BFBD4680BC7047080000206C0100204F
:101B2C0080B400AF024B1B681846BD4680BC7047A2
:101B3C006C01002080B584B000AF7860FFF7F0FF37
:101B4C00B8607B68FB60FB68B3F1FF3F05D00A4BC4
:101B5C001B781A46FB681344FB6000BFFFF7E0FFDD
:101B6C000246BB68D31AFA689A42F7D800BF00BF86
:101B7C001037BD4680BD00BF0800002080B485B082
:101B8C0000AF78607B6803F00703FB600C4BDB68ED
:101B9C00BB60BA684FF6FF031340BB60FB681A02C8
:101BAC00BB68134343F0BF6343F40033BB60044A88
:101BBC00BB68D36000BF1437BD4680BC704700BF04
:101BCC0000ED00E080B400AF044BDB681B0A03F0AF
:101BDC0007031846BD4680BC704700BF00ED00E00F
:101BEC0080B483B000AF0346FB7197F90730002B2C
:101BFC000BDBFB7903F01F02064997F907305B09F1
:101C0C00012000FA02F241F8232000BF0C37BD4638
:101C1C0080BC704700E100E080B483B000AF0346A5
:101C2C003960FB7197F90730002B0ADB3B68DAB29D
:101C3C000C4997F907301201D2B20B4483F80023F8
:101C4C000AE03B68DAB20849FB7903F00F03043B66
:101C5C001201D2B20B441A7600BF0C37BD4680BCC1
:101C6C00704700BF00E100E000ED00E080B489B0F7
:101C7C0000AFF860B9607A60FB6803F00703FB61A2
:101C8C00FB69C3F10703042B28BF0423BB61FB6969
:101C9C000433062B02D9FB69033B00E000237B6174
:101CAC004FF0FF32BB6902FA03F3DA43BB681A4008
:101CBC007B699A404FF0FF317B6901FA03F3D943FA
:101CCC007B680B40134318462437BD4680BC7047D5
:101CDC0080B582B000AF78607B68013BB3F1807F48
:101CEC0001D301230FE00A4A7B68013B53600F21AB
:101CFC004FF0FF30FFF790FF054B00229A60044B2A
:101D0C0007221A60002318460837BD4680BD00BF65
:101D1C0010E000E080B582B000AF78607868FFF723
:101D2C002DFF00BF0837BD4680BD80B586B000AF23
:101D3C000346B9607A60FB7300237B61FFF742FFB7
:101D4C0078617A68B9687869FFF790FF024697F96D
:101D5C000F3011461846FFF75FFF00BF1837BD461E
:101D6C0080BD80B582B000AF0346FB7197F9073098
:101D7C001846FFF735FF00BF0837BD4680BD80B55C
:101D8C0082B000AF78607868FFF7A2FF0346184670
:101D9C000837BD4680BD000080B48BB000AF7860C2
:101DAC00396000237B6200233B6269E101227B6A7C
:101DBC0002FA03F3FB613B681B68FA691340BB61D1
:101DCC00BA69FB699A4240F058813B685B689A4A51
:101DDC0093425ED0984A934275D8984A934258D011
:101DEC00964A93426FD8964A934252D0944A934261
:101DFC0069D8944A93424CD0924A934263D8924AFF
:101E0C00934246D0904A93425DD8122B2AD8122B7B
:101E1C0059D801A252F823F09F1E0008791E000821
:101E2C008B1E0008CD1E0008D31E0008D31E000810
:101E3C00D31E0008D31E0008D31E0008D31E0008B2
:101E4C00D31E0008D31E0008D31E0008D31E0008A2
:101E5C00D31E0008D31E0008D31E0008811E0008E4
:101E6C00951E0008794A934213D02CE03B68DB683E
:101E7C003B6229E03B68DB6804333B6224E03B684F
:101E8C00DB6808333B621FE03B68DB680C333B626A
:101E9C001AE03B689B68002B02D104233B6213E0E1
:101EAC003B689B68012B05D108233B627B68FA6970
:101EBC001A6109E008233B627B68FA695A6103E006
:101ECC0000233B6200E000BFBB69FF2B01D87B689D
:101EDC0001E07B6804337B61BB69FF2B02D87B6A12
:101EEC009B0002E07B6A083B9B003B617B691A68A4
:101EFC000F213B6901FA03F3DB431A40396A3B6952
:101F0C0001FA03F31A437B691A603B685B6803F0C0
:101F1C008053002B00F0B1804D4B9B694C4A43F031
:101F2C00010393614A4B9B6903F00103BB60BB68DF
:101F3C00484A7B6A9B08023352F82330FB607B6A69
:101F4C0003F003039B000F2202FA03F3DB43FA684E
:101F5C001340FB607B68404A934213D07B683F4A36
:101F6C0093420DD07B683E4A934207D07B683D4A32
:101F7C00934201D1032306E0042304E0022302E090
:101F8C00012300E000237A6A02F0030292009340DE
:101F9C00FA681343FB602F497B6A9B080233FA688B
:101FAC0041F823203B685B6803F48013002B06D0B8
:101FBC002D4B9A682C49BB6913438B6006E02A4B66
:101FCC009A68BB69DB43284913408B603B685B68AC
:101FDC0003F40013002B06D0234BDA682249BB69AB
:101FEC001343CB6006E0204BDA68BB69DB431E4928
:101FFC001340CB603B685B6803F40033002B06D0C6
:10200C00194B5A681849BB6913434B6006E0164BD1
:10201C005A68BB69DB43144913404B603B685B68EF
:10202C0003F48033002B21D00F4B1A680E49BB6987
:10203C0013430B6021E000BF000032100000311090
:10204C0000002210000021100000121000001110DE
:10205C00001002400000014000080140000C01404B
:10206C000010014000140140000401400B4B1A68A1
:10207C00BB69DB43094913400B607B6A01337B620C
:10208C003B681A687B6A22FA03F3002B7FF48EAE4E
:10209C0000BF00BF2C37BD4680BC70470004014018
:1020AC0080B483B000AF78600B467B8013467B70A6
:1020BC007B78002B03D07A887B681A6103E07B88DD
:1020CC001A047B681A6100BF0C37BD4680BC704790
:1020DC0080B586B000AF78607B68002B01D10123FE
:1020EC0072E27B681B6803F00103002B00F0878011
:1020FC00924B5B6803F00C03042B0CD08F4B5B688A
:10210C0003F00C03082B12D18C4B5B6803F4803367
:10211C00B3F5803F0BD1894B1B6803F40033002BC4
:10212C006CD07B685B68002B68D101234CE27B6828
:10213C005B68B3F5803F06D1804B1B687F4A43F444
:10214C00803313602EE07B685B68002B0CD17B4BDB
:10215C001B687A4A23F480331360784B1B68774AE8
:10216C0023F4802313601DE07B685B68B3F5A02F1C
:10217C000CD1724B1B68714A43F4802313606F4B74
:10218C001B686E4A43F4803313600BE06B4B1B6887
:10219C006A4A23F480331360684B1B68674A23F444
:1021AC00802313607B685B68002B13D0FFF7B8FCAF
:1021BC00386108E0FFF7B4FC02463B69D31A642B84
:1021CC0001D9032300E25D4B1B6803F40033002BA1
:1021DC00F0D014E0FFF7A4FC386108E0FFF7A0FC96
:1021EC0002463B69D31A642B01D90323ECE1534B10
:1021FC001B6803F40033002BF0D100E000BF7B68B8
:10220C001B6803F00203002B63D04C4B5B6803F09C
:10221C000C03002B0BD0494B5B6803F00C03082B11
:10222C001CD1464B5B6803F48033002B16D1434B17
:10223C001B6803F00203002B05D07B681B69012B84
:10224C0001D00123C0E13D4B1B6823F0F8027B68F1
:10225C005B69DB00394913430B603AE07B681B690F
:10226C00002B20D0364B01221A60FFF759FC386145
:10227C0008E0FFF755FC02463B69D31A022B01D943
:10228C000323A1E12D4B1B6803F00203002BF0D0BC
:10229C002A4B1B6823F0F8027B685B69DB0027493B
:1022AC0013430B6015E0264B00221A60FFF738FC35
:1022BC00386108E0FFF734FC02463B69D31A022B65
:1022CC0001D9032380E11D4B1B6803F00203002B93
:1022DC00F0D17B681B6803F00803002B3AD07B68B5
:1022EC009B69002B19D0174B01221A60FFF718FCC1
:1022FC00386108E0FFF714FC02463B69D31A022B45
:10230C0001D9032360E10D4B5B6A03F00203002B40
:10231C00F0D0012000F09CFA1CE00A4B00221A605D
:10232C00FFF7FEFB38610FE0FFF7FAFB02463B6953
:10233C00D31A022B08D9032346E100BF0010024038
:10234C000000424280044242924B5B6A03F002035B
:10235C00002BE9D17B681B6803F00403002B00F011
:10236C00A6800023FB758B4BDB6903F08053002B9D
:10237C000DD1884BDB69874A43F08053D361854B81
:10238C00DB6903F08053BB60BB680123FB75824B98
:10239C001B6803F48073002B18D17F4B1B687E4A9B
:1023AC0043F480731360FFF7BBFB386108E0FFF761
:1023BC00B7FB02463B69D31A642B01D9032303E113
:1023CC00754B1B6803F48073002BF0D07B68DB68C3
:1023DC00012B06D16F4B1B6A6E4A43F0010313624B
:1023EC002DE07B68DB68002B0CD16A4B1B6A694AB9
:1023FC0023F001031362674B1B6A664A23F0040344
:10240C0013621CE07B68DB68052B0CD1614B1B6AEB
:10241C00604A43F0040313625E4B1B6A5D4A43F04F
:10242C00010313620BE05B4B1B6A5A4A23F0010356
:10243C001362584B1B6A574A23F0040313627B68E0
:10244C00DB68002B15D0FFF76BFB38610AE0FFF758
:10245C0067FB02463B69D31A41F28832934201D999
:10246C000323B1E04B4B1B6A03F00203002BEED0AD
:10247C0014E0FFF755FB38610AE0FFF751FB024609
:10248C003B69D31A41F28832934201D903239BE072
:10249C00404B1B6A03F00203002BEED1FB7D012B9A
:1024AC0005D13C4BDB693B4A23F08053D3617B68FD
:1024BC00DB69002B00F08780364B5B6803F00C0364
:1024CC00082B61D07B68DB69022B46D1334B002291
:1024DC001A60FFF725FB386108E0FFF721FB024685
:1024EC003B69D31A022B01D903236DE0294B1B68DE
:1024FC0003F00073002BF0D17B681B6AB3F5803FAF
:10250C0008D1244B5B6823F400327B689B6821491B
:10251C0013434B601F4B5B6823F474127B68196A7E
:10252C007B685B6A0B431B4913434B601B4B0122BB
:10253C001A60FFF7F5FA386108E0FFF7F1FA024686
:10254C003B69D31A022B01D903233DE0114B1B68C5
:10255C0003F00073002BF0D035E0104B00221A6012
:10256C00FFF7DEFA386108E0FFF7DAFA02463B695A
:10257C00D31A022B01D9032326E0064B1B6803F068
:10258C000073002BF0D11EE07B68DB69012B07D1B7
:10259C00012319E00010024000700040600042422C
:1025AC000B4B5B68FB60FB6803F480327B681B6A37
:1025BC009A4206D1FB6803F470127B685B6A9A42FC
:1025CC0001D0012300E0002318461837BD4680BD1A
:1025DC000010024080B584B000AF786039607B6831
:1025EC00002B01D10123D0E06A4B1B6803F00703D9
:1025FC003A689A4210D9674B1B6823F00702654969
:10260C003B6813430B60634B1B6803F007033A688A
:10261C009A4201D00123B8E07B681B6803F00203E7
:10262C00002B20D07B681B6803F00403002B05D023
:10263C00594B5B68584A43F4E06353607B681B68F2
:10264C0003F00803002B05D0534B5B68524A43F44C
:10265C0060535360504B5B6823F0F0027B689B68BF
:10266C004D4913434B607B681B6803F00103002B3F
:10267C0040D07B685B68012B07D1474B1B6803F488
:10268C000033002B15D101237FE07B685B68022BA4
:10269C0007D1414B1B6803F00073002B09D10123B8
:1026AC0073E03D4B1B6803F00203002B01D10123A7
:1026BC006BE0394B5B6823F003027B685B6836493F
:1026CC0013434B60FFF72CFAF8600AE0FFF728FA87
:1026DC000246FB68D31A41F28832934201D9032394
:1026EC0053E02D4B5B6803F00C027B685B689B002E
:1026FC009A42EBD1274B1B6803F007033A689A42C6
:10270C0010D2244B1B6823F0070222493B68134369
:10271C000B60204B1B6803F007033A689A4201D008
:10272C00012332E07B681B6803F00403002B08D004
:10273C00194B5B6823F4E0627B68DB681649134332
:10274C004B607B681B6803F00803002B09D0124B0D
:10275C005B6823F460527B681B69DB000E491343F2
:10276C004B6000F021F802460B4B5B681B0903F031
:10277C000F030A49CB5C22FA03F3094A1360094B95
:10278C001B681846FFF78AF9002318461037BD4618
:10279C0080BD00BF0020024000100240F03D000848
:1027AC00000000200400002080B487B000AF00239C
:1027BC00FB600023BB6000237B6100237B60002354
:1027CC003B611E4B5B68FB60FB6803F00C03042B46
:1027DC0002D0082B03D027E0194B3B6127E0FB68A4
:1027EC009B0C03F00F03174AD35C7B60FB6803F46C
:1027FC008033002B10D0114B5B685B0C03F0010392
:10280C00114AD35CBB607B680D4A03FB02F2BB68C8
:10281C00B2FBF3F37B6104E07B680C4A02FB03F32D
:10282C007B617B693B6102E0054B3B6100BF3B690F
:10283C0018461C37BD4680BC704700BF00100240D4
:10284C0000127A00003E0008103E000800093D000E
:10285C0080B485B000AF78600A4B1B680A4AA2FBB3
:10286C0003235B0A7A6802FB03F3FB6000BFFB687F
:10287C005A1EFA60002BF9D100BF00BF1437BD46B9
:10288C0080BC704700000020D34D621080B582B030
:10289C0000AF78607B68002B01D1012341E07B689D
:1028AC0093F83D30DBB2002B06D17B68002283F815
:1028BC003C207868FEF7AAFF7B68022283F83D2053
:1028CC007B681A687B6804331946104600F0DEFDFD
:1028DC007B68012283F846207B68012283F83E2026
:1028EC007B68012283F83F207B68012283F840201B
:1028FC007B68012283F841207B68012283F8422007
:10290C007B68012283F843207B68012283F84420F2
:10291C007B68012283F845207B68012283F83D20E7
:10292C00002318460837BD4680BD80B582B000AF85
:10293C0078607B68002B01D1012341E07B6893F820
:10294C003D30DBB2002B06D17B68002283F83C20A3
:10295C00786800F039F87B68022283F83D207B68A8
:10296C001A687B6804331946104600F08FFD7B68AB
:10297C00012283F846207B68012283F83E207B6885
:10298C00012283F83F207B68012283F840207B687A
:10299C00012283F841207B68012283F842207B6866
:1029AC00012283F843207B68012283F844207B6852
:1029BC00012283F845207B68012283F83D20002307
:1029CC0018460837BD4680BD80B483B000AF786030
:1029DC0000BF0C37BD4680BC7047000080B584B08A
:1029EC0000AF786039603B68002B09D17B6893F8A5
:1029FC003E30DBB2012B14BF01230023DBB222E0FB
:102A0C003B68042B09D17B6893F83F30DBB2012B78
:102A1C0014BF01230023DBB215E03B68082B09D15E
:102A2C007B6893F84030DBB2012B14BF01230023E9
:102A3C00DBB208E07B6893F84130DBB2012B14BFAA
:102A4C0001230023DBB2002B01D001235EE03B68A5
:102A5C00002B04D17B68022283F83E2013E03B68F4
:102A6C00042B04D17B68022283F83F200BE03B68E7
:102A7C00082B04D17B68022283F8402003E07B689A
:102A8C00022283F841207B681B68012239681846B2
:102A9C0001F089F87B681B681E4A934207D17B685A
:102AAC001B685A6C7B681B6842F400425A647B6852
:102ABC001B68184A93420ED07B681B68B3F1804F99
:102ACC0009D07B681B68144A934204D07B681B684E
:102ADC00124A934211D17B681B689B6803F0070371
:102AEC00FB60FB68062B10D07B681B681A687B6840
:102AFC001B6842F001021A6007E07B681B681A68C9
:102B0C007B681B6842F001021A60002318461037DC
:102B1C00BD4680BD002C0140000400400008004070
:102B2C0080B582B000AF78607B68002B01D10123A7
:102B3C0041E07B6893F83D30DBB2002B06D17B681B
:102B4C00002283F83C20786800F039F87B68022278
:102B5C0083F83D207B681A687B680433194610465D
:102B6C0000F094FC7B68012283F846207B680122EC
:102B7C0083F83E207B68012283F83F207B6801228A
:102B8C0083F840207B68012283F841207B68012276
:102B9C0083F842207B68012283F843207B68012262
:102BAC0083F844207B68012283F845207B6801224E
:102BBC0083F83D20002318460837BD4680BD80B4FD
:102BCC0083B000AF786000BF0C37BD4680BC704747
:102BDC0080B584B000AF786039600023FB733B682C
:102BEC00002B04D17B6893F83E30DBB213E03B68DA
:102BFC00042B04D17B6893F83F30DBB20BE03B68CD
:102C0C00082B04D17B6893F84030DBB203E07B687F
:102C1C0093F84130DBB2BB733B68002B04D17B686B
:102C2C0093F84230DBB213E03B68042B04D17B6891
:102C3C0093F84330DBB20BE03B68082B04D17B6884
:102C4C0093F84430DBB203E07B6893F84530DBB299
:102C5C007B73BB7B012B02D17B7B012B01D001232E
:102C6C00B8E03B68002B04D17B68022283F83E203D
:102C7C0013E03B68042B04D17B68022283F83F20CD
:102C8C000BE03B68082B04D17B68022283F84020C0
:102C9C0003E07B68022283F841203B68002B04D1BF
:102CAC007B68022283F8422013E03B68042B04D19A
:102CBC007B68022283F843200BE03B68082B04D18D
:102CCC007B68022283F8442003E07B68022283F8AD
:102CDC0045203B680C2B41D801A252F823F000BFD1
:102CEC00212D0008692D0008692D0008692D0008A8
:102CFC00332D0008692D0008692D0008692D000886
:102D0C00452D0008692D0008692D0008692D000863
:102D1C00572D00087B681B68DA687B681B6842F0DB
:102D2C000202DA601DE07B681B68DA687B681B684E
:102D3C0042F00402DA6014E07B681B68DA687B6896
:102D4C001B6842F00802DA600BE07B681B68DA68EB
:102D5C007B681B6842F01002DA6002E00123FB730F
:102D6C0000BFFB7B002B34D17B681B6801223968C8
:102D7C00184600F018FF7B681B68184A93420ED067
:102D8C007B681B68B3F1804F09D07B681B68144AC1
:102D9C00934204D07B681B68124A934211D17B6822
:102DAC001B689B6803F00703BB60BB68062B10D045
:102DBC007B681B681A687B681B6842F001021A600A
:102DCC0007E07B681B681A687B681B6842F001028D
:102DDC001A60FB7B18461037BD4680BD002C0140A5
:102DEC00000400400008004080B582B000AF78605D
:102DFC007B681B681B6903F00203022B22D17B68E2
:102E0C001B68DB6803F00203022B1BD17B681B6879
:102E1C006FF002021A617B6801221A777B681B68CB
:102E2C009B6903F00303002B03D07868FDF7F6FED3
:102E3C0005E0786800F00EFB786800F014FB7B6806
:102E4C0000221A777B681B681B6903F00403042BB0
:102E5C0022D17B681B68DB6803F00403042B1BD1B5
:102E6C007B681B686FF004021A617B6802221A7778
:102E7C007B681B689B6903F44073002B03D0786854
:102E8C00FDF7CCFE05E0786800F0E4FA786800F015
:102E9C00EAFA7B6800221A777B681B681B6903F0CF
:102EAC000803082B22D17B681B68DB6803F008033E
:102EBC00082B1BD17B681B686FF008021A617B68BA
:102ECC0004221A777B681B68DB6903F00303002B71
:102EDC0003D07868FDF7A2FE05E0786800F0BAFA36
:102EEC00786800F0C0FA7B6800221A777B681B6850
:102EFC001B6903F01003102B22D17B681B68DB6865
:102F0C0003F01003102B1BD17B681B686FF01002B1
:102F1C001A617B6808221A777B681B68DB6903F4EB
:102F2C004073002B03D07868FDF778FE05E07868D5
:102F3C0000F090FA786800F096FA7B6800221A7715
:102F4C007B681B681B6903F00103012B0ED17B68A6
:102F5C001B68DB6803F00103012B07D17B681B683E
:102F6C006FF001021A61786800F06BFA7B681B68DD
:102F7C001B6903F08003802B0ED17B681B68DB6818
:102F8C0003F08003802B07D17B681B686FF08002F5
:102F9C001A61786800F0E4FE7B681B681B6903F01B
:102FAC004003402B0ED17B681B68DB6803F04003A9
:102FBC00402B07D17B681B686FF040021A61786860
:102FCC0000F05AFA7B681B681B6903F02003202B66
:102FDC000ED17B681B68DB6803F02003202B07D124
:102FEC007B681B686FF020021A61786800F0AFFEF6
:102FFC0000BF0837BD4680BD80B586B000AFF86015
:10300C00B9607A600023FB75FB6893F83C30012BA8
:10301C0001D1022388E0FB68012283F83C207B6805
:10302C00002B1BD1FB681868BB681968BB685A6811
:10303C00BB68DB6800F014FCFB681B689A69FB68D2
:10304C001B6822F00C029A61FB681B689969BB68CB
:10305C009A68FB681B680A439A6160E07B68042BE2
:10306C001CD1FB681868BB681968BB685A68BB68D8
:10307C00DB6800F07DFCFB681B689A69FB681B68C9
:10308C0022F440629A61FB681B689969BB689B6873
:10309C001A02FB681B680A439A6140E07B68082BA4
:1030AC001BD1FB681868BB681968BB685A68BB6899
:1030BC00DB6800F0C8FCFB681B68DA69FB681B68FE
:1030CC0022F00C02DA61FB681B68D969BB689A684C
:1030DC00FB681B680A43DA6121E07B680C2B1CD16E
:1030EC00FB681868BB681968BB685A68BB68DB6802
:1030FC0000F0E4FCFB681B68DA69FB681B6822F4CF
:10310C004062DA61FB681B68D969BB689B681A026C
:10311C00FB681B680A43DA6101E00123FB75FB685D
:10312C00002283F83C20FB7D18461837BD4680BD35
:10313C0080B586B000AFF860B9607A600023FB758B
:10314C00FB6893F83C30012B01D10223AEE0FB6805
:10315C00012283F83C207B680C2B00F29F8001A29B
:10316C0052F823F0A5310008A9320008A932000852
:10317C00A9320008E5310008A9320008A93200087C
:10318C00A932000827320008A9320008A932000829
:10319C00A932000867320008FB681B68B96818463A
:1031AC0000F0D6F9FB681B689A69FB681B6842F053
:1031BC0008029A61FB681B689A69FB681B6822F01D
:1031CC0004029A61FB681B689969BB681A69FB6801
:1031DC001B680A439A6164E0FB681B68B96818466F
:1031EC0000F01CFAFB681B689A69FB681B6842F4C8
:1031FC0000629A61FB681B689A69FB681B6822F481
:10320C0080629A61FB681B689969BB681B691A022A
:10321C00FB681B680A439A6143E0FB681B68B9684A
:10322C00184600F065FAFB681B68DA69FB681B68D6
:10323C0042F00802DA61FB681B68DA69FB681B68FC
:10324C0022F00402DA61FB681B68D969BB681A6951
:10325C00FB681B680A43DA6123E0FB681B68B968EA
:10326C00184600F0AFFAFB681B68DA69FB681B684C
:10327C0042F40062DA61FB681B68DA69FB681B6860
:10328C0022F48062DA61FB681B68D969BB681B6930
:10329C001A02FB681B680A43DA6102E00123FB7522
:1032AC0000BFFB68002283F83C20FB7D18461837D2
:1032BC00BD4680BD80B584B000AF78603960002316
:1032CC00FB737B6893F83C30012B01D10223B4E0F3
:1032DC007B68012283F83C207B68022283F83D2026
:1032EC007B681B689B68BB60BB6823F07703BB6083
:1032FC00BB6823F47F43BB607B681B68BA689A6029
:10330C003B681B68B3F5005F3ED0B3F5005F00F27D
:10331C008780B3F5805F00F08680B3F5805F7FD83F
:10332C00702B1AD0702B7BD8602B50D0602B77D899
:10333C00502B3CD0502B73D8402B58D0402B6FD8EF
:10334C00302B64D0302B6BD8202B60D0202B67D83F
:10335C00002B5CD0102B5AD062E07B6818683B685D
:10336C0099683B685A683B68DB6800F0FDFB7B683A
:10337C001B689B68BB60BB6843F07703BB607B68D2
:10338C001B68BA689A604FE07B6818683B6899685C
:10339C003B685A683B68DB6800F0E6FB7B681B689F
:1033AC009A687B681B6842F480429A603CE07B68B8
:1033BC0018683B6859683B68DB681A4600F0AAFA43
:1033CC007B681B685021184600F0B4FB2CE07B682E
:1033DC0018683B6859683B68DB681A4600F004FBC8
:1033EC007B681B686021184600F0A4FB1CE07B681E
:1033FC0018683B6859683B68DB681A4600F08AFA23
:10340C007B681B684021184600F094FB0CE07B683D
:10341C001A683B681B681946104600F08BFB03E0EA
:10342C000123FB7300E000BF7B68012283F83D2081
:10343C007B68002283F83C20FB7B18461037BD4686
:10344C0080BD80B483B000AF786000BF0C37BD4640
:10345C0080BC704780B483B000AF786000BF0C377D
:10346C00BD4680BC704780B483B000AF786000BFAD
:10347C000C37BD4680BC704780B483B000AF786019
:10348C0000BF0C37BD4680BC7047000080B485B0CF
:10349C0000AF786039607B681B68FB607B68294AE9
:1034AC0093420BD07B68B3F1804F07D07B68264AE0
:1034BC00934203D07B68254A934208D1FB6823F0E2
:1034CC007003FB603B685B68FA681343FB607B68C6
:1034DC001C4A93420BD07B68B3F1804F07D07B68BA
:1034EC00194A934203D07B68184A934208D1FB686F
:1034FC0023F44073FB603B68DB68FA681343FB60A2
:10350C00FB6823F080023B685B691343FB607B68BC
:10351C00FA681A603B689A687B68DA623B681A68DA
:10352C007B689A627B68074A934203D13B681A69AD
:10353C007B681A637B6801225A6100BF1437BD4651
:10354C0080BC7047002C0140000400400008004083
:10355C0080B487B000AF786039607B681B6A7B6190
:10356C007B681B6A23F001027B681A627B685B68CC
:10357C003B617B689B69FB60FB6823F07003FB601D
:10358C00FB6823F00303FB603B681B68FA6813437A
:10359C00FB607B6923F002037B613B689B687A6963
:1035AC0013437B617B681C4A93420CD17B6923F0EB
:1035BC0008037B613B68DB687A6913437B617B6939
:1035CC0023F004037B617B68134A934211D13B695E
:1035DC0023F480733B613B6923F400733B613B68CC
:1035EC005B693A6913433B613B689B693A691343D6
:1035FC003B617B683A695A607B68FA689A613B6800
:10360C005A687B685A637B687A691A6200BF1C37F8
:10361C00BD4680BC704700BF002C014080B487B011
:10362C0000AF786039607B681B6A7B617B681B6AC2
:10363C0023F010027B681A627B685B683B617B68D5
:10364C009B69FB60FB6823F4E043FB60FB6823F49D
:10365C004073FB603B681B681B02FA681343FB60FA
:10366C007B6923F020037B613B689B681B017A69B3
:10367C0013437B617B681D4A93420DD17B6923F018
:10368C0080037B613B68DB681B017A6913437B61B8
:10369C007B6923F040037B617B68144A934213D10E
:1036AC003B6923F480633B613B6923F400633B611A
:1036BC003B685B699B003A6913433B613B689B69C0
:1036CC009B003A6913433B617B683A695A607B689B
:1036DC00FA689A613B685A687B689A637B687A6976
:1036EC001A6200BF1C37BD4680BC7047002C0140DD
:1036FC0080B487B000AF786039607B681B6A7B61EF
:10370C007B681B6A23F480727B681A627B685B6837
:10371C003B617B68DB69FB60FB6823F07003FB603B
:10372C00FB6823F00303FB603B681B68FA681343D8
:10373C00FB607B6923F400737B613B689B681B0215
:10374C007A6913437B617B681D4A93420DD17B6977
:10375C0023F400637B613B68DB681B027A691343CB
:10376C007B617B6923F480637B617B68144A9342A1
:10377C0013D13B6923F480533B613B6923F4005321
:10378C003B613B685B691B013A6913433B613B68D6
:10379C009B691B013A6913433B617B683A695A6028
:1037AC007B68FA68DA613B685A687B68DA637B6825
:1037BC007A691A6200BF1C37BD4680BC704700BFD7
:1037CC00002C014080B487B000AF786039607B6812
:1037DC001B6A3B617B681B6A23F480527B681A620C
:1037EC007B685B687B617B68DB69FB60FB6823F44F
:1037FC00E043FB60FB6823F44073FB603B681B6891
:10380C001B02FA681343FB603B6923F400533B61D2
:10381C003B689B681B033A6913433B617B680F4A07
:10382C00934209D17B6923F480437B613B685B69DC
:10383C009B017A6913437B617B687A695A607B6868
:10384C00FA68DA613B685A687B681A647B683A6983
:10385C001A6200BF1C37BD4680BC7047002C01406B
:10386C0080B487B000AFF860B9607A603B60FB68E9
:10387C001B6A3B61FB681B6A23F00102FB681A623E
:10388C00FB689B697B61FB681F4A93420BD0FB680A
:10389C00B3F1804F07D0FB681C4A934203D0FB68FE
:1038AC001B4A934201D1012300E00023002B08D0D6
:1038BC007B6923F003037B617A697B6813437B612B
:1038CC0003E07B6943F001037B617B6923F0F00328
:1038DC007B613B681B01DBB27A6913437B613B69FB
:1038EC0023F00A033B61BB6803F00A033A691343F4
:1038FC003B61FB687A699A61FB683A691A6200BF9E
:10390C001C37BD4680BC7047002C014000040040B1
:10391C000008004080B487B000AFF860B9607A60EE
:10392C00FB681B6A7B61FB681B6A23F00102FB6866
:10393C001A62FB689B693B613B6923F0F0033B61B6
:10394C007B681B013A6913433B617B6923F00A03D3
:10395C007B617A69BB6813437B61FB683A699A6146
:10396C00FB687A691A6200BF1C37BD4680BC704781
:10397C0080B487B000AFF860B9607A603B60FB68D8
:10398C001B6A7B61FB681B6A23F01002FB681A62DE
:10399C00FB689B693B613B6923F440733B617B682B
:1039AC001B023A6913433B613B6923F470433B614F
:1039BC003B681B039BB23A6913433B617B6923F061
:1039CC00A0037B61BB681B0103F0A0037A6913435E
:1039DC007B61FB683A699A61FB687A691A6200BF7D
:1039EC001C37BD4680BC704780B487B000AFF86010
:1039FC00B9607A60FB681B6A7B61FB681B6A23F009
:103A0C001002FB681A62FB689B693B613B6923F4FB
:103A1C0070433B617B681B033A6913433B617B69D1
:103A2C0023F0A0037B61BB681B017A6913437B61A4
:103A3C00FB683A699A61FB687A691A6200BF1C37A5
:103A4C00BD4680BC704780B487B000AFF860B960E9
:103A5C007A603B60FB681B6A7B61FB681B6A23F422
:103A6C008072FB681A62FB68DB693B613B6923F07F
:103A7C0003033B613A697B6813433B613B6923F069
:103A8C00F0033B613B681B01DBB23A6913433B61BA
:103A9C007B6923F400737B61BB681B0203F4007326
:103AAC007A6913437B61FB683A69DA61FB687A696E
:103ABC001A6200BF1C37BD4680BC704780B487B00B
:103ACC0000AFF860B9607A603B60FB681B6A7B6191
:103ADC00FB681B6A23F48052FB681A62FB68DB6983
:103AEC003B613B6923F440733B617B681B023A6981
:103AFC0013433B613B6923F470433B613B681B03FD
:103B0C009BB23A6913433B617B6923F400537B619D
:103B1C00BB681B0303F400537A6913437B61FB6896
:103B2C003A69DA61FB687A691A6200BF1C37BD46D4
:103B3C0080BC704780B485B000AF786039607B681A
:103B4C009B68FB60FB6823F07003FB603A68FB68C2
:103B5C00134343F00703FB607B68FA689A6000BF6D
:103B6C001437BD4680BC704780B487B000AFF86096
:103B7C00B9607A603B60FB689B687B617B6923F46E
:103B8C007F437B613B681A027B681A43BB68134313
:103B9C007A6913437B61FB687A699A6000BF1C37B2
:103BAC00BD4680BC704780B487B000AFF860B96088
:103BBC007A60BB6803F01F03012202FA03F37B61F6
:103BCC00FB681A6A7B69DB431A40FB681A62FB6864
:103BDC001A6ABB6803F01F03796801FA03F31A43EE
:103BEC00FB681A6200BF1C37BD4680BC70470000E2
:103BFC0080B485B000AF786039607B6893F83C3056
:103C0C00012B01D1022346E07B68012283F83C2082
:103C1C007B68022283F83D207B681B685B68FB6035
:103C2C007B681B689B68BB60FB6823F07003FB60C0
:103C3C003B681B68FA681343FB607B681B68FA6877
:103C4C005A607B681B68164A93420ED07B681B68CF
:103C5C00B3F1804F09D07B681B68124A934204D0A1
:103C6C007B681B68104A93420CD1BB6823F080031D
:103C7C00BB603B685B68BA681343BB607B681B68BE
:103C8C00BA689A607B68012283F83D207B68002229
:103C9C0083F83C20002318461437BD4680BC70477F
:103CAC00002C0140000400400008004080B485B0A6
:103CBC0000AF786039600023FB607B6893F83C3080
:103CCC00012B01D102233DE07B68012283F83C20CB
:103CDC00FB6823F0FF023B68DB681343FB60FB6867
:103CEC0023F440723B689B681343FB60FB6823F42E
:103CFC0080623B685B681343FB60FB6823F40062E3
:103D0C003B681B681343FB60FB6823F480523B68E1
:103D1C001B691343FB60FB6823F400523B685B692F
:103D2C001343FB60FB6823F480423B68DB6913435D
:103D3C00FB607B681B68FA685A647B68002283F816
:103D4C003C20002318461437BD4680BC704780B415
:103D5C0083B000AF786000BF0C37BD4680BC7047A5
:103D6C0080B483B000AF786000BF0C37BD4680BC18
:103D7C007047000070B500260C4D0D4C641BA41050
:103D8C00A64209D100F022F800260A4D0A4C641B09
:103D9C00A410A64205D170BD55F8043B98470136D6
:103DAC00EEE755F8043B98470136F2E7143E00085D
:103DBC00143E0008143E0008183E00080346024456
:103DCC00934200D1704703F8011BF9E7F8B500BF27
:103DDC00F8BC08BC9E467047F8B500BFF8BC08BCE0
:043DEC009E46704738
:103DF000000000000000000001020304060708099B
:103E000002030405060708090A0B0C0D0E0F10101B
:043E100001020000AB
:043E14003101000870
:043E18000D01000890
:0C3E1C000024F400100000000100000071
:0400000508001A31A4
:00000001FF
